:03000000022FAB21
:0C2FAB00787FE4F6D8FD758122022FF239
:0C000300000000000000000000000000F1
:0B350400EF1FAC0670011E4C70F62299
:10343300AB07AA06EB1BAE0270011A4E60097FAA06
:083443007E0512350480ED2224
:102CF900907120E04480F07F057E00123504E4FFE6
:102D0900FE12343375A75575AC589071327450F072
:102D19009071307403F0907136742FF07F18EF249E
:102D290066FDE434718D82F583E4F00FEFB433EE80
:102D3900904011E4935407FF90711CE054F84FF050
:102D4900904017E493547FFF90711DE054804FF039
:102D5900904010E493FF5401C43333335480FE9000
:102D69007123E0547F4EF0EFC313543F4440FFA357
:102D7900E054804FF0904012E493FF540FFE90719D
:102D890046E054F04EF0EFC4540FFF90714FE054F9
:102D9900F04FF0904013E493543FFF907140E0549A
:102DA900C04FF0904014E493907126F0904015E4E0
:0E2DB90093907128F0904016E49390712AF0E8
:012DC70022E9
:102B0E007379732072657365740A00637572207031
:102B1E00776D5F6368616E6E656C5F305F64757450
:102B2E00792025750A006375722070776D5F636872
:102B3E00616E6E656C5F315F647574792025750A00
:102B4E000061646A7573745F70776D5F6368616E40
:102B5E006E656C5F305F647574792025750A00614F
:102B6E00646A7573745F70776D5F6368616E6E65AE
:102B7E006C5F315F647574792025750A006C696D20
:102B8E00697465645F70776D5F647574795F647581
:102B9E00655F746F5F74656D702025750A006C69D2
:102BAE006D697465645F70776D5F647574795F6469
:102BBE0075655F746F5F756E737461626C655F656A
:102BCE006E67696E652025750A006375725F707792
:102BDE006D5F6368616E6E656C5F305F647574798E
:102BEE003A2025750A006375725F70776D5F6368B2
:102BFE00616E6E656C5F315F647574793A20257510
:022C0E000A00BA
:1009EC00446546428C0000426540177042654217D0
:0609FC007042654400009A
:08350F00E5D430E4FB8FD72264
:1033FD0078C2E25403F2E24401F290717EE044049B
:0B340D00F075D60175D59F75D2102216
:102C1000C3906491E09470906490E0941740030234
:102C20002CC6C3906493E09470906492E094174033
:102C300003022CC6E4FFFE7D807CBF906546E0F871
:102C4000A3E0F9A3E0FAA3E0FB12002EE4FBFA797B
:102C5000A87842120228E4FBFA798078BF12002E8D
:102C600090654A1208DF906546E0FCA3E0FDA3E012
:102C7000FEA3E0FFE4FBFAF9783F12002E906546D0
:102C80001208DF90654AE0FCA3E0FDA3E0FEA3E0AC
:102C9000FF9065521208DF7F007E007DA07C40120D
:102CA0002611E4FBFA7970784212011F1202C590D6
:102CB0006490EEF0A3EFF0906490E0FFA3E09064E6
:102CC00092CFF0A3EFF0C3906491E0947090649081
:102CD000E09417500FC3906493E09470906492E076
:102CE000941740149064907417F0A37470F090647B
:092CF000927417F0A37470F02235
:10225A0075D9DD122CF975D95590715EE054FEF0EE
:10226A0075D9BB1233FD7BFF7A2B790E12148312B8
:10227A00338C123418122DC81232DC1233DD1233A9
:10228A00B99065727417F0A37470F0906490741723
:10229A00F0A37470F0906490E0FEA3E0FF1234841F
:1022AA009064927417F0A37470F0906492E0FEA3A5
:1022BA00E0FF123494906490E0FFA3E0906485CF2D
:1022CA00F0A3EFF0906492E0FFA3E0906487CFF070
:1022DA00A3EFF0C2117BFF7A2B7919906490E0FF8B
:1022EA00A3E0906504CFF0A3EFF01214837BFF7A8A
:1022FA002B7934906492E0FFA3E0906504CFF0A3B9
:10230A00EFF01214837BFF7A2B794F906485E0FFFC
:10231A00A3E0906504CFF0A3EFF01214837BFF7A59
:10232A002B796D906487E0FFA3E0906504CFF0A35A
:10233A00EFF01214837BFF7A2B798B90648AE0FF8B
:10234A00A3E0906504CFF0A3EFF01214837BFF7A29
:10235A002B79AC90648CE0FFA3E0906504CFF0A3E6
:0E236A00EFF01214831234731230BF123517C5
:1023780090648CE0FEA3E0FF906540E06E7003A3DC
:10238800E06F6035906485E0FEA3E0FF12320990AB
:102398006485EEF0A3EFF0906487E0FEA3E0FF12FF
:1023A8003209906487EEF0A3EFF090648CE0FFA30D
:0923B800E0906540CFF0A3EFF0C6
:1023C100906572E0FEA3E0FF906542E06E7003A3AA
:1023D100E06F6035906485E0FEA3E0FF1232099062
:1023E1006485EEF0A3EFF0906487E0FEA3E0FF12B6
:1023F1003209906487EEF0A3EFF0906572E0FFA3DD
:09240100E0906542CFF0A3EFF07A
:0F240A00300F0C7B017A64799712202A12189BED
:10241900906545E004F07006906544E004F0C390CF
:102429006545E094C8906544E09400500302236F29
:10243900E4F0A3F07BFF7A2B79D8906490E0FFA3B6
:10244900E0906504CFF0A3EFF01214837BFF7A2BA1
:1024590079F4906492E0FFA3E0906504CFF0A3EFD4
:04246900F0121483D6
:03246D0002236FD8
:100A020042648A177042648C177042648E17704277
:100A12006485177042648717704260450000426423
:100A220081000042647F100041648900643860479D
:100A320000000000000000000000000000000000B4
:100A420000000000000000000000000000000000A4
:100A52000000000000000000000000000000000094
:100A62000000000000000000000000000000000084
:100E620000000000000000004264830000426000B5
:100E7200177060406002FFFF0000000000000000E9
:100E82000000000000000000000000000000000060
:100E92000000000000000000000000000000000050
:100EA2000000000000000000000000000000000040
:100EB20000000000000041604200416043004160C8
:040EC2004400C11215
:102DC8007812E24401F278567407F278277417F201
:102DD80018746FF27833E4F218F27819E24401F2C9
:102DE8007811E24401F27817E24401F27812E244E1
:102DF80001F27814E24401F27818E24401F278D33F
:102E0800E254CFF2E24410F2E254FCF2E24401F25E
:102E180090718AE4F090718C740AF07812E244029E
:102E2800F278577407F278297417F218746FF278E9
:102E380037E4F218F27819E24402F27811E2440217
:102E4800F27817E24402F27812E24402F27814E2CD
:102E58004402F27818E24402F278C3E254F3F2E250
:0A2E68004404F29071837409F02213
:10348400AC06EC7833F218EFF27817E24401F2223A
:10349400AC06EC7837F218EFF27817E24402F22225
:100F89009064FE1208EB00000000906002E0F4702B
:090F990003A3E0F4600302102E32
:100FA200906502F0A3F0906502E0FEA3E0FFC39417
:100FB20020EE9400502E90655AE0FCA3E0FDEF2550
:100FC200E0FFEE33FE74022FF58274603EF583EC8F
:100FD200F0A3EDF0906503E004F070CA906502E0C2
:100FE20004F080C2E4906502F0A3F0906502E0FE96
:100FF200A3E0FFC3941CEE9402400302108F90659D
:101002005AE0FCA3E0FDEF25E0FFEE33FE74472F2C
:10101200F58274603EF583ECF0A3EDF0906503E099
:0C10220004F070C7906502E004F080BF8D
:10102E00906042E025E02402F582E43460F583E02E
:10103E00FFA3E0906502CFF0A3EFF090655AE0FEBB
:10104E00A3E0FF906503E02FF0906502E03EF0E034
:10105E00C313FEA3E013FF906502EEF0A3EFF09032
:10106E006042E025E02402F582E43460F583EEF080
:10107E00A3EFF0906042E004F0E0C394204002E45D
:01108E00F071
:10108F00E4906502F0A3F09064FEE0F8A3E0F9A30A
:10109F00E0FAA3E0FB906503E025E0FF906502E036
:1010AF0033FE74022FF58274603EF583E0FEA3E0F9
:1010BF00FFE4FCFDEB2FFFEA3EFEED39FDEC38FCC3
:1010CF009064FE1208DF906503E004F070069065EF
:1010DF0002E004F0906502E07004A3E0642070A7C2
:1010EF009064FEE0FCA3E0FDA3E0FEA3E0FF780523
:0910FF0012088D9064FE1208DF56
:101108009064FEA3A3E0FEA3E0FDAC06906484E037
:1011180025E0FF906483E033FE74472FF582746006
:101128003EF583ECF0A3EDF0906484E004F07006E3
:10113800906483E004F0C3906484E0941C9064831A
:09114800E094024004E4F0A3F07D
:10115100E4906502F0A3F0906481F0A3F090647FC5
:101161007410F0A3E4F0906502E0FEA3E0FFC394E5
:101171001CEE94024003021235EF25E0FFEE33FE30
:1011810074472FF58274603EF583E0FCA3E0FD9087
:101191006481E0FAA3E0FBD3ED9BEC9A401674471F
:1011A1002FF58274603EF583E0FFA3E0906481CF68
:1011B100F0A3EFF0906503E025E0FF906502E033D6
:1011C100FE74472FF58274603EF583E0FCA3E0FDD9
:1011D10090647FE0FAA3E0FBC3ED9BEC9A50167498
:1011E100472FF58274603EF583E0FFA3E090647FB2
:1011F100CFF0A3EFF090647FE0FEA3E0FFC3906423
:1012010082E09FFF906481E09EFED3EF9450EE94C4
:10121100004008906489741EF08008906489E06041
:101221000214F0906503E004F07006906502E0049A
:04123100F00211674F
:10123500E47F8B7E06FDFC9064FEE0F8A3E0F9A355
:10124500E0FAA3E0FBC312087C502020120302122F
:10125500E2E47F8B7E06FDFC9064FEE0F8A3E0F9F6
:10126500A3E0FAA3E0FB12087C4072E4906043F02F
:10127500A3F0D212906489E0FFB41E3214F0D3902B
:10128500648DE094B890648CE0940B400CA3E0244A
:10129500FFF090648CE034FFF0C390648DE094B867
:1012A50090648CE0940B40030213CE02136CEF6044
:1012B500030213CE200D030213CEC20DC390648D1D
:1012C500E0947090648CE0941740030213CEA3E081
:1012D50004F0700690648CE004F00213CEE47FC342
:1012E5007E05FDFC9064FEE0F8A3E0F9A3E0FAA317
:1012F500E0FBD312087C4078E47F6D7E06FDFC9010
:1013050064FEE0F8A3E0F9A3E0FAA3E0FBD312083A
:101315007C4008906043E064047055200E0302137E
:10132500CEC20E906043E0C394045003E004F0E4A1
:10133500906044F0C212D390648DE094B890648CB0
:10134500E0940B4002806BC390648DE094B8906488
:101355008CE0940B500EA3E004F0700690648CE0D2
:1013650004F0806590648C740BF0A374B8F0805918
:10137500E47FC37E05FDFC9064FEE0F8A3E0F9A3DD
:10138500E0FAA3E0FBD312087C4006906044E060DD
:1013950038300E35C20E9060447401F0E49060431D
:1013A500F0C212D390648DE0940890648CE09407A9
:1013B500400EA3E024FEF090648CE034FFF0800939
:1013C50090648C7407F0A304F090648CE0FEA3E0B5
:1013D500FF906000E06E7003A3E06F603590648558
:1013E500E0FEA3E0FF123209906485EEF0A3EFF072
:1013F500906487E0FEA3E0FF123209906487EEF067
:10140500A3EFF090648CE0FFA3E0906000CFF0A321
:02141500EFF0F6
:0114170022B2
:03351700C2942239
:0C34EC007818E230E0037F01227F00220C
:0C34F8007818E230E1037F01227F0022FF
:0D34D2007818E24401F290718C740AF02227
:0E000F007818E254FEF290718CE4F0D2962242
:0D34DF007818E24402F29071837409F02223
:0E34C4007818E254FDF2907183E4F0D2852274
:10320900906572E0FCA3E0FD120998E47B707A17DF
:10321900F9F81207C6D390648BE09F90648AE09E08
:103229005005E0FEA3E0FFD390648DE09F90648C8D
:10323900E09E5005E0FEA3E0FFD390648FE09F90ED
:0B324900648EE09E5005E0FEA3E0FF55
:013254002257
:100EC60041655C0041655800C109C18AC18B426514
:0D0ED6005A0000C10C41655D0041655900E6
:10338C0078F2E24403F278E3E244C0F278F0E254DB
:10339C00FDF208E254FDF208E2440CF278D0E2545B
:0D33AC00F7F208E254F7F208E244C0F22202
:10303700906558E06F70030230BEEFF0786AE244A3
:1030470078F27591FFEF24FE602014603314604618
:1030570024037056907123E054F8F0E0441EF0907A
:1030670071227407F07599188040907123E054D845
:10307700F0E0441DF09071227407F0759917802ACB
:10308700907123E054F8F0E0441EF0907122740729
:10309700F07599198014907123E054D8F0E0441D1D
:1030A700F09071227407F075990B7869E24448F241
:0730B7007F017E001234339B
:0130BE0022EF
:10277700E49064FEF0A3F0A3F09065011208EB006B
:10278700000000E4906505F0A3F074FF906507F082
:10279700A3F0E49064FEF07869E24401F2786BE21A
:1027A70030E1FAAF93EF75F010A4FFE594C4540F2E
:1027B700FDEF4DFF9064FFE5F0F0A3EFF07402F238
:1027C7009064FEE0C39402406D906505E0FEA3E0CF
:1027D700FFD3906500E09F9064FFE09E400CE0FF10
:1027E700A3E0906505CFF0A3EFF0906507E0FEA3A7
:1027F700E0FFC3906500E09F9064FFE09E500CE00F
:10280700FFA3E0906507CFF0A3EFF0906501E0F834
:10281700A3E0F9A3E0FAA3E0FB9064FFE0FEA3E0E6
:10282700FFE4FCFDEB2FFFEA3EFEED39FDEC38FC43
:102837009065011208DF9064FEE004F0E064146024
:102847000302279E906501E0FCA3E0FDA3E0FEA341
:10285700E0FFC006C007906505E0FEA3E0FBAA06FF
:10286700D007D006C3EF9BFFEE9AFEED9400FDEC78
:102877009400FC9065011208DF906501E0FCA3E07D
:10288700FDA3E0FEA3E0FFC006C007906507E0FEDA
:10289700A3E0FBAA06D007D006C3EF9BFFEE9AFE84
:1028A700ED9400FDEC9400FC9065011208DF906543
:1028B70001E0FCA3E0FDA3E0FEA3E0FF780412081B
:1028C7008D9064FFEEF0A3EFF09064FFE0FEA3E0CD
:0128D700FF01
:0128D80022DD
:103356009065681208EB00000000122777E4FCFD78
:103366009065681208DFE47F0CFEFDFC906568E05E
:10337600F8A3E0F9A3E0FAA3E0FB12073BE47B0A1B
:06338600FAF9F80207C687
:102A020090655E1208EB0000000090655CE06402D5
:102A12007003022B0D7F0112303712335690655E20
:102A22001208DF90655CE070587FEA7E0BFDFC9037
:102A3200655EE0F8A3E0F9A3E0FAA3E0FBC31208A5
:032A42007C503E87
:102A4500E4906562F0F012335690655E1208DFE49B
:102A55007FEA7E0BFDFC90655EE0F8A3E0F9A3E05C
:102A6500FAA3E0FBD312087C4006E490655CF022F3
:0E2A7500906562E004F0E0C3940A40CA8062FB
:0B2A830090655CE064016003022B0D15
:102A8E0020090FD20990656C1208EB0000000012AD
:102A9E0034B4E47F307E75FDFC90656CE0F8A3E005
:0D2AAE00F9A3E0FAA3E0FBC312087C40523C
:102ABB00E4906562F0F012335690655E1208DFE425
:102ACB007FEA7E0BFDFC90655EE0F8A3E0F9A3E0E6
:102ADB00FAA3E0FBD312087C400790655C7401F00D
:102AEB0022906562E004F0E0C3940A40C990655CF3
:102AFB007402F012345F90656C1208EB000000005A
:022B0B00C209FD
:012B0D0022A5
:1030BF0090655CE07003020F8990655CE0B40136A7
:0A30CF0090648A740BF0A374B8F04B
:1030D900300A65906485E0FEA3E0FF12320990642E
:1030E90085EEF0A3EFF0906487E0FEA3E0FF1232D3
:0B30F90009906487EEF0A3EFF0C20A1C
:103104002290655CE0B4023590648A7405F0A3747F
:02311400DCF0ED
:10311600300B28906485E0FEA3E0FF12320990642C
:1031260085EEF0A3EFF0906487E0FEA3E0FF123295
:0B31360009906487EEF0A3EFF0C20BDD
:01314100226B
:103473007F0212303712277790655AEEF0A3EFF0F0
:013483002226
:10314200E4FE7F0412303712277790655DE0701A33
:10315200C3EF94DBEE940E4004D20C8002C20C90BA
:10316200648E7417F0A37470F022C3EF9479EE9416
:103172000E5002C20C90648E7405F0A374DCF090C1
:103182006559E0702C906485E0FEA3E0FF123209DD
:10319200906485EEF0A3EFF0906487E0FEA3E0FF79
:1031A200123209906487EEF0A3EFF0906559740132
:0131B200F02C
:0131B30022F9
:100EE30041656700C1134265630000426565000008
:1034180043A820D2AF75D10178957401F21874765B
:0B342800F2789174A0F21874FDF222FB
:1034A4007890E2541FF2E244C0F243A820D2AF2243
:10344B007890E2541FF2E244A0F27892E4F208F290
:04345B0053A8DF2271
:03001E00022E723D
:102E7200C0E0C083C082C0D075D000C0007891E2AB
:102E820020E703022F06E24480F2906567E004F037
:102E9200E0C3940D4004E4F0D213906498E0C3942C
:062EA200FF5003E004F004
:102EA800300C2F906566E004F07006906565E004CC
:102EB800F0906563E4F0A3F0D3906566E094D09059
:102EC8006565E094074037E4F0A3F090655D04F091
:102ED800802C906564E004F07006906563E004F06F
:102EE800906565E4F0A3F0D3906564E094D09065B4
:0E2EF80063E094074008E4F0A3F090655DF0FD
:0B2F0600D000D0D0D082D083D0E032C9
:070EF30044656C00000000E3
:1032DC00E5B154CF42B1789CE254E3F2E24414F2EB
:1032EC00E254FCF2E24401F208E24480F2E24420AF
:1032FC00F278A1743BF2187460F2789EE4F208F252
:10330C00789CE2541FF2E244A0F253A8BFD2AF2241
:1034B400789CE2541FF2E244C0F243A840D2AF2207
:10345F00789CE2541FF2E244A0F2789EE4F208F264
:04346F0053A8BF227D
:030021000231B4F5
:1031B400C0E0C0F0C083C082C0D075D000C000C0E1
:1031C40004C005C006C007789DE230E723E24480CE
:1031D400F290656CE0FCA3E0FDA3E0FEA3E0240113
:1031E400FFE43EFEE43DFDE43CFC90656C1208DF28
:1031F400D007D006D005D004D000D0D0D082D08360
:05320400D0F0D0E03223
:090EFA00C10DC10E42653E00006D
:1033DD0043A901D2AF75D104907105E4F090710449
:1033ED007424F090710174A0F090710074FDF022BE
:03002400021D07B3
:101D0700C0E0C0F0C083C082C0D075D000C000C0A2
:101D170001C002C003C004C005C006C0079071011E
:101D2700E020E70302200FE04480F090653BE004E9
:101D3700F0700690653AE004F090653DE004F070BD
:101D47000690653CE004F090653FE004F070069073
:101D5700653EE004F0C390653DE0940D90653CE07E
:101D670094004006E4F0A3F0D20EC390653BE094E4
:0F1D77000D90653AE094004006E4F0A3F0D20D21
:101D8600208158906538E004F0E0C3941E500302A9
:101D96001EF6906531E064176003021EF690653901
:101DA600E09406401EE094145019906532E0FCA3BE
:101DB600E0FDA3E0FEA3E04401FFEC9065321208CB
:101DC600DF800A906539E0C394014001E0906537F1
:101DD6007401F0906536E4F0021EF6906538E0D3A3
:101DE60094005003021ED7E0D39432401790653218
:101DF6001208EB00000000906531E4F090653604AF
:101E0600F0021EBC906536E0603E906538E0C394F3
:101E1600024035E094075030A3E0C394064029E021
:101E260094145024906532E0FCA3E0FDA3E0FEA3E9
:101E3600E04401FFEC9065321208DF906531E00462
:101E4600F0E0641860708042906536E060559065F9
:101E560038E0C39407404CE094145047A3E0C39481
:101E6600014040E09406503B906532E0FCA3E0FD63
:101E7600A3E0FEA3E054FEFFEC9065321208DF906B
:101E86006531E004F0E06418602CA3E0FCA3E0FDFB
:101E9600A3E0FEA3E0FF78011208A09065321208C5
:101EA600DF80139065321208EB0000000090653168
:101EB600E4F0906536F0906538E4F0A3F090653173
:101EC600E0B418269065377401F0906536E4F0802A
:101ED60019906536E070139065321208EB00000029
:101EE60000906531E4F0906536F0906539E004F0D5
:101EF600906537E06023906531E4F0906537F0A394
:101F0600F0A3F0906532E0FCA3E0FDA3E0FEA3E0C1
:091F1600FF9064AA1208DFD2104A
:101F1F00C390653FE0940590653EE0940050030246
:101F2F00200FE4F0A3F030110302200F906490E033
:101F3F00FEA3E0FFD3906486E09F906485E09E400F
:101F4F0010906491E004F0702B906490E004F080A6
:101F5F0023906490E0FEA3E0FFC3906486E09F901F
:101F6F006485E09E500E906491E024FFF0906490A1
:101F7F00E034FFF0906490E0FEA3E0FF123484D3CE
:101F8F00906491E09400906490E0940050051200EA
:101F9F000F80031234D2906492E0FEA3E0FFD3903F
:101FAF006488E09F906487E09E4010906493E00403
:101FBF00F0702B906492E004F08023906492E0FE26
:101FCF00A3E0FFC3906488E09F906487E09E500E6B
:101FDF00906493E024FFF0906492E034FFF09064FB
:101FEF0092E0FEA3E0FF123494D3906493E0940048
:101FFF00906492E0940050051234C480031234DFD1
:10200F00D007D006D005D004D003D002D001D00025
:0B201F00D0D0D082D083D0F0D0E032CF
:0C0F03004265721770C1144265701770CF
:10247000E490657CF0A3F07F031230371227779049
:10248000657CEEF0A3EFF03014030225FFD39065D6
:102490007DE094EA90657CE09401500AE4906572D6
:1024A000F0A3F00225A9D390657DE094DD90657CD2
:1024B000E094045030E0FEA3E0FFEF2416FFEE347A
:1024C000FEFEE434FFFDE434FFFCE47BE07A2EF909
:1024D000F812073BE47B0AFAF9F81207C6E47BDD41
:1024E0007A04022590D390657DE094EE90657CE0BF
:1024F0009408501DE0FEA3E0FF7C5D7DC0120998AA
:10250000E47B0AFAF9F81207C6E47BEE7A080225A2
:1025100090D390657DE0941290657CE0940B501C04
:10252000E0FEA3E0FF7C177D70120998E47B02FABD
:10253000F9F81207C6E47B127A0B8054D390657DBC
:10254000E094BC90657CE0940C501CE0FEA3E0FF9E
:102550007C8C7DA0120998E47B0AFAF9F81207C670
:10256000E47BBC7A0C8029D390657DE094919065E2
:102570007CE0940F5029E0FEA3E0FF7CBB7D80123D
:102580000998E47B0AFAF9F81207C6E47B917A0FFE
:10259000F9F81207C6906572EEF0A3EFF0800A908A
:1025A00065727417F0A37470F0906572E0FEA3E09A
:1025B000FF906570E06E7003A3E06F6035906485F6
:1025C000E0FEA3E0FF123209906485EEF0A3EFF085
:1025D000906487E0FEA3E0FF123209906487EEF07A
:1025E000A3EFF0906572E0FFA3E0906570CFF0A3D9
:1025F000EFF0906572E07002A3E07014D21422C371
:1026000090657DE094DD90657CE094044002C21406
:0126100022A7
:103255006B6579203920636C69636B0A007465734B
:1032650074203120636C69636B0A00746573742084
:103275003220636C69636B0A0074657374203320B4
:10328500636C69636B0A0074657374203420636C26
:0532950069636B0A00F3
:100F0F00C10FC1104464AA00000000605064AE1409
:100F1F0001020304180506070810090A0B0C150D2A
:100F2F000E0F100511121314081516171806191A9B
:100F3F001B1C091D1E1F20982122232494252627C0
:100F4F002892292A2B2C912D2E2F30F83132333421
:100F5F00F435363738F2393A3B3CF13D3E3F40539A
:100F6F0064973200000000000A0D00000004000129
:050F7F00FF331C00001F
:10331C00301034C2109064AAE0FCA3E0FDA3E0FEE0
:09332C00A3E0FFEC4D4E4F601BC5
:103335009064AAA3A3A3E09064FEF09064AA120887
:0B334500EB000000009064FEE0FF229F
:063350007FFF227FFF2237
:10329A00E4906501F0FEEE75F005A424AEF582E433
:1032AA003464F583E0B5071FEE75F005A424AEF586
:1032BA0082E43464F583E5822DF582E43583F5836F
:1032CA00E0906501F080050EEEB410CA906501E049
:0132DA00FFF4
:0132DB0022D0
:0E189B00E49064FEF09064A8E07003021D0665
:1018A900E0FF906496E0B5072C9064A9E0B40325A5
:1018B900906494E0FEA3E0FFE4FCFD7BFF7AFFF96E
:1018C900F8D3120866400E906495E004F070069013
:0518D9006494E004F03E
:1018DE009064A8E0FFA3E0FD12329A9064FEEFF050
:1018EE00E49064A8F0A3F09064FEE012096C193045
:1018FE000119EA051A43091A700D1A9D111AA91534
:10190E001ADB191B081D1B60211BC1251BF3291C8B
:10191E004E2D1CAB311CD0351CF5391CFD3D000085
:10192E001D061234ECEF70061234F8EF6056E4FF29
:10193E00FE123209906485EEF0A3EFF0E4FFFE1282
:10194E003209906487EEF0A3EFF0906485E0FFA378
:10195E00E0906490CFF0A3EFF0906487E0FFA3E0F7
:10196E00906492CFF0A3EFF0906485E0FEA3E0FFC9
:10197E00123484906487E0FEA3E0FF1234941200C8
:10198E000F0234C47F707E17123209906485EEF018
:10199E00A3EFF07F707E17123209906487EEF0A3EA
:1019AE00EFF0906485E0FFA3E0906490CFF0A3EF9A
:1019BE00F0906485E0FEA3E0FF123484906487E02B
:1019CE00FFA3E0906492CFF0A3EFF0906487E0FE67
:1019DE00A3E0FF1234941234D20234DF1234ECEF4F
:1019EE0070091234F8EF7003021D067F707E171215
:1019FE003209906485EEF0A3EFF07F707E171232FD
:101A0E0009906487EEF0A3EFF0906485E0FFA3E009
:101A1E00906490CFF0A3EFF0906487E0FFA3E09086
:101A2E006492CFF0A3EFF0906485E0FEA3E0FF1286
:0E1A3E003484021AD01234ECEF7003021D063D
:101A4C00906485E0FFA3E09064FFCFF0A3EFF0C3B8
:101A5C00906486E09470906485E094174003021DB6
:011A6C000673
:0C1A6D00021B931234F8EF7003021D06F8
:101A7900906487E0FFA3E09064FFCFF0A3EFF0C389
:101A8900906488E09470906487E094174003021D85
:011A99000646
:101A9A00021B321234ECEF7003021D06021BCA123B
:101AAA0034F8EF7003021D067FB87E0B12320990DC
:101ABA006487EEF0A3EFF0906487E0FFA3E0906400
:101ACA0092CFF0A3EFF0906487E0FEA3E0FF023428
:0A1ADA00941234ECEF7003021D06B5
:101AE400906485E0FFA3E09064FFCFF0A3EFF0D310
:101AF400906486E0942C906485E094015003021D68
:011B040006DA
:0C1B0500021B931234F8EF7003021D065F
:101B1100906487E0FFA3E09064FFCFF0A3EFF0D3E0
:101B2100906488E0942C906487E094015003021D36
:101B310006906572E0FEA3E0FF7C007D051206D4ED
:101B41007D641206E6906500E02FF09064FFE03EB0
:0C1B5100F0E0FEA3E0FF12320990648770
:101B5D00021C487BFF7A3279551214831234ECEF54
:051B6D007003021D06DB
:101B7200906485E0FFA3E09064FFCFF0A3EFF0C391
:101B8200906486E09470906485E094174003021D8F
:101B920006906572E0FEA3E0FF7C007D051206D48C
:101BA2007D641206E6906500E02FF09064FFE03E4F
:0C1BB200F0E0FEA3E0FF12320990648511
:101BBE00021C481234ECEF7003021D067FB87E0B38
:101BCE00123209906485EEF0A3EFF0906485E0FF89
:101BDE00A3E0906490CFF0A3EFF0906485E0FEA3B5
:0E1BEE00E0FF0234841234ECEF7003021D0697
:101BFC00906485E0FFA3E09064FFCFF0A3EFF0D3F7
:101C0C00906486E0942C906485E094015003021D4E
:101C1C0006906572E0FEA3E0FF7C007D051206D401
:101C2C007D641206E6906500E02FF09064FFE03EC4
:101C3C00F0E0FEA3E0FF123209906485EEF0A3EF12
:011C4C00F0A7
:101C4D00221234ECEF602BE4FFFE12320990648512
:101C5D00EEF0A3EFF0906485E0FFA3E0906490CFE9
:101C6D00F0A3EFF0906485E0FEA3E0FF1234840250
:101C7D00000F7F707E17123209906485EEF0A3EF8E
:101C8D00F0906485E0FFA3E0906490CFF0A3EFF0B7
:101C9D00906485E0FEA3E0FF1234840234D27BFF12
:101CAD007A327962121483C3906573E0947C9065E7
:101CBD0072E094155043A3E024F4F0906572E03483
:101CCD0001F0227BFF7A327970121483D390657301
:101CDD00E094F4906572E09401401EA3E0240CF0B2
:101CED00906572E034FEF0227BFF7A32797E8006B9
:091CFD007BFF7A32798C1214830A
:011D060022BA
:1033B90078C0E24402F278C2E254F3F278D0E244EF
:1033C90002F278D2E254F3F2209104D20F8002C2C1
:0433D9000FD20F22DE
:040F8400416577004C
:10202A00E49064FEF07FFFA374FFF0906574EBF018
:10203A00A3EAF0A3E9F0900001120640FE12062777
:10204A00FDEEC39D5003022259906574E0FBA3E0A4
:10205A00FAA3E0F9900001E41206B290000E120908
:10206A003C120992EFF460089065777423F08009B6
:10207A00906577E06003E014F0906574E0FBA3E0FC
:10208A00FAA3E0F99000031206406F60159000056C
:10209A00120640600D900004E41206B2900003029A
:1020AA002255900005120640FE900004120640C315
:1020BA009E5013906574E0FBA3E0FAA3E0F9900048
:1020CA0004740102066D906574E0FBA3E0FAA3E0D4
:1020DA00F99000021206406F6077EFF470309000BA
:1020EA0006120640FE900008120640C39E400C905D
:1020FA0064FE7404F0900002022192906574E0FB81
:10210A00A3E0FAA3E0F990000A7401022244906560
:10211A0074E0FBA3E0FAA3E0F99000087401120648
:10212A00B290000C1206406F9065746017E0FBA332
:10213A00E0FAA3E0F990000974011206B290000CCB
:10214A00EF022244E0FBA3E0FAA3E0F99000098041
:10215A004EEFF47052906574E0FBA3E0FAA3E0F945
:10216A00900009120640D3940050030222479000BF
:10217A000B120640FE90000A120640D39E401290AF
:10218A0064FE7401F090000C1206409064FFF08027
:10219A007E906574E0FBA3E0FAA3E0F990000A746C
:1021AA000112066D022247906574E0FBA3E0FAA3D0
:1021BA00E0F9900008120640C394FF500890000806
:1021CA00740112066D900006120640FE9000081275
:1021DA000640B506089064FE7402F0802D9065747E
:1021EA00E0FBA3E0FAA3E0F9900007120640FE9094
:1021FA0000081206406E70459064FE7403F0900069
:10220A00061206409000081206B29064FFEFF090A2
:10221A006574E0FBA3E0FAA3E0F9900009E4120672
:10222A00B290000C74FF1206B29064FFE0900011A5
:10223A001206B29064FEE09000121206B290657423
:0F224A00E0FBA3E0FAA3E0F9900002EF1206B266
:012259002262
:10002700020331E86480F8E933E83360110460F0D3
:10003700ED33EC337009E8FCE9FDEAFEEBFF22043F
:1000470060DED3EB9FEA9EE99DE8C2E78CF0C2F73A
:1000570095F0400CE8CCF8E9CDF9EACEFAEBCFFB06
:100067001202FC85D0F05804700320D5B3E8047061
:10007700075002B2D502033B92D5EC0460F7E4CCFB
:10008700C0E0C398F8603B94186008400DD0E0FBCF
:10009700020313E4FBFAC9FC8028E830E406E4C94C
:1000A700FBE4CAFCE830E305E4C9CACBFCE8540723
:1000B7006010F8C3E913F9EA13FAEB13FBEC13FC2E
:1000C700D8F130F52FC3E49CFCEF9BFFEE9AFEEDD1
:1000D70099FDD0E0FBEF4E4D4C701222DB0302037B
:1000E70038EC2CFCEF33FFEE33FEED33FDED30E75C
:1000F700EB020313EF2BFFEE3AFEED39FDD0E0FBE9
:1001070050130BBB000302033BED13FDEE13FEEF91
:0801170013FFEC13FC020313BB
:10011F00EC4D6011E8497017ED33EC3304600DE4DA
:10012F00FCFFFEFD22E933E8330470F802033112BD
:10013F0002FC58046009E4CC2481500628500902BF
:10014F00033B284003020338C0E0EB4A7044B980F8
:10015F0006D0E0FB020327EF4E701CBD8008EBFFBB
:10016F00EAFEE9FD80EBE98DF0A4FEE5F00202085E
:10017F00E9CDF9EAFEEBFFEF89F0A4FCE5F0CE89BB
:10018F00F0A42EFFE435F0CD89F0A42DFEE435F078
:10019F008067EF4E7005BD80D780C3EF8BF0A4ACA6
:1001AF00F0EE8BF0A42CFCE435F0F8EF8AF0A42CE1
:1001BF00E5F038FCE433CB8DF0A42CFCE5F03BF8F4
:1001CF00EE8AF0A42CFCE5F038F8E433CF89F0A4E4
:1001DF002CFCE5F038CF3400CE89F0A42FFFE5F0EA
:1001EF003EFEE433C98DF0A42EFEE5F039CD8AF042
:1001FF00A42FFFE5F03EFEE43DFD33D0E0FB5007BA
:10020F000BBB000F02033BEC2CFCEF33FFEE33FE76
:06021F00ED33FD020313A4
:1002250002033BEC5D046005E859047003020331E9
:100235001202FC580460F6EC4860F2EC7004FDFE16
:10024500FF22C860DB2481C85009C39860025006AC
:100255000203389850CAF582E9294B4A7005AB82EA
:1002650002032775F0007C1A7880C3EF9BEE9AEDA8
:1002750099400DC3EF9BFFEE9AFEED99FDE842F024
:10028500DC23ACF0D0E0FFD0E0FED0E0FDAB822077
:10029500E7101BEB60BAEC2CFCEF33FFEE33FEED01
:1002A50033FD020313E803F830E705C0F075F000ED
:1002B500EF2FFFEE33FEED33FD40B830E7C280AAE5
:1002C500EDD2E7CD33EC3392D524814006E4FFFE31
:1002D500FDFC22FCE4CFCECDCC24E0501174FF8090
:1002E500EDC3CC13CCCD13CDCE13CECF13CF04702D
:0702F500F030D5DE020858CD
:10141800E5082404F582E43465F583E005082290A4
:101428006501300703906504E475F00112091C0298
:1014380006272000E97F2ED2008018EF540F249051
:10144800D43440D4FF30040BEF24BFB41A00500347
:101458002461FFE50960021509050CE50C70020519
:101468000B30070E906501E475F00112091CEF02BC
:1014780006A002350F7403D2078003E4C207F508FB
:10148800906501120933E4F509F50BF50CE50960DF
:10149800077F2012145B80F5750AFFC201C200C2E3
:1014A80002C203C205C206C208121427FF700D301B
:1014B80007057F0012146CAF0CAE0B22B4255FC277
:1014C800D5C204121427FF24D0B40A00501A75F0AC
:1014D8000A780930D50508B6FF0106C6A426F62005
:1014E800D5047002D20380D924CFB41A00EF500477
:1014F800C2E5D20402175ED20180C6D20080C0D2F3
:101508000280BCD2D580BAD20580B47F2012145B89
:101518002002077401B5090040F1121418FF1214D3
:101528005B021495D208D2068095121418FB121487
:1015380018FA121418F94A4B7006795C7A187BFF6E
:1015480020022EE509602A7E008E8275830012062D
:101558004060060EEE650A70F0C2D5EBC0E0EAC046
:10156800E0E9C0E0EE1217BFD0E0F9D0E0FAD0E031
:10157800FB120627FF60AAEBC0E0EAC0E0E9C0E082
:1015880012145BD0E02401F9D0E03400FAD0E0FB7B
:10159800E50A0460DCD50AD98087D20280A2121736
:1015A800A160F7E50A700104120428A90A600DE594
:1015B8000A600914F50A121849EF60F3EA30E702E5
:1015C800F404C3995079EAF4250A0430E701E404E5
:1015D800F50A800D1217A160C1EA050A250A12044E
:1015E80028EA906530F030E701E4250A04D50A04BA
:1015F800200501141217BFE4C0E0121849906530A5
:10160800E0601320E70714F0121443802204F0D09E
:10161800E014C0E07F00121443E50A600712143A90
:10162800150A800B30050312143AD0E0021495D045
:10163800E00480C41217A1609EE50A0412042890F1
:101648006530EAF0E50A2005026001042404121757
:01165800BFD2
:1016590074FF04C0E0121849121443E50A20050278
:10166900600312143AD0E0B50AE87F4512144D9090
:101679006530E07F2B30E7047F2DF404C0E01214BD
:101689005BD0E075F00A84C0F0121444D0E0121463
:1016990044021495791080027908C206C2088008AC
:1016A900D2D5790A8004790AC2D5E50A047002F50F
:1016B9000AE4FAFDFEFF121418FC7B08200113123C
:1016C9001418FD7B1030000A121418FE121418FFAA
:1016D9007B20EC3382D592D55013C3E43000069FAA
:1016E900FFE49EFEE42001039DFDE49CFCE4CBF8AD
:1016F900C201EC700CCFCECDCCE824F8F870F380A1
:1017090017C3EF33FFEE33FEED33FDEC33FCEB3360
:10171900FB994002FB0FD8E9EB300105F8D0E0C492
:1017290048B201C0E00AEC4D4E4F78207B0070C2F0
:10173900EAB50A0040BCC0E01217C1D0F0D0E020E1
:101749000104C4C0E0C4B201C0F0121444D0F0D501
:10175900F0EB02149512096C153253169D581503B6
:101769004C14FF4216A14F16A94416A9491518434E
:1017790016AF5515DC46163C4515A647187C50157D
:10178900072D150B2E152E2B150F23152C2018653B
:101799002A14C74800001526E50AB4FF03750A068E
:1017A900121418FC121418FD121418FE121418FF42
:1017B900906529020465790AA2D520031430050928
:1017C900B910020404B9080104A2D5200602500187
:1017D900042002689202B509005034C0E07F20302D
:1017E90003197F30A20272067205500F121818C22F
:1017F90002C206C205C2087F30800F300503E9C066
:10180900E012145B300503D0E0F9D0E0B509CC3023
:1018190005177F30B9100C12145B7F583004077F0D
:10182900788003B9080312145B3002057F2D021476
:101839005B7F202008F87F2B2006F322920280CFBD
:101849007F00B40700500B2429F582E43465F58341
:10185900E0FF22286E756C6C2900D2011214183031
:1018690001F8C201780930D50108F60214C72D50D4
:101879004349581214182403B405004001E4901890
:10188900779312144C743A12144CD203750904025A
:02189900169D9A
:1026110090654E1208DFE4FFFE7D807C3F90654EA1
:10262100E0F8A3E0F9A3E0FAA3E0FB12036070066F
:1026310090654E02276B90654EE0FCA3E0FDA3E0A0
:10264100FEA3E0FF120346FBA3E0FCA3E0FDA3E031
:10265100FEA3E0FF120346FFB40108E4FFFE7D8004
:102661007C3F22EF64046029EB64046024EBB40135
:1026710030E4FFFEFDFC906552E0F8A3E0F9A3E031
:10268100FAA3E0FB12036060084006E4FFFEFDFCD4
:10269100229065521208EBFFFFFFFF90655202275F
:1026A1006BE4906556F0A3F0FFFEFDFC90654EE0F3
:1026B100F8A3E0F9A3E0FAA3E0FB120360505F90F6
:1026C1006552E0FCA3E0FDA3E0FEA3E0FF1202C51A
:1026D100906556EEF0A3EFF0FDCCEECCEC1203EFDB
:1026E100C8ECC8C9EDC9CAEECACBEFCB906552E0C0
:1026F100FCA3E0FDA3E0FEA3E0FF12002AE4FBFA45
:10270100F9F8120360708A90654EE0FCA3E0FDA326
:10271100E0FEA3E0FF1203D990654E1208DF906539
:102721004EE0FCA3E0FDA3E0FEA3E0FF12290D9023
:102731006552E0F8A3E0F9A3E0FAA3E0FB12011F60
:10274100122F499065521208DF906557E030E0176B
:10275100906552E0FCA3E0FDA3E0FEA3E0FF1203BD
:10276100D99065521208DF906552E0FCA3E0FDA309
:06277100E0FEA3E0FF22E0
:1002FC00E9D2E7C933E833F892D5EDD2E7CD33EC48
:07030C0033FC5002B2D522C0
:10031300EC30E7100FBF000C0EBE00080DBD00044B
:100323000BEB6014A2D5EB13FCED92E7FD2274FFF7
:10033300FCFDFEFF22E480F8A2D574FF13FC7D8050
:03034300E480EF64
:10034600ED33EC33601004700FED547F70057402CA
:0A03560092E0227404220422E42243
:1003600074F8CC6480CCC86480C8F58204604FC344
:10037000EB9FF5F0EA9E42F0E99D42F0E89C45F0E3
:10038000603C501DE5825FFFE582D313CB5BCBF46D
:100390002B5582FB50280ABA002409B90020088096
:1003A0001DE5825BFBE582D313CF5FCFF4C3132F30
:1003B0005582FF50090EBE00050DBD00010CC3EBB8
:1003C0009FF5F0EA9E42F0E99D42F0E89C45F0601E
:0903D00007CC4820E701B3EC2240
:1003D900ED33EC33600A047003BD8004ECB2E7FC32
:0103E90022F1
:1003EA0075F020800E75F010800575F0087D007E8E
:1003FA00007F003392D530D503120858EC334010F1
:10040A00EF33FFEE33FEED33FDEC33FCD5F0ED2296
:0E041A00E5F0247EA2D513CC92E7CDCEFF22D2
:10042800F920E73624F950037907E4F42402FBE5C0
:1004380082158270021583DBF6E024FB501BE9600D
:1004480014E4F0E582158270021583E004F0B40A22
:0D04580008E4F0D9EE7401F00A22C2D522AA
:10046500ED33EC3392D5FA602AB4FF33EDC2E77B66
:10047500FF60067A04798AE4227A04799320D50408
:100485007A04798E224E614E002B494E46002D4945
:100495004E4600E47A08F0A3DAFC7B00740722C01C
:1004A50083C082ECC0E0EDC0E0EEC0E0EFC0E0EA62
:1004B50075F010A4CAABF075F04DA42BFBE435F034
:1004C500FCEA2410FAEB34C5FBEC34D9FCEDC2E7A9
:1004D500FF75F056A4F42411C5F0F434C58FF0A4CB
:1004E5002AE5F03BE43CF020E71412059AD0E0FF42
:1004F500D0E0FED0E0FDD0E0FC1202288014F40428
:1005050012059AD0E0FFD0E0FED0E0FDD0E0FC126D
:10051500011FD082D083E0FAEDD2E7CD33EC33244E
:1005250082FBE4C3CF33CFCE33CECD33CD33DBF334
:100535007B0775F00A846004F0A31B0AE5F0F0A3BD
:100545008FF0740AA4FFACF08EF0740AA42CFEACF4
:10055500F050010C8DF0740AA42CFDE435F0F0A3E5
:05056500DBDE7407223B
:102F110033DA929E35B16011377FE5FE392184891C
:102F21003AAEC3FF3C1D955B3D6358473E75FDF0CE
:102F31003F3172183F800000C2D502033B020331CA
:102F4100BD80FA50F3020338ED33EC330460F17BBA
:102F51003B7AAA79B8783F12011FED33EC3392D551
:102F6100247B5011A2D570DB500BED44802404501A
:102F710004A2D580CEEFFBEEFAEDF9ECF81202C512
:102F8100EFF582F404FC1203F412002EC082902F9C
:102F91001174091205E9ED33CC33D0F092D525F047
:0A2FA100A2D57001C313CC13FD226A
:1028D9003E9248DA3ECCCCCD3F2AAAAB400000005C
:1028E9003F8000003F9837F03FB504F33FD744FCE1
:1028F9003E3172173EB172173F0515913EDE5BD925
:10290900D2158002C215EDD2E7F8CD33EC3304704D
:102919000BBD800592D502033B02033140FBD31462
:1029290060F2F5F07C3FEE7A00C39496C8948B4030
:10293900230AC89469C8941A401A0AC89468C894A2
:102949001F40110AC8945AC89425400805F07A0016
:10295900CDC2E7CDC0F09065781208DFEA2323C025
:10296900E024E9F582E43428F5831208CF12002E19
:10297900ECC0E0EDC0E0EEC0E0EFC0E01208B390BB
:1029890065781208C312002AD0E0FBD0E0FAD0E043
:10299900F9D0E0B2E7F81202289065781208DF90C2
:1029A90028D974031205DA9065781208C312011F39
:1029B900D0E0600F24F5F582E43428F5831208CFBE
:1029C90012002E9065781208DFD0E0C3947FFDE4F1
:1029D9009400FC1203EF7B187A727931783F120167
:1029E9001F9065781208C312002E30150B7BD97A17
:0929F9005B79DE783E12011F2219
:10056A003F8000004120000042C80000447A000099
:10057A00461C400047C35000497424004B1896801B
:10058A004CBEBC205A0E1BCA6753C21C749DC5AE12
:10059A00FB60065407601C23231205C8EB5438601D
:1005AA00091205B41205C312011FECF8EDF9EEFAAF
:1005BA00EFCB22EB1205C380F1543803241C9005BB
:1005CA006AFE93FC0EEE93FD0EEE930ECE93FF227F
:1005DA00C0E0EFFBEEFAEDF9ECF812011FD0E0F5FE
:1005EA00F0EFFBEEFAEDF9ECF81208B3A3A3A3A31C
:1005FA00E8C0E0E9C0E0EAC0E0EBC0E0C0F0120108
:10060A001F1208CFA3A3A3A312002ED0F0D0E0FBA1
:0D061A00D0E0FAD0E0F9D0E0F8D5F0D4221D
:102FB70002225AE493A3F8E493A34003F68001F2B4
:102FC70008DFF48029E493A3F85407240CC8C3331B
:102FD700C4540F4420C8834004F456800146F6DFEA
:102FE700E4800B01020408102040809009ECE47E85
:102FF700019360BCA3FF543F30E509541FFEE493DF
:10300700A360010ECF54C025E060A840B8E493A3A5
:10301700FAE493A3F8E493A3C8C582C8CAC583CAD0
:10302700F0A3C8C582C8CAC583CADFE9DEE780BE88
:010F88000068
:10062700BB010689828A83E0225002E722BBFE02D1
:09063700E32289828A83E4932204
:10064000BB010CE58229F582E5833AF583E022506F
:1006500006E92582F8E622BBFE06E92582F8E222B9
:0D066000E58229F582E5833AF583E49322D3
:10066D00BB010FF8E58229F582E5833AF583E02891
:10067D00F0225009C58229F8E58226F622BBFE0933
:10068D00C58229F8E22582F222F8EA2583F583E96D
:03069D009328227D
:1006A000BB010689828A83F0225002F722BBFE0139
:0206B000F32233
:1006B200F8BB010DE58229F582E5833AF583E8F07E
:1006C200225006E92582C8F622BBFE05E92582C82A
:0206D200F22212
:1006D400EF8DF0A4A8F0CF8CF0A428CE8DF0A42E3A
:0206E400FE22F4
:1006E600BC000BBE0029EF8DF084FFADF022E4CCF8
:1006F600F875F008EF2FFFEE33FEEC33FCEE9DECC1
:10070600984005FCEE9DFE0FD5F0E9E4CEFD22ED06
:10071600F8F5F0EE8420D21CFEADF075F008EF2F50
:10072600FFED33FD4007985006D5F0F222C398FD41
:050736000FD5F0EA22DE
:10073B00E88FF0A4CC8BF0A42CFCE98EF0A42CFC5D
:10074B008AF0EDA42CFCEA8EF0A4CDA8F08BF0A4DB
:10075B002DCC3825F0FDE98FF0A42CCD35F0FCEB3A
:10076B008EF0A4FEA9F0EB8FF0A4CFC5F02ECD39FF
:0F077B00FEE43CFCEAA42DCE35F0FDE43CFC226C
:10078A0075F008758200EF2FFFEE33FECD33CDCC26
:10079A0033CCC58233C5829BED9AEC99E5829840A9
:1007AA000CF582EE9BFEED9AFDEC99FC0FD5F0D686
:1007BA00E4CEFBE4CDFAE4CCF9A88222B800C1B9B0
:1007CA000059BA002DEC8BF084CFCECDFCE5F0CBEE
:1007DA00F97818EF2FFFEE33FEED33FDEC33FCEB27
:1007EA0033FB10D703994004EB99FB0FD8E5E4F9E2
:1007FA00FA227818EF2FFFEE33FEED33FDEC33FCCF
:10080A00C933C910D7059BE99A4007EC9BFCE99AC2
:10081A00F90FD8E0E4C9FAE4CCFB2275F010EF2F07
:10082A00FFEE33FEED33FDCC33CCC833C810D70707
:10083A009BEC9AE899400AED9BFDEC9AFCE899F842
:0E084A000FD5F0DAE4CDFBE4CCFAE4C8F922D5
:0E085800C3E49FFFE49EFEE49DFDE49CFC22B1
:10086600EB9FF5F0EA9E42F0E99D42F0EC6480C809
:0608760064809845F022A9
:10087C00EB9FF5F0EA9E42F0E99D42F0E89C45F0D2
:01088C002249
:10088D00E8600FECC313FCED13FDEE13FEEF13FF49
:03089D00D8F1226D
:1008A000E8600FEFC333FFEE33FEED33FDEC33FCB6
:0308B000D8F1225A
:1008B300E493FC740193FD740293FE740393FF228B
:0C08C300E0F8A3E0F9A3E0FAA3E0FB22B8
:1008CF00E493F8740193F9740293FA740393FB227F
:0C08DF00ECF0A3EDF0A3EEF0A3EFF0228C
:1008EB00A8828583F0D083D08212090212090212EA
:1008FB000902120902E473E493A3C583C5F0C5830F
:10090B00C8C582C8F0A3C583C5F0C583C8C582C856
:01091B0022B9
:10091C00F8E0FBA3A3E0F925F0F0E5821582700264
:07092C001583E0FA38F02208
:09093300EBF0A3EAF0A3E9F022C5
:10093C00BB010DE58229F582E5833AF5830209CEE8
:10094C005007E92582F80209C5BBFE07E92582F8A4
:10095C000209D7E58229F582E5833AF5830209E09D
:10096C00D083D082F8E4937012740193700DA3A31A
:10097C0093F8740193F5828883E47374029368602E
:06098C00EFA3A3A380DF2E
:060992008A838982E473F0
:10099800EC8EF0A4CCC5F0CCCDF8EFA4CEC5F02DEC
:1009A800FDE43CFCE8A42EC8C5F03DFDE43CFCEFAA
:0D09B800A4FFE5F028FEE43DFDE43CFC2238
:0909C500E6FB08E6FA08E6F92257
:0909CE00E0FBA3E0FAA3E0F9222A
:0909D700E2FB08E2FA08E2F92251
:0C09E000E493FB740193FA740293F92273
:00000001FF
