:030000000221EBEF
:0C21EB00787FE4F6D8FD758121022232D5
:0C000300000000000000000000000000F1
:0B284A00EF1FAC0670011E4C70F62260
:10279000AB07AA06EB1BAE0270011A4E60097FAAB6
:0827A0007E0512284A80ED229B
:101CEC00907120E04480F07F057E0012284AE4FFCA
:101CFC00FE12279075A75575AC589071327450F040
:101D0C009071307403F0907136742FF07F18EF24BB
:101D1C0066FDE434718D82F583E4F00FEFB433EE9D
:101D2C00904011E4935407FF90711CE054F84FF06D
:101D3C00904017E493547FFF90711DE054804FF056
:101D4C00904010E493FF5401C43333335480FE901D
:101D5C007123E0547F4EF0EFC313543F4440FFA374
:101D6C00E054804FF0904012E493FF540FFE9071BA
:101D7C0046E054F04EF0EFC4540FFF90714FE05416
:101D8C00F04FF0904013E493543FFF907140E054B7
:101D9C00C04FF0904014E493907126F0904015E4FD
:0E1DAC0093907128F0904016E49390712AF005
:011DBA002206
:0707FA00446515428C00006C
:102502007417F0A37470F022906531E0FEA3E0FF2F
:1025120022C3906493E09470906492E0941722C373
:10252200906495E09470906494E094172290649380
:10253200E09F906492E09E22906495E09F90649464
:03254200E09E22F6
:1020B300122513400302213A122521507AE4FFFE30
:1020C3007D807CBF9065151206D112002EE4FBFAC9
:1020D30079A87842120228E4FBFA798078BF1200CB
:1020E3002E9065191206ED9065151206B5E4FBFAFC
:1020F300F9783F12002E9065151206ED90651912BE
:1021030006B59064F61206ED7F007E007DA07C404C
:1021130012173FE4FBFA7970784212011F1202C5CD
:10212300906492EEF0A3EFF0906492E0FFA3E0904E
:102133006494CFF0A3EFF01225135005122521402C
:0E2143000C90649212250290649412250222E0
:1019CE0075D9DD121CEC75D95590715EE054FEF0A0
:1019DE0075D9BB12268E1227751220091225851273
:1019EE0027351225F8906531122502906490122544
:1019FE000290648C12250290648E122502C294E429
:101A0E00906492F0A3F0906494F0A3F0D2061225A5
:101A1E000AC312252F400812250A12253A504B12DE
:101A2E0027BC121AE1300321C203C3906526E0944D
:101A3E00C3906525E09408401012250A12252F4008
:101A4E000812250A12253A5021300805C208122024
:101A5E00B3906492E0FEA3E0FF122855906494E0E8
:101A6E00FEA3E0FF12285E021A1C906492E0FFA310
:101A7E00E0906487CFF0A3EFF0906494E0FFA3E0D2
:101A8E00906489CFF0A3EFF0C2061227BC121AE1C0
:101A9E00121F491225451226BB12287630040C7BE4
:101AAE00017A64799C1215AC120D84906481E0FE6B
:101ABE00A3E0FF1224B6906487EEF0A3EFF09064DB
:101ACE0083E0FEA3E0FF1224B6906489EEF0A3EF4C
:031ADE00F080B7DE
:1008010042648C177042648E177042649017704274
:100811006481177042648717704264831770426461
:10082100891770426043000042647F000042647D8A
:10083100100041648B006438604500000000000036
:1008410000000000000000000000000000000000A7
:100851000000000000000000000000000000000097
:100861000000000000000000000000000000000087
:100871000000000000000000000000000000000077
:100C71000000426485000060406000FFFF0000004A
:100C81000000000000000000000000000000000063
:100C91000000000000000000000000000000000053
:100CA1000000000000000000000000000000000043
:100CB1000000000000000000000000416040004111
:090CC10060410041604200C107DE
:10227700EF25E0FFEE33FE74452FF58274603EF5DF
:1022870083227FC37E05E4FDFC9064F21206D1D35E
:1022970002067EECF0A3EDF09064F6E475F001021F
:1022A7000522D390648FE094B890648EE0940B225B
:1022B7009064F6E0FEA3E0FFC322906040E025E0D3
:1022C7002400F582E43460F58322E49064F6F0A3F9
:1022D700F02233FE74002FF58274603EF58322905E
:1022E70064F7E025E0FF9064F6E022AC06ECF21814
:0622F700EFF27817E2226D
:102009007812E24401F278567407F278277417F2CD
:1020190018746FF27833E4F218F27819E24401F295
:102029007811E24401F27817E24401F27812E244AD
:1020390001F27814E24401F27818E24401F278D30B
:10204900E254CFF2E24410F2E254FCF2E24401F22B
:1020590090718AE4F090718C740AF07812E244026B
:10206900F278577407F278297417F218746FF278B6
:1020790037E4F218F27819E24402F27811E24402E4
:10208900F27817E24402F27812E24402F27814E29A
:102099004402F27818E24402F278D3E254F3F2E20D
:0A20A9004404F290718B7409F022D8
:0928550078331222F24401F22250
:09285E0078371222F24402F22242
:1010AE009064F21206F900000000906000E0F47007
:0610BE0003A3E0F4703F03
:1010C4001222D21222B79420EE9400501590652576
:1010D400E0FCA3E0FDEF25E0FFEE1222D912229AF4
:1010E40080E11222D11222B7941CEE94025059903E
:0F10F4006525E0FCA3E0FD12227712229A80E628
:101103001222C1E0FFA3E09064F6CFF0A3EFF090CA
:101113006525E0FEA3E0FF9064F6EE8FF012052252
:101123009064F6E0C313FEA3E013FF9064F6EEF0C1
:10113300A3EFF01222C1EEF0A3EFF0906040E004C1
:09114300F0E0C394204002E4F046
:10114C001222D19064F21206D11222E61222D9E0B8
:10115C00FEA3E0FFE4FCFD1205389064F21206EDEC
:10116C0012229F9064F6E07004A3E0642070D49087
:10117C0064F21206B5780512068F9064F21206ED31
:10118C009064F21206B5AD07AC06906486E025E0DB
:10119C00FF906485E033FE74452FF58274603EF554
:1011AC0083ECF0A3EDF09064851222A2C3906486C8
:0F11BC00E0941C906485E094024004E4F0A3F0FA
:1011CB001222D190647FF0A3F090647D7410F0A391
:1011DB00E4F01222B7941CEE9402400302126A123E
:1011EB002277E0FCA3E0FD90647FE0FAA3E0FBD361
:1011FB00ED9BEC9A400F12227EE0FFA3E090647F00
:10120B00CFF0A3EFF01222E612227CE0FCA3E0FD6C
:10121B0090647DE0FAA3E0FBC3ED9BEC9A500F12B8
:10122B00227EE0FFA3E090647DCFF0A3EFF090640B
:10123B007D1222BA906480E09FFF90647FE09EFE57
:10124B00D3EF9450EE9400400890648B741EF080A2
:0F125B000890648BE0600214F012229F0211DDF4
:10126A00E47F8B7E06FDFC9064F21206D1C312065F
:10127A007E500C3007567F8B7E0612228D404DE43D
:10128A00906041F0A3F0D20790648BE0FFB41E1A7D
:10129A0014F01222A9400774FFF5F0120522C312B6
:1012AA0022AA400302136002131BEF6003021360B9
:1012BA00200203021360C202C390648FE09470900C
:1012CA00648EE094174003021360803C1222894026
:1012DA0048E47F6D7E0612228E4008906041E064E9
:1012EA00047036300370C203906041E0C394045026
:1012FA0003E004F0E4906042F0C2071222A940021F
:10130A008043C31222AA5006E475F001803C90641F
:10131A008E740BF0A374B8F02212228940069060F2
:10132A0042E0603230032FC2039060427401F0E45D
:10133A00906041F0C207D390648FE0940890648E65
:10134A00E09407400874FF75F0FE02052290648E4F
:06135A007407F0A304F08B
:01136000226A
:03287600C29422E7
:0C2826007818E230E0037F01227F0022DE
:0C2832007818E230E1037F01227F0022D1
:0D280C007818E24401F290718C740AF022F9
:0E000F007818E254FEF290718CE4F0D2962242
:0D2819007818E24402F290718B7409F022ED
:0E27FE007818E254FDF290718BE4F0D295222F
:1024B600906531E0FCA3E0FD1207AFE47B707A176C
:1024C600F9F81205DED390648DE09F90648CE09E4F
:1024D6005005E0FEA3E0FFD390648FE09F90648EEA
:1024E600E09E5005E0FEA3E0FFD3906491E09F904C
:0B24F6006490E09E5005E0FEA3E0FFB4
:0125010022B7
:100CCA00416527004265250000C1014165280041B0
:050CDA00652400C100CB
:10246900907123E054F8F0E0441EF0907122740753
:10247900F0221205459064FE1206ED9064FE0206F4
:10248900B5E0FF9064FDE09F9064FCE09E229071AE
:1024990023E054D8F0E0441D229064F6E004F0E013
:0D24A900C3940A22FDFC1206D1C302067E78
:10268E0078F2E24403F278E3E244C0F278F0E254E6
:10269E00FDF208E254FDF208E2440CF278D0E25466
:0D26AE00F7F208E254F7F208E244C0F2220D
:1023C700906524E06F604BEFF0786AE24478F2752D
:1023D70091FFEF24FE601214601A14601F2403702B
:1023E70024122469759918801C1224971224737576
:1023F7009917801112246975991980091224971267
:10240700247375990B7869E24448F27F017E0012C4
:0224170027900C
:0124190022A0
:101BF300E49064FBF0A3F0A3F09064FE1206F900F6
:101C0300000000E4906502F0A3F074FF906504F017
:101C1300A3F0E49064FBF07869E24401F2786BE2AC
:101C230030E1FAAF93EF75F010A4FFE594C4540FBD
:101C3300FDEF4DFF9064FCE5F0F0A3EFF07402F2CA
:101C43009064FBE0C39402404A906502E0FEA3D394
:101C530012248A400CE0FFA3E0906502CFF0A3EFCB
:101C6300F0906504E0FEA3C312248A500CE0FFA3A6
:101C7300E0906504CFF0A3EFF09064FE1206D190DC
:101C830064FCE0FEA3E0FFE4FCFD1205389064FE73
:101C93001206ED9064FBE004F0E064146003021CA0
:101CA3001A122484C006C007906502E0FEA3E0FB7D
:101CB300AA06E4F9F8D007D00612247BC006C007B1
:101CC300906504E0FEA3E0FBAA06E4F8D007D00683
:101CD30012247B780412068F9064FCEEF0A3EFF0DD
:081CE3009064FCE0FEA3E0FFA9
:011CEB0022D6
:102660009064F71206F900000000121BF3E4FCFD71
:102670009064F71206EDE47F0CFEFDFC9064F71207
:0E26800006D1120553E47B0AFAF9F80205DED2
:101F49009064F21206F900000000906527E064022F
:101F59007003021FF17F011223C71226609064F2F9
:101F69001206ED906527E070287FEA7E0B9064F2F7
:051F79001224AD501C14
:101F7E00E49064F6F0F0121FF2D312067E4006E4EF
:0C1F8E00906527F0221224A240EC80365F
:081F9A00906527E06401704F1F
:101FA20020000FD2009065291206F90000000012ED
:0F1FB200283EE47F307E759065291224AD4030C3
:101FC100E49064F6F0F0121FF2D312067E400790FF
:101FD10065277401F0221224A240EB906527740258
:101FE100F01227EE9065291206F900000000C200E8
:101FF100221226609064F21206EDE47FEA7E0BFD68
:08200100FC9064F21206D122EA
:1026BB00906527E070030210AE906527E0B4010B24
:1026CB0090648C740BF0A374B8F022906527E0B47F
:0D26DB00020A90648C7405F0A374DCF022F8
:1027BC007F021223C7121BF3906525EEF0A3EFF0F6
:0127CC0022EA
:10254500E4FE7F041223C7121BF3906528E0701A7E
:10255500C3EF94DBEE940E4004D2018002C20190D9
:1025650064907417F0A37470F022C3EF9479EE941D
:0F2575000E5002C2019064907405F0A374DCF064
:012584002234
:100CDF0041652300C10842651D000042651F0000E9
:050CEF00426521000038
:07286F00E475F001020522EF
:1027750043A820D2AF75D10178957401F21874760B
:0B278500F2789174A0F21874FDF222AB
:1027DE007890E2541FF2E244C0F243A820D2AF2216
:1027A8007890E2541FF2E244A0F27892E4F208F240
:0427B80053A8DF2221
:03001E00021E8738
:101E8700C0E0C0F0C083C082C0D075D000C0007869
:101E970091E220E703021F3CE24480F2906523E0D1
:101EA70004F0E0C3940D4004E4F0D20890649DE090
:081EB700C394FF5003E004F0A6
:101EBF00300425906499E0601F90651D12286FC350
:101ECF0090651EE0943090651DE094754011E4F02C
:0F1EDF00A3F0906499F0800790651DE4F0A3F0E4
:101EEE0030012790652112286F90651FE4F0A3F052
:101EFE00D3906522E094D0906521E09407402FE4C2
:101F0E00F0A3F090652804F0802490651F12286FCE
:101F1E00906521E4F0A3F0D3906520E094D0906515
:0E1F2E001FE094074008E4F0A3F0906528F04F
:0D1F3C00D000D0D0D082D083D0F0D0E032E1
:070CF4004465290000000027
:08286700789CE2541FF2E2220A
:10258500E5B154CF42B1789CE254E3F2E24414F24F
:10259500E254FCF2E24401F208E24480F2E2442013
:1025A500F278A1743BF2187460F2789EE4F208F2B6
:0C25B50012286744A0F253A8BFD2AF2246
:0C283E0012286744C0F243A840D2AF2229
:1027EE0012286744A0F2789EE4F208F253A8BF22A2
:0300210002241A9C
:10241A00C0E0C0F0C083C082C0D075D000C000C088
:10242A0004C005C006C007789DE230E71DE244807B
:10243A00F29065291206B5EF2401FFE43EFEE43D61
:10244A00FDE43CFC9065291206EDD007D006D005C4
:0F245A00D004D000D0D0D082D083D0F0D0E032E8
:090CFB00C102C1034265130000AF
:102368009065071206B5EF4401FFEC906507020679
:10237800ED906506E4F090650B22906492E0FEA370
:10238800E0FF22906494E0FEA3E0FF22E475F001F0
:1023980002052290650C7401F090650BE4F0229020
:1023A8006488E09F906487E09E2290648AE09F9012
:0F23B8006489E09E22906506E004F0E06418223C
:1027350043A901D2AF75D104907105E4F0907104FD
:102745007424F090710174A0F090710074FDF02272
:0300240002136163
:10136100C0E0C0F0C083C082C0D075D000C000C052
:1013710001C002C003C004C005C006C007907101CE
:10138100E020E703021591E04480F090650F1223FD
:1013910094906511122394906513122394C3906560
:1013A10012E0940D906511E094004006E4F0A3F082
:1013B100D203C3906510E0940D90650FE094004056
:0713C10006E4F0A3F0D202E4
:1013C80020833D90650DE004F0E0C3941E500302B5
:1013D80014D0906506E0641760030214D090650E7F
:1013E800E09406400AE094145005122368800B909C
:1013F800650EE0C394014002E0FF12239B0214D063
:1014080090650DE0D3940050030214B6E0D39432F3
:1014180040129065071206F90000000012237904B3
:10142800F00214A390650BE0602490650DE0C3946E
:1014380002401BE094075016A3E0C39406400FE057
:101448009414500A1223681223BD604F80319065AE
:101458000BE0603990650DE0C394074030E09414C8
:10146800502BA3E0C394014024E09406501F9065DC
:10147800071206B5EF54FE1223711223BD601CA398
:101488001206B578011206A2122373800E90650722
:101498001206F900000000122379F090650DE4F0BF
:1014A800A3F0906506E0B4181912239B8014906588
:1014B8000BE0700E9065071206F900000000122379
:1014C80079F090650EE004F090650CE0601B906583
:1014D80006E4F090650CF0A3F0A3F09065071206FF
:0914E800B59064AF1206EDD205C7
:1014F100C3906514E09405906513E09400500302D5
:101501001591E4F0A3F0300603021591122382D362
:101511001223A74009906492E475F0018010122310
:1015210082C31223A7500A90649274FFF5F012054A
:1015310022122382122855D3906493E09400906480
:1015410092E09400500512000F800312280C122320
:101551008BD31223B24009906494E475F00180109A
:1015610012238BC31223B2500A90649474FFF5F0D6
:1015710012052212238B12285ED3906495E0940009
:10158100906494E0940050051227FE8003122819FC
:10159100D007D006D005D004D003D002D001D000AE
:0B15A100D0D0D082D083D0F0D0E03258
:070D04004265311770C109BF
:10275500E0FEA3E0FF1207AF7B0AE4FAF9F81205E1
:10276500DEE4229064F3E094DD9064F2E0940422C8
:101AE100E49064F2F0A3F07F031223C7121BF3907A
:101AF10064F2EEF0A3EFF0300903021BEAD3906425
:101B0100F3E094EA9064F2E09401500AE4906531C4
:101B1100F0A3F0021BDDD31227685029E0FEA3E0F9
:101B2100FFEF2416FFEE34FEFEE434FFFDE434FF44
:101B3100FCE47BE07A2EF9F812055312275D7BDD78
:101B41007A04021BC4D39064F3E094EE9064F2E053
:101B51009408500E7C5D7DC01227557BEE7A0802F9
:101B61001BC4D39064F3E094129064F2E0940B50A0
:101B710017E0FEA3E0FF7C177D701207AF7B021216
:101B8100275F7B127A0B803BD39064F3E094BC9087
:101B910064F2E0940C500D7C8C7DA01227557BBC27
:101BA1007A0C801FD39064F3E094919064F2E094F6
:101BB1000F501FE0FEA3E0FF7CBB7D8012275A7B04
:101BC100917A0FF9F81205DE906531EEF0A3EFF08E
:101BD100800A9065317417F0A37470F0906531E05C
:101BE1007002A3E0700BD20922C31227684002C21F
:011BF10009EA
:011BF20022D0
:100D0B00416499004364B3000000C104C10544640D
:100D1B00AF00000000603C64B61401020304180528
:100D2B0006070810090A0B0C150D0E0F10051112F2
:100D3B001314081516171806191A1B1C091D1E1F4C
:100D4B00209821222324942526272892292A2B2CEC
:100D5B00912D2E2F3053649C3200000000000A0BA3
:100D6B00000000040001FF22FD00004164980042D6
:040D7B00649600007A
:101DBB00740175F02C906481120522D3906482E03B
:101DCB009470906481E0941722A3F0906489E0FFF3
:101DDB00A3E0906494CFF0A3EFF02274FE75F0D4DF
:101DEB00120522C3906482E0942C906481E09401EC
:101DFB002274FF75F0CE120522C3906482E09432F8
:101E0B00906481E0940022906483120522D3906445
:101E1B0084E09470906483E0941722906487E0FED2
:101E2B00A3E0FF22EEF0A3EFF0906487E0FFA3E0C6
:101E3B00906492CFF022EE75F005A424B6F582E4FF
:101E4B003464F58322906489E0FEA3E0FF22C39003
:101E5B006484E0942C906483E0940122C3906484A6
:101E6B00E09432906483E09400229064AF0206B554
:0C1E7B007B017A6479B37403F0E4FF2269
:0E22FD00300565C205121E75EC4D4E4F605740
:10230B00121E759064F2EFF0906499E06012121E49
:10231B0075780812068F90649AEEF0A3EFF0802781
:10232B00121E75780812068FA804A905AA06AB071A
:10233B009064B3E0FEA3E0FFE4FCFDC312067E60F5
:10234B00069064F274FFF09064AF1206F90000007F
:07235B00009064F2E0FF2294
:062362007FFF227FFF2235
:1026E800E49064F3F0FE121E41E0B50714121E4197
:1026F800E5822DF582E43583F583E09064F3F0807C
:0B270800050EEEB40CE09064F3E0FF5F
:0127130022A3
:100D8400E49064F2F09064ADE0700302103CE0FF84
:100D9400A3E0FD1226E89064F2EFF0E49064ADF075
:020DA400A3F0BA
:100DA600906499E0640170689064F2E0FF90649842
:0E0DB600E06F7052EF64036005EF642F706C05
:100DC400906496E475F001120522C3906497E09450
:100DD40001906496E094004053E4F0A3F09064B56D
:100DE40074C5F090649AE0FFA3E09064B3CFF0A3DD
:100DF400EFF0E4FF1227CD9064F7121E7B1225C199
:060E04009064997402F0F5
:100E0A0080249064F2E0906498F0801A906499E0EB
:100E1A00B402139064F2E0FF64046004EFB4300695
:060E2A00E4906499F0223F
:100E30009064B5E064C5600302103C906499E06082
:100E40000302103C9064F2E01207830E97010E97A4
:100E5000040EEF050EEF080EFE090F090B0F180D1B
:100E60000F280F0F37110F37140F3A150F3A180FBD
:100E700059190F691B0F7C1D0F941F0FB3210FBD54
:100E8000230F37250F37280FE3290FF62B100B2DD3
:100E9000100B300000103C122826EF70061228328A
:100EA000EF6034E4906481F0A3F09064831210A2A8
:100EB000EEF0A3EFF0E4FFFE1224B6906489121E58
:100EC0002FEF121DD4121E26122855121E50122862
:100ED0005E12000F0227FE12103D121E2612285528
:100EE000121DD6121E5012285E12280C022819124A
:100EF000103D121DD6121E26122855020F53121D28
:100F0000BB500302103C020FC9E475F032121DC041
:100F1000500302103C020FC9740175F02C121E120E
:100F2000500302103C020FC9E475F032121E125039
:100F30000302103C020FC9020FD1906483740BF0BE
:100F4000A374B8F0FF7E0B1224B6906489EEF0EF24
:100F5000121DD4121E5002285E121DEE401B121DDF
:100F6000E6400302103C020FED121E04400B121D5E
:100F7000FC400302103C020FED020FF0121E59401C
:100F80002B74FE75F0D4120522121E594003021074
:100F90003C020FED121E67401374FF75F0CE120570
:100FA00022121E67400302103C020FEDE49064839E
:100FB000021007121DBB500302103C800C9064818C
:100FC000E475F032121DC340737417F0A37470F00F
:100FD00022906481740BF0A374B8F07E0B12107E23
:100FE000022855121DEE4008121DE6504FE48017EE
:100FF000E49064818011121E044008121DFC503CD4
:10100000E48004E4906481F0A3F022122826EF60CB
:1010100016E49064811210A2121E2FA3EFF0121E8C
:101020002612285502000F9064817417F0A3747083
:0C103000F07E1712107E12285512280CBA
:10103C00229064817417F0A37470F0906483741719
:10104C00F0A37470F0FF7E171224B6906487EEF054
:10105C00A3EFF07F707E171224B6906489EEF0A394
:10106C00EFF0906487E0FFA3E0906492CFF0A3EFE1
:10107C00F022FF1224B6906487EEF0A3EFF0906498
:10108C0087E0FFA3E0906492CFF0A3EFF090648729
:10109C00E0FEA3E0FF22F0A3F0FFFE1224B6906462
:0210AC00872299
:1025F80078C0E24408F278C2E2543FF278D0E2446C
:1026080002F278D2E254F3F2209104D2048002C29A
:102618000430040F9064F6121E7B12262C906499E5
:042628007401F02227
:040D7F00416530009A
:102714009064F2F090652D02072A90000612048E50
:10272400FE90000802048E90000912050090000C2F
:012734002282
:1015AC00E49064F2F07FFFA374FFF090652D1207B6
:1015BC004A90000112048EFE120475FDEEC39D507C
:1015CC000302173E122718900001E4120500900048
:1015DC000E1207531207A9EFF460089065307423BC
:1015EC00F08009906530E06003E014F01227189049
:1015FC00000312048E6F601590000512048E600DAE
:10160C00900004E412050090000302173A900005C4
:10161C0012048EFE90000412048EC39E500B1227EF
:10162C001890000474010204BB12271890000212D7
:10163C00048E6F6048EFF4701C12271EC39E400A84
:10164C007404122714900002806112271890000A6B
:10165C007401021731122718900008740112272EFA
:10166C0012048E6F90652D600C12072A74011227DC
:10167C002BEF02173112072A900009803DEFF4700E
:10168C004112271890000912048ED39400500302C3
:10169C00173490000B12048EFE90000A12048ED3A5
:1016AC009E4011740112271490000C12048E906449
:1016BC00F3F0805412271890000A74011204BB0234
:1016CC001734122718122725C394FF5008900008CE
:1016DC0074011204BB12271EB506089064F2740242
:1016EC00F080201227189000071227216E70399075
:1016FC0064F2740312271790000612048E900008EF
:10170C001205009064F3EFF0122718E412272B74E3
:10171C00FF1205009064F3E0900011120500906434
:10172C00F2E0900012120500122718900002EF123E
:02173C000500A6
:01173E002288
:1027CD0075AF3F8FAF75AEB975A402E5A530E1FBCE
:0127DD0022D9
:1025C1009064F412074A75AF3F8FAF9064F7E0C390
:1025D10094014022E5A530E0FB9064F4E475F0013C
:1025E100120733120475F5A675AEB975A40190648E
:0725F100F7E014F080D52291
:10262C009064F312074A9064F6E06027AE070FEE51
:10263C002400FDE4343F8D82F583E493FE9064F333
:10264C00E475F001120733EE1204EE9064F6E01418
:04265C00F080D32215
:10002700020331E86480F8E933E83360110460F0D3
:10003700ED33EC337009E8FCE9FDEAFEEBFF22043F
:1000470060DED3EB9FEA9EE99DE8C2E78CF0C2F73A
:1000570095F0400CE8CCF8E9CDF9EACEFAEBCFFB06
:100067001202FC85D0F05804700320D5B3E8047061
:10007700075002B2D502033B92D5EC0460F7E4CCFB
:10008700C0E0C398F8603B94186008400DD0E0FBCF
:10009700020313E4FBFAC9FC8028E830E406E4C94C
:1000A700FBE4CAFCE830E305E4C9CACBFCE8540723
:1000B7006010F8C3E913F9EA13FAEB13FBEC13FC2E
:1000C700D8F130F52FC3E49CFCEF9BFFEE9AFEEDD1
:1000D70099FDD0E0FBEF4E4D4C701222DB0302037B
:1000E70038EC2CFCEF33FFEE33FEED33FDED30E75C
:1000F700EB020313EF2BFFEE3AFEED39FDD0E0FBE9
:1001070050130BBB000302033BED13FDEE13FEEF91
:0801170013FFEC13FC020313BB
:10011F00EC4D6011E8497017ED33EC3304600DE4DA
:10012F00FCFFFEFD22E933E8330470F802033112BD
:10013F0002FC58046009E4CC2481500628500902BF
:10014F00033B284003020338C0E0EB4A7044B980F8
:10015F0006D0E0FB020327EF4E701CBD8008EBFFBB
:10016F00EAFEE9FD80EBE98DF0A4FEE5F00202085E
:10017F00E9CDF9EAFEEBFFEF89F0A4FCE5F0CE89BB
:10018F00F0A42EFFE435F0CD89F0A42DFEE435F078
:10019F008067EF4E7005BD80D780C3EF8BF0A4ACA6
:1001AF00F0EE8BF0A42CFCE435F0F8EF8AF0A42CE1
:1001BF00E5F038FCE433CB8DF0A42CFCE5F03BF8F4
:1001CF00EE8AF0A42CFCE5F038F8E433CF89F0A4E4
:1001DF002CFCE5F038CF3400CE89F0A42FFFE5F0EA
:1001EF003EFEE433C98DF0A42EFEE5F039CD8AF042
:1001FF00A42FFFE5F03EFEE43DFD33D0E0FB5007BA
:10020F000BBB000F02033BEC2CFCEF33FFEE33FE76
:06021F00ED33FD020313A4
:1002250002033BEC5D046005E859047003020331E9
:100235001202FC580460F6EC4860F2EC7004FDFE16
:10024500FF22C860DB2481C85009C39860025006AC
:100255000203389850CAF582E9294B4A7005AB82EA
:1002650002032775F0007C1A7880C3EF9BEE9AEDA8
:1002750099400DC3EF9BFFEE9AFEED99FDE842F024
:10028500DC23ACF0D0E0FFD0E0FED0E0FDAB822077
:10029500E7101BEB60BAEC2CFCEF33FFEE33FEED01
:1002A50033FD020313E803F830E705C0F075F000ED
:1002B500EF2FFFEE33FEED33FD40B830E7C280AAE5
:1002C500EDD2E7CD33EC3392D524814006E4FFFE31
:1002D500FDFC22FCE4CFCECDCC24E0501174FF8090
:1002E500EDC3CC13CCCD13CDCE13CECF13CF04702D
:0702F500F030D5DE020670B7
:10173F009064F21206EDE4FFFE7D807C3F9064F230
:10174F00E0F8A3E0F9A3E0FAA3E0FB120360700650
:10175F009064F20218999064F2E0FCA3E0FDA3E01C
:10176F00FEA3E0FF120346FBA3E0FCA3E0FDA3E012
:10177F00FEA3E0FF120346FFB40108E4FFFE7D80E5
:10178F007C3F22EF64046029EB64046024EBB40116
:10179F0030E4FFFEFDFC9064F6E0F8A3E0F9A3E06F
:1017AF00FAA3E0FB12036060084006E4FFFEFDFCB5
:1017BF00229064F61206F9FFFFFFFF9064F60218FD
:1017CF0099E49064FAF0A3F0FFFEFDFC9064F2E060
:1017DF00F8A3E0F9A3E0FAA3E0FB120360505F90D7
:1017EF0064F6E0FCA3E0FDA3E0FEA3E0FF1202C558
:1017FF009064FAEEF0A3EFF0FDCCEECCEC1203EF19
:10180F00C8ECC8C9EDC9CAEECACBEFCB9064F6E0FD
:10181F00FCA3E0FDA3E0FEA3E0FF12002AE4FBFA25
:10182F00F9F8120360708A9064F2E0FCA3E0FDA364
:10183F00E0FEA3E0FF1203D99064F21206ED90646C
:10184F00F2E0FCA3E0FDA3E0FEA3E0FF1218D990A5
:10185F0064F6E0F8A3E0F9A3E0FAA3E0FB12011F9E
:10186F001221899064F61206ED9064FBE030E017C8
:10187F009064F6E0FCA3E0FDA3E0FEA3E0FF1203FB
:10188F00D99064F61206ED9064F6E0FCA3E0FDA398
:06189F00E0FEA3E0FF22C1
:1002FC00E9D2E7C933E833F892D5EDD2E7CD33EC48
:07030C0033FC5002B2D522C0
:10031300EC30E7100FBF000C0EBE00080DBD00044B
:100323000BEB6014A2D5EB13FCED92E7FD2274FFF7
:10033300FCFDFEFF22E480F8A2D574FF13FC7D8050
:03034300E480EF64
:10034600ED33EC33601004700FED547F70057402CA
:0A03560092E0227404220422E42243
:1003600074F8CC6480CCC86480C8F58204604FC344
:10037000EB9FF5F0EA9E42F0E99D42F0E89C45F0E3
:10038000603C501DE5825FFFE582D313CB5BCBF46D
:100390002B5582FB50280ABA002409B90020088096
:1003A0001DE5825BFBE582D313CF5FCFF4C3132F30
:1003B0005582FF50090EBE00050DBD00010CC3EBB8
:1003C0009FF5F0EA9E42F0E99D42F0E89C45F0601E
:0903D00007CC4820E701B3EC2240
:1003D900ED33EC33600A047003BD8004ECB2E7FC32
:0103E90022F1
:1003EA0075F020800E75F010800575F0087D007E8E
:1003FA00007F003392D530D503120670EC334010DB
:10040A00EF33FFEE33FEED33FDEC33FCD5F0ED2296
:0E041A00E5F0247EA2D513CC92E7CDCEFF22D2
:1021510033DA929E35B16011377FE5FE39218489EA
:102161003AAEC3FF3C1D955B3D6358473E75FDF09C
:102171003F3172183F800000C2D502033B02033198
:10218100BD80FA50F3020338ED33EC330460F17B88
:102191003B7AAA79B8783F12011FED33EC3392D51F
:1021A100247B5011A2D570DB500BED4480240450E8
:1021B10004A2D580CEEFFBEEFAEDF9ECF81202C5E0
:1021C100EFF582F404FC1203F412002EC082902178
:1021D100517409120437ED33CC33D0F092D525F088
:0A21E100A2D57001C313CC13FD2238
:1018A5003E9248DA3ECCCCCD3F2AAAAB40000000A0
:1018B5003F8000003F9837F03FB504F33FD744FC25
:1018C5003E3172173EB172173F0515913EDE5BD969
:1018D500D20A8002C20AEDD2E7F8CD33EC330470A8
:1018E5000BBD800592D502033B02033140FBD314A7
:1018F50060F2F5F07C3FEE7A00C39496C8948B4075
:10190500230AC89469C8941A401A0AC89468C894E6
:101915001F40110AC8945AC89425400805F07A005A
:10192500CDC2E7CDC0F09064FC1206EDEA2323C0DA
:10193500E024B5F582E43418F5831206DD12002E95
:10194500ECC0E0EDC0E0EEC0E0EFC0E01206C190F3
:1019550064FC1206D112002AD0E0FBD0E0FAD0E0F8
:10196500F9D0E0B2E7F81202289064FC1206ED9077
:1019750018A574031204289064FC1206D112011FE5
:10198500D0E0600F24C1F582E43418F5831206DD3A
:1019950012002E9064FC1206EDD0E0C3947FFDE4A6
:1019A5009400FC1203EF7B187A727931783F1201AB
:1019B5001F9064FC1206D112002E300A0B7BD97AD7
:0919C5005B79DE783E12011F225D
:10042800C0E0EFFBEEFAEDF9ECF812011FD0E0F5B1
:10043800F0EFFBEEFAEDF9ECF81206C1A3A3A3A3C3
:10044800E8C0E0E9C0E0EAC0E0EBC0E0C0F01201BB
:100458001F1206DDA3A3A3A312002ED0F0D0E0FB49
:0D046800D0E0FAD0E0F9D0E0F8D5F0D422D1
:1021F7000219CEE493A3F8E493A34003F68001F217
:1022070008DFF48029E493A3F85407240CC8C333E8
:10221700C4540F4420C8834004F456800146F6DFB7
:10222700E4800B01020408102040809007FAE47E46
:10223700019360BCA3FF543F30E509541FFEE493AC
:10224700A360010ECF54C025E060A840B8E493A373
:10225700FAE493A3F8E493A3C8C582C8CAC583CA9E
:10226700F0A3C8C582C8CAC583CADFE9DEE780BE56
:010D8300006F
:10047500BB010689828A83E0225002E722BBFE0285
:09048500E32289828A83E49322B8
:10048E00BB010CE58229F582E5833AF583E0225023
:10049E0006E92582F8E622BBFE06E92582F8E2226D
:0D04AE00E58229F582E5833AF583E4932287
:1004BB00BB010FF8E58229F582E5833AF583E02845
:1004CB00F0225009C58229F8E58226F622BBFE09E7
:1004DB00C58229F8E22582F222F8EA2583F583E921
:0304EB0093282231
:1004EE00BB010689828A83F0225002F722BBFE01ED
:0204FE00F322E7
:10050000F8BB010DE58229F582E5833AF583E8F031
:10051000225006E92582C8F622BBFE05E92582C8DD
:02052000F222C5
:10052200C5F0F8A3E028F0C5F0F8E5821582700264
:060532001583E038F02201
:0D053800EF2BFFEE3AFEED39FDEC38FC2212
:0E054500C3EF9BFFEE9AFEED99FDEC98FC22B1
:10055300E88FF0A4CC8BF0A42CFCE98EF0A42CFC47
:100563008AF0EDA42CFCEA8EF0A4CDA8F08BF0A4C5
:100573002DCC3825F0FDE98FF0A42CCD35F0FCEB24
:100583008EF0A4FEA9F0EB8FF0A4CFC5F02ECD39E9
:0F059300FEE43CFCEAA42DCE35F0FDE43CFC2256
:1005A20075F008758200EF2FFFEE33FECD33CDCC10
:1005B20033CCC58233C5829BED9AEC99E582984093
:1005C2000CF582EE9BFEED9AFDEC99FC0FD5F0D670
:1005D200E4CEFBE4CDFAE4CCF9A88222B800C1B99A
:1005E2000059BA002DEC8BF084CFCECDFCE5F0CBD8
:1005F200F97818EF2FFFEE33FEED33FDEC33FCEB11
:1006020033FB10D703994004EB99FB0FD8E5E4F9CB
:10061200FA227818EF2FFFEE33FEED33FDEC33FCB8
:10062200C933C910D7059BE99A4007EC9BFCE99AAC
:10063200F90FD8E0E4C9FAE4CCFB2275F010EF2FF1
:10064200FFEE33FEED33FDCC33CCC833C810D707F1
:100652009BEC9AE899400AED9BFDEC9AFCE899F82C
:0E0662000FD5F0DAE4CDFBE4CCFAE4C8F922BF
:0E067000C3E49FFFE49EFEE49DFDE49CFC229B
:10067E00EB9FF5F0EA9E42F0E99D42F0E89C45F0D2
:01068E002249
:10068F00E8600FECC313FCED13FDEE13FEEF13FF49
:03069F00D8F1226D
:1006A200E8600FEFC333FFEE33FEED33FDEC33FCB6
:0306B200D8F1225A
:0C06B500E0FCA3E0FDA3E0FEA3E0FF22B8
:1006C100E493FC740193FD740293FE740393FF227F
:0C06D100E0F8A3E0F9A3E0FAA3E0FB22AC
:1006DD00E493F8740193F9740293FA740393FB2273
:0C06ED00ECF0A3EDF0A3EEF0A3EFF02280
:1006F900A8828583F0D083D08212071012071012C6
:100709000710120710E473E493A3C583C5F0C583EA
:10071900C8C582C8F0A3C583C5F0C583C8C582C84A
:0107290022AD
:09072A00E0FBA3E0FAA3E0F922D0
:10073300F8E0FBA3A3E0F925F0F0E582158270024F
:070743001583E0FA38F022F3
:09074A00EBF0A3EAF0A3E9F022B0
:10075300BB010DE58229F582E5833AF58302072A79
:100763005007E92582F80207DCBBFE07E92582F87A
:100773000207E5E58229F582E5833AF5830207EE70
:10078300D083D082F8E4937012740193700DA3A305
:1007930093F8740193F5828883E473740293686019
:0607A300EFA3A3A380DF19
:0607A9008A838982E473DB
:1007AF00EC8EF0A4CCC5F0CCCDF8EFA4CEC5F02DD7
:1007BF00FDE43CFCE8A42EC8C5F03DFDE43CFCEF95
:0D07CF00A4FFE5F028FEE43DFDE43CFC2223
:0907DC00E6FB08E6FA08E6F92242
:0907E500E2FB08E2FA08E2F92245
:0C07EE00E493FB740193FA740293F92267
:00000001FF
