:0300000002229F3A
:0C229F00787FE4F6D8FD7581220222E66B
:0C000300000000000000000000000000F1
:0B266C00EF1FAC0670011E4C70F62240
:1025DC00AB07AA06EB1BAE0270011A4E60097FAA6C
:0825EC007E0512266C80ED2231
:101FE000907120E04480F07F057E0012266CE4FFB3
:101FF000FE1225DC75A75575AC589071327450F0FF
:102000009071307403F0907136742FF07F18EF24C4
:1020100066FDE434718D82F583E4F00FEFB433EEA6
:10202000904011E4935407FF90711CE054F84FF076
:10203000904017E493547FFF90711DE054804FF05F
:10204000904010E493FF5401C43333335480FE9026
:102050007123E0547F4EF0EFC313543F4440FFA37D
:10206000E054804FF0904012E493FF540FFE9071C3
:1020700046E054F04EF0EFC4540FFF90714FE0541F
:10208000F04FF0904013E493543FFF907140E054C0
:10209000C04FF0904014E493907126F0904015E406
:0E20A00093907128F0904016E49390712AF00E
:0120AE00220F
:10256B007379732072657365740A007265637620E4
:0E257B00646174613A20307820256C780A0083
:0708BD004464D3428C0000EB
:08267700E5D430E4FB8FD7220B
:1025A60078C2E25403F2E24401F290717EE0440400
:0B25B600F075D60175D59F75D210227C
:1020AF00C3906046E09470906045E094174003023F
:1020BF002144E4FFFE7D807CBF9064D3E0F8A3E071
:1020CF00F9A3E0FAA3E0FB12002EE4FBFA79A8785B
:1020DF0042120228E4FBFA798078BF12002E906436
:1020EF00D712080D9064D3E0FCA3E0FDA3E0FEA39C
:1020FF00E0FFE4FBFAF9783F12002E9064D3120848
:10210F000D9064D7E0FCA3E0FDA3E0FEA3E0FF90F9
:10211F0064CD12080D7F007E007DA07C40121AE373
:10212F00E4FBFA7970784212011F1202C5906045E4
:10213F00EEF0A3EFF0C3906046E09470906045E03E
:0C214F00941740077417F0A37470F0227E
:10232B0075D9DD121FE075D95590715EE054FEF042
:10233B0075D9BB1225A67BFF7A25796B120E1E125F
:10234B0025891225C112215B1224A212254B906004
:10235B0045E0FFA3E0906487CFF0A3EFF0C20B1230
:10236B00262E12195B121ED412251812267F30103E
:10237B00EEC2107BFF7A2579769064E7E0FCA3E050
:10238B00FDA3E0FEA3E0FF90648D12080D120E1E5C
:02239B0080CDF3
:1008C4004260450000426487177042648317704297
:1008D40060430000426481000042647F1000416470
:1008E4008900643860470000000000000000000038
:1008F40000000000000000000000000000000000F4
:1009040000000000000000000000000000000000E3
:1009140000000000000000000000000000000000D3
:1009240000000000000000000000000000000000C3
:100D14000000000000000000000000000000426429
:100D240085000060406000FFFF000000000000003C
:100D340000000000000000000000000000000000AF
:100D4400000000000000000000000000000000009F
:100D5400000000000000000000000000000000008F
:100D6400000000000000004160400041604100417B
:050D7400604200C10C0B
:10215B007812E24401F278567407F278277417F27A
:10216B0018746FF27833E4F218F27819E24401F242
:10217B007811E24401F27817E24401F27812E2445A
:10218B0001F27814E24401F27818E24401F278D3B8
:10219B00E254CFF2E24410F2E254FCF2E24401F2D8
:1021AB0090718AE4F090718C740AF07812E2440218
:1021BB00F278577407F278297417F218746FF27863
:1021CB0037E4F218F27819E24402F27811E2440291
:1021DB00F27817E24402F27812E24402F27814E247
:1021EB004402F27818E24402F278D3E254F3F2E2BA
:0A21FB004404F290718B7409F02285
:10261C00906045E07833F2A3E018F27817E24401B9
:02262C00F22298
:0E000F00E47837F2EF18F27817E24402F2229A
:1012360090648A12081900000000906000E0F470C3
:0912460003A3E0F460030212DBD3
:10124F0090648EF0A3F090648EE0FEA3E0FFC39451
:10125F0020EE9400502E9064DCE0FCA3E0FDEF251F
:10126F00E0FFEE33FE74002FF58274603EF583ECE1
:10127F00F0A3EDF090648FE004F070CA90648EE0FC
:10128F0004F080C2E490648EF0A3F090648EE0FED0
:10129F00A3E0FFC3941CEE9402400302133C90643E
:1012AF00DCE0FCA3E0FDEF25E0FFEE33FE74472FFB
:1012BF00F58274603EF583ECF0A3EDF090648FE05F
:0C12CF0004F070C790648EE004F080BF53
:1012DB00906040E025E02400F582E43460F583E083
:1012EB00FFA3E090648ECFF0A3EFF09064DCE0FE00
:1012FB00A3E0FF90648FE02FF090648EE03EF0E06F
:10130B00C313FEA3E013FF90648EEEF0A3EFF090F7
:10131B006040E025E02400F582E43460F583EEF0D4
:10132B00A3EFF0906040E004F0E0C394204002E4AF
:01133B00F0C1
:10133C00E490648EF0A3F090648AE0F8A3E0F9A343
:10134C00E0FAA3E0FB90648FE025E0FF90648EE070
:10135C0033FE74002FF58274603EF583E0FEA3E04B
:10136C00FFE4FCFDEB2FFFEA3EFEED39FDEC38FC13
:10137C0090648A12080D90648FE004F070069064FB
:10138C008EE004F090648EE07004A3E0642070A7FB
:10139C0090648AE0FCA3E0FDA3E0FEA3E0FF7805E7
:0913AC001207BB90648A12080DBF
:1013B50090648AA3A3E0FEA3E0FDAC06906486E0FA
:1013C50025E0FF906485E033FE74472FF582746055
:1013D5003EF583ECF0A3EDF0906486E004F0700632
:1013E500906485E004F0C3906486E0941C90648565
:0913F500E094024004E4F0A3F0CE
:1013FE00E490648EF0A3F0906481F0A3F090647F8B
:10140E007410F0A3E4F090648EE0FEA3E0FFC394AA
:10141E001CEE940240030214E2EF25E0FFEE33FED1
:10142E0074472FF58274603EF583E0FCA3E0FD90D7
:10143E006481E0FAA3E0FBD3ED9BEC9A401674476F
:10144E002FF58274603EF583E0FFA3E0906481CFB8
:10145E00F0A3EFF090648FE025E0FF90648EE03310
:10146E00FE74472FF58274603EF583E0FCA3E0FD29
:10147E0090647FE0FAA3E0FBC3ED9BEC9A501674E8
:10148E00472FF58274603EF583E0FFA3E090647F02
:10149E00CFF0A3EFF090647FE0FEA3E0FFC3906473
:1014AE0082E09FFF906481E09EFED3EF9450EE9415
:1014BE00004008906489741EF08008906489E06092
:1014CE000214F090648FE004F0700690648EE004D5
:0414DE00F0021414F0
:1014E200E47F8B7E06FDFC90648AE0F8A3E0F9A31A
:1014F200E0FAA3E0FBC31207AA5020200C03021556
:101502008DE47F8B7E06FDFC90648AE0F8A3E0F90F
:10151200A3E0FAA3E0FB1207AA4070E4906041F056
:10152200A3F0D20C906489E0FFB41E3214F0D39081
:101532006488E094B8906487E0940B400CA3E024A4
:10154200FFF0906487E034FFF0C3906488E094B8C1
:10155200906487E0940B4003021676021616EF6041
:1015620003021676200903021676C209C390648824
:10157200E09470906487E094174003021676A3E02B
:1015820004F07006906487E004F022E47FC37E05D5
:10159200FDFC90648AE0F8A3E0F9A3E0FAA3E0FB83
:1015A200D31207AA4076E47F6D7E06FDFC90648A22
:1015B200E0F8A3E0F9A3E0FAA3E0FBD31207AA4004
:1015C20008906041E064047053200A03021676C258
:1015D2000A906041E0C394045003E004F0E4906098
:1015E20042F0C20CD3906488E094B8906487E0948F
:1015F2000B40028069C3906488E094B8906487E0ED
:10160200940B500DA3E004F07006906487E004F0A0
:1016120022906487740BF0A374B8F022E47FC37E37
:1016220005FDFC90648AE0F8A3E0F9A3E0FAA3E0E8
:10163200FBD31207AA4006906042E06037300A34BA
:10164200C20A9060427401F0E4906041F0C20CD38F
:10165200906488E09408906487E09407400DA3E0CA
:1016620024FEF0906487E034FFF0229064877407D0
:04167200F0A304F0ED
:011676002251
:03267F00C29422E0
:01001D0022C0
:0F0D79004164DE004164DB00C10D4264DC000018
:1025890078F2E24403F278E3E244C0F278F0E254EC
:0D259900FDF208E254FDF208E2440CF222CB
:10239D009064DBE06F6064EFF0786AE24478F27588
:1023AD0091FFEF24FE601D14603024027046907181
:1023BD0023E054F8F0E0441EF09071227407F0759C
:1023CD009918802A907123E054D8F0E0441DF090C4
:1023DD0071227407F07599178014907123E054F8E9
:1023ED00F0E0441EF09071227407F0759919786928
:0B23FD00E24448F27F017E001225DC64
:0124080022B1
:101C4900E4906493F0A3F0A3F0906496120819004D
:101C5900000000E490649AF0A3F074FF90649CF093
:101C6900A3F0E4906493F07869E24401F2786BE2BE
:101C790030E1FAAF93EF75F010A4FFE594C4540F67
:101C8900FDEF4DFF906494E5F0F0A3EFF07402F2DC
:101C9900906493E0C39402406D90649AE0FEA3E0DF
:101CA900FFD3906495E09F906494E09E400CE0FF20
:101CB900A3E090649ACFF0A3EFF090649CE0FEA3B8
:101CC900E0FFC3906495E09F906494E09E500CE01F
:101CD900FFA3E090649CCFF0A3EFF0906496E0F846
:101CE900A3E0F9A3E0FAA3E0FB906494E0FEA3E08B
:101CF900FFE4FCFDEB2FFFEA3EFEED39FDEC38FC7D
:101D090090649612080D906493E004F0E064146006
:101D190003021C70906496E0FCA3E0FDA3E0FEA31F
:101D2900E0FFC006C00790649AE0FEA3E0FBAA06A4
:101D3900D007D006C3EF9BFFEE9AFEED9400FDECB1
:101D49009400FC90649612080D906496E0FCA3E060
:101D5900FDA3E0FEA3E0FFC006C00790649CE0FE7F
:101D6900A3E0FBAA06D007D006C3EF9BFFEE9AFEBD
:101D7900ED9400FDEC9400FC90649612080D9064BB
:101D890096E0FCA3E0FDA3E0FEA3E0FF78041207C0
:101D9900BB906494EEF0A3EFF0906494E0FEA3E0AE
:011DA900FF3A
:011DAA002216
:1024E20090648F12081900000000121C49E4FCFDE0
:1024F20090648F12080DE47F0CFEFDFC90648FE067
:10250200F8A3E0F9A3E0FAA3E0FB12067FE47B0A5A
:06251200FAF9F802070AC5
:101ED40090648A120819000000009064DEE0640235
:101EE4007003021FDF7F0112239D1224E290648A93
:101EF40012080D9064DEE070587FEA7E0BFDFC90C2
:101F0400648AE0F8A3E0F9A3E0FAA3E0FBC31207B4
:031F1400AA503E92
:101F1700E490648EF0F01224E290648A12080DE4D3
:101F27007FEA7E0BFDFC90648AE0F8A3E0F9A3E06A
:101F3700FAA3E0FBD31207AA4006E49064DEF0227E
:0E1F470090648EE004F0E0C3940A40CA806209
:0B1F55009064DEE064016003021FDF07
:101F6000200D0FD20D9064DF12081900000000123E
:101F7000264FE47F307E75FDFC9064DFE0F8A3E03F
:0D1F8000F9A3E0FAA3E0FBC31207AA405248
:101F8D00E490648EF0F01224E290648A12080DE45D
:101F9D007FEA7E0BFDFC90648AE0F8A3E0F9A3E0F4
:101FAD00FAA3E0FBD31207AA40079064DE7401F098
:101FBD002290648EE004F0E0C3940A40C99064DE80
:101FCD007402F01226089064DF1208190000000058
:021FDD00C20D33
:011FDF0022DF
:102518009064DEE0700512123680249064DEE0B428
:10252800010C906487740BF0A374B8F08011906468
:10253800DEE0B4020D9064877405F0A374DCF01239
:03254800001D2251
:10262E007F0212239D121C499064DCEEF0A3EFF0A2
:01263E002279
:0A0D88004164F0004164EF00C10E69
:1025C10043A820D2AF75D10178957401F2187476C1
:0B25D100F2789174A0F21874FDF22261
:10263F007890E2541FF2E244C0F243A820D2AF22B6
:1025F4007890E2541FF2E244A0F27892E4F208F2F6
:0426040053A8DF22D6
:03001E0002245E5B
:10245E00C0E0C083C082C0D075D000C0007891E2C9
:10246E0030E726E24480F29064F0E004F09064EFEE
:10247E00E004F0A3E0C394194002E4F09064EFE0AE
:10248E00C3940D4004E4F0D20ED000D0D0D082D050
:04249E0083D0E032D5
:070D92004464DF00000000D3
:1024A200E5B154CF42B1789CE254E3F2E24414F233
:1024B200E254FCF2E24401F208E24480F2E24420F7
:1024C200F278A1743BF2187460F2789EE4F208F29A
:1024D200789CE2541FF2E244A0F253A8BFD2AF228A
:10264F00789CE2541FF2E244C0F243A840D2AF227A
:10260800789CE2541FF2E244A0F2789EE4F208F2C9
:0426180053A8BF22E2
:03002100022409AD
:10240900C0E0C0F0C083C082C0D075D000C000C099
:1024190004C005C006C007789DE230E723E2448086
:10242900F29064DFE0FCA3E0FDA3E0FEA3E0240159
:10243900FFE43EFEE43DFDE43CFC9064DF12080D40
:10244900D007D006D005D004D000D0D0D082D08318
:05245900D0F0D0E032DC
:090D9900C109C10A4264C700004F
:10254B0043A901D2AF75D104907105E4F0907104E9
:10255B007424F090710174A0F090710074FDF0225E
:030024000216774A
:10167700C0E0C0F0C083C082C0D075D000C000C039
:1016870001C002C003C004C005C006C007907101B5
:10169700E020E703021940E04480F09064C4E004CE
:1016A700F070069064C3E004F09064C6E004F07044
:1016B700069064C5E004F09064C8E004F0700690FA
:1016C70064C7E004F0C39064C6E0940D9064C5E07D
:1016D70094004006E4F0A3F0D20AC39064C4E094F7
:0F16E7000D9064C3E094004006E4F0A3F0D20934
:1016F6002081599064C1E004F0E0C3941E500302B7
:1017060018679064BAE0641760030218679064C2B1
:10171600E09406401EE0941450199064BBE0FCA3CC
:10172600E0FDA3E0FEA3E04401FFEC9064BB1208D9
:101736000D800B9064C2E0C394014002E0FF906408
:10174600C07401F09064BFE4F00218679064C1E0D1
:10175600D394005003021848E0D3943240179064A3
:10176600BB120819000000009064BAE4F09064BF50
:1017760004F002182D9064BFE0603E9064C1E0C39F
:1017860094024035E094075030A3E0C39406402904
:10179600E0941450249064BBE0FCA3E0FDA3E0FEBB
:1017A600A3E04401FFEC9064BB12080D9064BAE01C
:1017B60004F0E06418607080429064BFE060559069
:1017C60064C1E0C39407404CE094145047A3E0C3BF
:1017D60094014040E09406503B9064BBE0FCA3E0DB
:1017E600FDA3E0FEA3E054FEFFEC9064BB12080DDF
:1017F6009064BAE004F0E06418602CA3E0FCA3E077
:10180600FDA3E0FEA3E0FF78011207CE9064BB12B1
:10181600080D80139064BB12081900000000906444
:10182600BAE4F09064BFF09064C1E4F0A3F0906471
:10183600BAE0B418269064C07401F09064BFE4F076
:1018460080199064BFE070139064BB120819000001
:1018560000009064BAE4F09064BFF09064C2E004C3
:10186600F09064C0E0602F9064BAE4F09064C0F039
:10187600A3F0A3F09064BB201015E0FCA3E0FDA349
:10188600E0FEA3E0FF9064E712080DD21080071275
:061896000819000000002B
:10189C00C39064C8E094059064C7E09400500302C0
:1018AC001940E4F0A3F0300B03021940906045E0BE
:1018BC00FEA3E0FFD39064E4E09F9064E3E09E40DD
:1018CC0010906046E004F0702B906045E004F080CE
:1018DC0023906045E0FEA3E0FFC39064E4E09F909A
:1018EC0064E3E09E500E906046E024FFF09060456B
:1018FC00E034FFF012261C906045E0A3E0FF1200DC
:10190C000FD3906046E09400906045E09400500F37
:10191C007818E254FEF290718CE4F0D2968015C3E4
:10192C00906045E09400400C90718C740AF078182B
:10193C00E24401F2D007D006D005D004D003D00287
:0F194C00D001D000D0D0D082D083D0F0D0E03204
:070DA2004264E50000C10FEF
:10195B00E490648AF0A3F07F0312239D121C49903C
:10196B00648AEEF0A3EFF0300F03021AD1D3906428
:10197B008BE094EA90648AE09401500AE49064E569
:10198B00F0A3F0021A81D390648BE094DD90648A0B
:10199B00E09404501DE0FEA3E0FF7C2E7DE01208D6
:1019AB0090E47B0AFAF9F812070AE47BDD7A040269
:1019BB001A68D390648BE094EE90648AE09408509C
:1019CB001DE0FEA3E0FF7C5D7DC0120890E47B0A66
:1019DB00FAF9F812070AE47BEE7A08021A68D39038
:1019EB00648BE0941290648AE0940B501CE0FEA38D
:1019FB00E0FF7C177D70120890E47B02FAF9F81275
:101A0B00070AE47B127A0B8054D390648BE094BC6E
:101A1B0090648AE0940C501CE0FEA3E0FF7C8C7D6C
:101A2B00A0120890E47B0AFAF9F812070AE47BBCCF
:101A3B007A0C8029D390648BE0949190648AE09423
:101A4B000F5029E0FEA3E0FF7CBB7D80120890E4E1
:101A5B007B0AFAF9F812070AE47B917A0FF9F8126C
:101A6B00070A9064E5EEF0A3EFF0800A9064E5744A
:101A7B0017F0A37470F0906487E0FEA3E0FF90640E
:101A8B00E5E0FCA3E0FD120890E47B707A17F9F80F
:101A9B0012070A9064E3EEF0A3EFF0C39064E4E066
:101AAB00943E9064E3E09417400F906487E0FFA3AB
:101ABB00E09064E3CFF0A3EFF09064E3E07002A357
:101ACB00E07014D20F22C390648BE094DD90648A93
:071ADB00E094044002C20F79
:011AE20022E1
:090DA900C1104464E700000000E1
:0D265F0078C0E24402F278C2E254F3F222A5
:10002700020331E86480F8E933E83360110460F0D3
:10003700ED33EC337009E8FCE9FDEAFEEBFF22043F
:1000470060DED3EB9FEA9EE99DE8C2E78CF0C2F73A
:1000570095F0400CE8CCF8E9CDF9EACEFAEBCFFB06
:100067001202FC85D0F05804700320D5B3E8047061
:10007700075002B2D502033B92D5EC0460F7E4CCFB
:10008700C0E0C398F8603B94186008400DD0E0FBCF
:10009700020313E4FBFAC9FC8028E830E406E4C94C
:1000A700FBE4CAFCE830E305E4C9CACBFCE8540723
:1000B7006010F8C3E913F9EA13FAEB13FBEC13FC2E
:1000C700D8F130F52FC3E49CFCEF9BFFEE9AFEEDD1
:1000D70099FDD0E0FBEF4E4D4C701222DB0302037B
:1000E70038EC2CFCEF33FFEE33FEED33FDED30E75C
:1000F700EB020313EF2BFFEE3AFEED39FDD0E0FBE9
:1001070050130BBB000302033BED13FDEE13FEEF91
:0801170013FFEC13FC020313BB
:10011F00EC4D6011E8497017ED33EC3304600DE4DA
:10012F00FCFFFEFD22E933E8330470F802033112BD
:10013F0002FC58046009E4CC2481500628500902BF
:10014F00033B284003020338C0E0EB4A7044B980F8
:10015F0006D0E0FB020327EF4E701CBD8008EBFFBB
:10016F00EAFEE9FD80EBE98DF0A4FEE5F00202085E
:10017F00E9CDF9EAFEEBFFEF89F0A4FCE5F0CE89BB
:10018F00F0A42EFFE435F0CD89F0A42DFEE435F078
:10019F008067EF4E7005BD80D780C3EF8BF0A4ACA6
:1001AF00F0EE8BF0A42CFCE435F0F8EF8AF0A42CE1
:1001BF00E5F038FCE433CB8DF0A42CFCE5F03BF8F4
:1001CF00EE8AF0A42CFCE5F038F8E433CF89F0A4E4
:1001DF002CFCE5F038CF3400CE89F0A42FFFE5F0EA
:1001EF003EFEE433C98DF0A42EFEE5F039CD8AF042
:1001FF00A42FFFE5F03EFEE43DFD33D0E0FB5007BA
:10020F000BBB000F02033BEC2CFCEF33FFEE33FE76
:06021F00ED33FD020313A4
:1002250002033BEC5D046005E859047003020331E9
:100235001202FC580460F6EC4860F2EC7004FDFE16
:10024500FF22C860DB2481C85009C39860025006AC
:100255000203389850CAF582E9294B4A7005AB82EA
:1002650002032775F0007C1A7880C3EF9BEE9AEDA8
:1002750099400DC3EF9BFFEE9AFEED99FDE842F024
:10028500DC23ACF0D0E0FFD0E0FED0E0FDAB822077
:10029500E7101BEB60BAEC2CFCEF33FFEE33FEED01
:1002A50033FD020313E803F830E705C0F075F000ED
:1002B500EF2FFFEE33FEED33FD40B830E7C280AAE5
:1002C500EDD2E7CD33EC3392D524814006E4FFFE31
:1002D500FDFC22FCE4CFCECDCC24E0501174FF8090
:1002E500EDC3CC13CCCD13CDCE13CECF13CF04702D
:0702F500F030D5DE02079C8A
:100DB300E508248DF582E43464F583E00508229088
:100DC300648A30070390648DE475F00112084A02C7
:100DD30006272000E97F2ED2008018EF540F2490BD
:100DE300D43440D4FF30040BEF24BFB41A005003B3
:100DF3002461FFE50960021509050CE50C70020585
:100E03000B30070E90648AE475F00112084AEF0272
:100E1300066D0226777403D2078003E4C207F50840
:100E230090648A120861E4F509F50BF50CE5096095
:100E3300077F20120DF680F5750AFFC201C200C2BA
:100E430002C203C205C206C208120DC2FF700D30F2
:100E530007057F00120E07AF0CAE0B22B4255FC24D
:100E6300D5C204120DC2FF24D0B40A00501A75F083
:100E73000A780930D50508B6FF0106C6A426F62070
:100E8300D5047002D20380D924CFB41A00EF5004E2
:100E9300C2E5D2040210F9D20180C6D20080C0D2CA
:100EA3000280BCD2D580BAD20580B47F20120DF661
:100EB3002002077401B5090040F1120DB3FF120DB2
:100EC300F6020E30D208D2068095120DB3FB120D36
:100ED300B3FA120DB3F94A4B700679F77A117BFF17
:100EE30020022EE509602A7E008E82758300120699
:100EF3004060060EEE650A70F0C2D5EBC0E0EAC0B2
:100F0300E0E9C0E0EE12115AD0E0F9D0E0FAD0E007
:100F1300FB120627FF60AAEBC0E0EAC0E0E9C0E0ED
:100F2300120DF6D0E02401F9D0E03400FAD0E0FB52
:100F3300E50A0460DCD50AD98087D20280A21211A7
:100F43003C60F7E50A700104120428A90A600DE564
:100F53000A600914F50A1211E4EF60F3EA30E702BC
:100F6300F404C3995079EAF4250A0430E701E40450
:100F7300F50A800D12113C60C1EA050A250A120424
:100F830028EA9064B9F030E701E4250A04D50A049D
:100F93002005011412115AE4C0E01211E49064B95F
:100FA300E0601320E70714F0120DDE802204F0D076
:100FB300E014C0E07F00120DDEE50A6007120DD5D4
:100FC300150A800B300503120DD5D0E0020E30D088
:100FD300E00480C412113C609EE50A0412042890C8
:100FE30064B9EAF0E50A2005026001042404121141
:010FF3005AA3
:100FF40074FF04C0E01211E4120DDEE50A200502BC
:101004006003120DD5D0E0B50AE87F45120DE890D3
:1010140064B9E07F2B30E7047F2DF404C0E0120DA7
:10102400F6D0E075F00A84C0F0120DDFD0E0120DA6
:10103400DF020E30791080027908C206C2088008E7
:10104400D2D5790A8004790AC2D5E50A047002F57A
:101054000AE4FAFDFEFF120DB3FC7B082001131213
:101064000DB3FD7B1030000A120DB3FE120DB3FF59
:101074007B20EC3382D592D55013C3E43000069F15
:10108400FFE49EFEE42001039DFDE49CFCE4CBF818
:10109400C201EC700CCFCECDCCE824F8F870F3800C
:1010A40017C3EF33FFEE33FEED33FDEC33FCEB33CC
:1010B400FB994002FB0FD8E9EB300105F8D0E0C4FE
:1010C40048B201C0E00AEC4D4E4F78207B0070C25C
:1010D400EAB50A0040BCC0E012115CD0F0D0E020B8
:1010E4000104C4C0E0C4B201C0F0120DDFD0F0D5D9
:1010F400F0EB020E3012086A0ECD531038580E9ED3
:101104004C0E9A42103C4F1044441044490EB343D1
:10111400104A550F77460FD7450F41471217500E07
:10112400A22D0EA62E0EC92B0EAA230EC720120026
:101134002A0E624800000EC1E50AB4FF03750A06D0
:10114400120DB3FC120DB3FD120DB3FE120DB3FF5D
:101154009064B2020465790AA2D52003143005090B
:10116400B910020404B9080104A2D52006025001F2
:10117400042002689202B509005034C0E07F203098
:1011840003197F30A20272067205500F1211B3C206
:1011940002C206C205C2087F30800F300503E9C0D1
:1011A400E0120DF6300503D0E0F9D0E0B509CC30FB
:1011B40005177F30B9100C120DF67F583004077FE5
:1011C400788003B90803120DF63002057F2D020D55
:1011D400F67F202008F87F2B2006F322920280CF8E
:1011E4007F00B40700500B24B2F582E43464F58325
:1011F400E0FF22286E756C6C2900D201120DB33009
:1012040001F8C201780930D50108F6020E622D50AA
:10121400434958120DB32403B405004001E490126D
:101224001293120DE7743A120DE7D2037509040202
:02123400103870
:101AE3009064C912080DE4FFFE7D807C3F9064C9B9
:101AF300E0F8A3E0F9A3E0FAA3E0FB1203607006A9
:101B03009064C9021C3D9064C9E0FCA3E0FDA3E01E
:101B1300FEA3E0FF120346FBA3E0FCA3E0FDA3E06A
:101B2300FEA3E0FF120346FFB40108E4FFFE7D803D
:101B33007C3F22EF64046029EB64046024EBB4016E
:101B430030E4FFFEFDFC9064CDE0F8A3E0F9A3E0F0
:101B5300FAA3E0FB12036060084006E4FFFEFDFC0D
:101B6300229064CD120819FFFFFFFF9064CD021C81
:101B73003DE49064D1F0A3F0FFFEFDFC9064C9E066
:101B8300F8A3E0F9A3E0FAA3E0FB120360505F902F
:101B930064CDE0FCA3E0FDA3E0FEA3E0FF1202C5D9
:101BA3009064D1EEF0A3EFF0FDCCEECCEC1203EF9A
:101BB300C8ECC8C9EDC9CAEECACBEFCB9064CDE07F
:101BC300FCA3E0FDA3E0FEA3E0FF12002AE4FBFA7E
:101BD300F9F8120360708A9064C9E0FCA3E0FDA3E6
:101BE300E0FEA3E0FF1203D99064C912080D9064CC
:101BF300C9E0FCA3E0FDA3E0FEA3E0FF121DDF901C
:101C030064CDE0F8A3E0F9A3E0FAA3E0FB12011F1F
:101C130012223D9064CD12080D9064D2E030E0179B
:101C23009064CDE0FCA3E0FDA3E0FEA3E0FF12037C
:101C3300D99064CD12080D9064CDE0FCA3E0FDA320
:061C4300E0FEA3E0FF2219
:1002FC00E9D2E7C933E833F892D5EDD2E7CD33EC48
:07030C0033FC5002B2D522C0
:10031300EC30E7100FBF000C0EBE00080DBD00044B
:100323000BEB6014A2D5EB13FCED92E7FD2274FFF7
:10033300FCFDFEFF22E480F8A2D574FF13FC7D8050
:03034300E480EF64
:10034600ED33EC33601004700FED547F70057402CA
:0A03560092E0227404220422E42243
:1003600074F8CC6480CCC86480C8F58204604FC344
:10037000EB9FF5F0EA9E42F0E99D42F0E89C45F0E3
:10038000603C501DE5825FFFE582D313CB5BCBF46D
:100390002B5582FB50280ABA002409B90020088096
:1003A0001DE5825BFBE582D313CF5FCFF4C3132F30
:1003B0005582FF50090EBE00050DBD00010CC3EBB8
:1003C0009FF5F0EA9E42F0E99D42F0E89C45F0601E
:0903D00007CC4820E701B3EC2240
:1003D900ED33EC33600A047003BD8004ECB2E7FC32
:0103E90022F1
:1003EA0075F020800E75F010800575F0087D007E8E
:1003FA00007F003392D530D50312079CEC334010AE
:10040A00EF33FFEE33FEED33FDEC33FCD5F0ED2296
:0E041A00E5F0247EA2D513CC92E7CDCEFF22D2
:10042800F920E73624F950037907E4F42402FBE5C0
:1004380082158270021583DBF6E024FB501BE9600D
:1004480014E4F0E582158270021583E004F0B40A22
:0D04580008E4F0D9EE7401F00A22C2D522AA
:10046500ED33EC3392D5FA602AB4FF33EDC2E77B66
:10047500FF60067A04798AE4227A04799320D50408
:100485007A04798E224E614E002B494E46002D4945
:100495004E4600E47A08F0A3DAFC7B00740722C01C
:1004A50083C082ECC0E0EDC0E0EEC0E0EFC0E0EA62
:1004B50075F010A4CAABF075F04DA42BFBE435F034
:1004C500FCEA2410FAEB34C5FBEC34D9FCEDC2E7A9
:1004D500FF75F056A4F42411C5F0F434C58FF0A4CB
:1004E5002AE5F03BE43CF020E71412059AD0E0FF42
:1004F500D0E0FED0E0FDD0E0FC1202288014F40428
:1005050012059AD0E0FFD0E0FED0E0FDD0E0FC126D
:10051500011FD082D083E0FAEDD2E7CD33EC33244E
:1005250082FBE4C3CF33CFCE33CECD33CD33DBF334
:100535007B0775F00A846004F0A31B0AE5F0F0A3BD
:100545008FF0740AA4FFACF08EF0740AA42CFEACF4
:10055500F050010C8DF0740AA42CFDE435F0F0A3E5
:05056500DBDE7407223B
:1022050033DA929E35B16011377FE5FE3921848935
:102215003AAEC3FF3C1D955B3D6358473E75FDF0E7
:102225003F3172183F800000C2D502033B020331E3
:10223500BD80FA50F3020338ED33EC330460F17BD3
:102245003B7AAA79B8783F12011FED33EC3392D56A
:10225500247B5011A2D570DB500BED448024045033
:1022650004A2D580CEEFFBEEFAEDF9ECF81202C52B
:10227500EFF582F404FC1203F412002EC0829022C2
:102285000574091205E9ED33CC33D0F092D525F06C
:0A229500A2D57001C313CC13FD2283
:101DAB003E9248DA3ECCCCCD3F2AAAAB4000000095
:101DBB003F8000003F9837F03FB504F33FD744FC1A
:101DCB003E3172173EB172173F0515913EDE5BD95E
:101DDB00D2118002C211EDD2E7F8CD33EC3304708F
:101DEB000BBD800592D502033B02033140FBD3149C
:101DFB0060F2F5F07C3FEE7A00C39496C8948B406A
:101E0B00230AC89469C8941A401A0AC89468C894DB
:101E1B001F40110AC8945AC89425400805F07A004F
:101E2B00CDC2E7CDC0F09064EB12080DEA2323C0BE
:101E3B00E024BBF582E4341DF5831207FD12002E5E
:101E4B00ECC0E0EDC0E0EEC0E0EFC0E01207E190C7
:101E5B0064EB1207F112002AD0E0FBD0E0FAD0E0DD
:101E6B00F9D0E0B2E7F81202289064EB12080D905B
:101E7B001DAB74031205DA9064EB1207F112011F0C
:101E8B00D0E0600F24C7F582E4341DF5831207FD03
:101E9B0012002E9064EB12080DD0E0C3947FFDE48A
:101EAB009400FC1203EF7B187A727931783F1201A0
:101EBB001F9064EB1207F112002E30110B7BD97AB5
:091ECB005B79DE783E12011F2252
:10056A003F8000004120000042C80000447A000099
:10057A00461C400047C35000497424004B1896801B
:10058A004CBEBC205A0E1BCA6753C21C749DC5AE12
:10059A00FB60065407601C23231205C8EB5438601D
:1005AA00091205B41205C312011FECF8EDF9EEFAAF
:1005BA00EFCB22EB1205C380F1543803241C9005BB
:1005CA006AFE93FC0EEE93FD0EEE930ECE93FF227F
:1005DA00C0E0EFFBEEFAEDF9ECF812011FD0E0F5FE
:1005EA00F0EFFBEEFAEDF9ECF81207E1A3A3A3A3EF
:1005FA00E8C0E0E9C0E0EAC0E0EBC0E0C0F0120108
:10060A001F1207FDA3A3A3A312002ED0F0D0E0FB74
:0D061A00D0E0FAD0E0F9D0E0F8D5F0D4221D
:1022AB0002232BE493A3F8E493A34003F68001F2FB
:1022BB0008DFF48029E493A3F85407240CC8C33334
:1022CB00C4540F4420C8834004F456800146F6DF03
:1022DB00E4800B01020408102040809008BDE47ECE
:1022EB00019360BCA3FF543F30E509541FFEE493F8
:1022FB00A360010ECF54C025E060A840B8E493A3BF
:10230B00FAE493A3F8E493A3C8C582C8CAC583CAE9
:10231B00F0A3C8C582C8CAC583CADFE9DEE780BEA1
:010DB2000040
:10062700BB010689828A83E0225002E722BBFE02D1
:09063700E32289828A83E4932204
:10064000BB010CE58229F582E5833AF583E022506F
:1006500006E92582F8E622BBFE06E92582F8E222B9
:0D066000E58229F582E5833AF583E49322D3
:10066D00BB010689828A83F0225002F722BBFE016C
:02067D00F32266
:10067F00E88FF0A4CC8BF0A42CFCE98EF0A42CFC1A
:10068F008AF0EDA42CFCEA8EF0A4CDA8F08BF0A498
:10069F002DCC3825F0FDE98FF0A42CCD35F0FCEBF7
:1006AF008EF0A4FEA9F0EB8FF0A4CFC5F02ECD39BC
:0F06BF00FEE43CFCEAA42DCE35F0FDE43CFC2229
:1006CE0075F008758200EF2FFFEE33FECD33CDCCE3
:1006DE0033CCC58233C5829BED9AEC99E582984066
:1006EE000CF582EE9BFEED9AFDEC99FC0FD5F0D643
:1006FE00E4CEFBE4CDFAE4CCF9A88222B800C1B96D
:10070E000059BA002DEC8BF084CFCECDFCE5F0CBAA
:10071E00F97818EF2FFFEE33FEED33FDEC33FCEBE3
:10072E0033FB10D703994004EB99FB0FD8E5E4F99E
:10073E00FA227818EF2FFFEE33FEED33FDEC33FC8B
:10074E00C933C910D7059BE99A4007EC9BFCE99A7F
:10075E00F90FD8E0E4C9FAE4CCFB2275F010EF2FC4
:10076E00FFEE33FEED33FDCC33CCC833C810D707C4
:10077E009BEC9AE899400AED9BFDEC9AFCE899F8FF
:0E078E000FD5F0DAE4CDFBE4CCFAE4C8F92292
:0E079C00C3E49FFFE49EFEE49DFDE49CFC226E
:1007AA00EB9FF5F0EA9E42F0E99D42F0E89C45F0A5
:0107BA00221C
:1007BB00E8600FECC313FCED13FDEE13FEEF13FF1C
:0307CB00D8F12240
:1007CE00E8600FEFC333FFEE33FEED33FDEC33FC89
:0307DE00D8F1222D
:1007E100E493FC740193FD740293FE740393FF225E
:0C07F100E0F8A3E0F9A3E0FAA3E0FB228B
:1007FD00E493F8740193F9740293FA740393FB2252
:0C080D00ECF0A3EDF0A3EEF0A3EFF0225E
:10081900A8828583F0D083D0821208301208301262
:100829000830120830E473E493A3C583C5F0C58387
:10083900C8C582C8F0A3C583C5F0C583C8C582C829
:01084900228C
:10084A00F8E0FBA3A3E0F925F0F0E5821582700237
:07085A001583E0FA38F022DB
:09086100EBF0A3EAF0A3E9F02298
:10086A00D083D082F8E4937012740193700DA3A31D
:10087A0093F8740193F5828883E473740293686031
:06088A00EFA3A3A380DF31
:10089000EC8EF0A4CCC5F0CCCDF8EFA4CEC5F02DF5
:1008A000FDE43CFCE8A42EC8C5F03DFDE43CFCEFB3
:0D08B000A4FFE5F028FEE43DFDE43CFC2241
:00000001FF
