:0300000002281FB4
:0C281F00787FE4F6D8FD7581220228665F
:0C000300000000000000000000000000F1
:0B2CBD00EF1FAC0670011E4C70F622E9
:102BEC00AB07AA06EB1BAE0270011A4E60097FAA56
:082BFC007E05122CBD80ED22C4
:10256000907120E04480F07F057E00122CBDE4FFD6
:10257000FE122BEC75A75575AC589071327450F063
:102580009071307403F0907136742FF07F18EF243F
:1025900066FDE434718D82F583E4F00FEFB433EE21
:1025A000904011E4935407FF90711CE054F84FF0F1
:1025B000904017E493547FFF90711DE054804FF0DA
:1025C000904010E493FF5401C43333335480FE90A1
:1025D0007123E0547F4EF0EFC313543F4440FFA3F8
:1025E000E054804FF0904012E493FF540FFE90713E
:1025F00046E054F04EF0EFC4540FFF90714FE0549A
:10260000F04FF0904013E493543FFF907140E0543A
:10261000C04FF0904014E493907126F0904015E480
:0E26200093907128F0904016E49390712AF088
:01262E002289
:0B2CC8007379732072657365740A0055
:07096F00446526428C0000E4
:082CD300E5D430E4FB8FD722A9
:102BB60078C2E25403F2E24401F290717EE04404EA
:0B2BC600F075D60175D59F75D2102266
:10262F00C3906046E09470906045E09417400302B9
:10263F0026C4E4FFFE7D807CBF906526E0F8A3E012
:10264F00F9A3E0FAA3E0FB12002EE4FBFA79A878D5
:10265F0042120228E4FBFA798078BF12002E9065AF
:10266F002A120862906526E0FCA3E0FDA3E0FEA31A
:10267F00E0FFE4FBFAF9783F12002E90652612086E
:10268F006290652AE0FCA3E0FDA3E0FEA3E0FF90CB
:10269F0065201208627F007E007DA07C40121F9291
:1026AF00E4FBFA7970784212011F1202C59060455F
:1026BF00EEF0A3EFF0C3906046E09470906045E0B9
:0C26CF00941740077417F0A37470F022F9
:1028AB0075D9DD12256075D95590715EE054FEF037
:1028BB0075D9BB122BB67BFF7A2C79C8120F30124D
:1028CB002B99122BD11226DB122A78122B79122B71
:1028DB00559065417417F0A37470F090653F7417B1
:1028EB00F0A37470F09060457417F0A37470F090BF
:1028FB006045E0FFA3E0906485CFF0A3EFF0C2103A
:10290B00122C3E122B28122CDB300EF47B017A6436
:0A291B00798A121A5C121E2780E66A
:10097600426045000042648800004264851770C1E9
:100986008AC18B4260430000426481000042647F5A
:1009960010004164870064386047000000000000D2
:1009A6000000000000000000000000000000000041
:1009B6000000000000000000000000000000000031
:1009C6000000000000000000000000000000000021
:1009D6000000000000000000000000000000000011
:100DD6000000426483000060406000FFFF000000E6
:100DE60000000000000000000000000000000000FD
:100DF60000000000000000000000000000000000ED
:100E060000000000000000000000000000000000DC
:100E160000000000000000000000004160400041AA
:090E260060410041604200C10975
:1026DB007812E24401F278567407F278277417F2F5
:1026EB0018746FF27833E4F218F27819E24401F2BD
:1026FB007811E24401F27817E24401F27812E244D5
:10270B0001F27814E24401F27818E24401F278D332
:10271B00E254CFF2E24410F2E254FCF2E24401F252
:10272B0090718AE4F090718C740AF07812E2440292
:10273B00F278577407F278297417F218746FF278DD
:10274B0037E4F218F27819E24402F27811E244020B
:10275B00F27817E24402F27812E24402F27814E2C1
:10276B004402F27818E24402F278D3E254F3F2E234
:0A277B004404F290718B7409F022FF
:102C2C00906045E07833F2A3E018F27817E24401A3
:022C3C00F22282
:0E000F00E47837F2EF18F27817E24402F2229A
:101348009064DD12086E00000000906000E0F47008
:0913580003A3E0F460030213EDAD
:101361009064E1F0A3F09064E1E0FEA3E0FFC39498
:1013710020EE9400502E906534E0FCA3E0FDEF25B3
:10138100E0FFEE33FE74002FF58274603EF583ECCE
:10139100F0A3EDF09064E2E004F070CA9064E1E043
:1013A10004F080C2E49064E1F0A3F09064E1E0FE17
:1013B100A3E0FFC3941CEE9402400302144E906517
:1013C10034E0FCA3E0FDEF25E0FFEE33FE74472F90
:1013D100F58274603EF583ECF0A3EDF09064E2E0F9
:0C13E10004F070C79064E1E004F080BFED
:1013ED00906040E025E02400F582E43460F583E070
:1013FD00FFA3E09064E1CFF0A3EFF0906534E0FE41
:10140D00A3E0FF9064E2E02FF09064E1E03EF0E0B5
:10141D00C313FEA3E013FF9064E1EEF0A3EFF09091
:10142D006040E025E02400F582E43460F583EEF0C1
:10143D00A3EFF0906040E004F0E0C394204002E49C
:01144D00F0AE
:10144E00E49064E1F0A3F09064DDE0F8A3E0F9A38A
:10145E00E0FAA3E0FB9064E2E025E0FF9064E1E0B7
:10146E0033FE74002FF58274603EF583E0FEA3E038
:10147E00FFE4FCFDEB2FFFEA3EFEED39FDEC38FC00
:10148E009064DD1208629064E2E004F070069064ED
:10149E00E1E004F09064E1E07004A3E0642070A742
:1014AE009064DDE0FCA3E0FDA3E0FEA3E0FF780581
:0914BE001208109064DD120862AE
:1014C7009064DDA3A3E0FEA3E0FDAC06906484E096
:1014D70025E0FF906483E033FE74472FF582746044
:1014E7003EF583ECF0A3EDF0906484E004F0700621
:1014F700906483E004F0C3906484E0941C90648358
:09150700E094024004E4F0A3F0BA
:10151000E49064E1F0A3F0906481F0A3F090647F24
:101520007410F0A3E4F09064E1E0FEA3E0FFC39444
:101530001CEE940240030215F4EF25E0FFEE33FEAB
:1015400074472FF58274603EF583E0FCA3E0FD90C4
:101550006481E0FAA3E0FBD3ED9BEC9A401674475C
:101560002FF58274603EF583E0FFA3E0906481CFA5
:10157000F0A3EFF09064E2E025E0FF9064E1E03357
:10158000FE74472FF58274603EF583E0FCA3E0FD16
:1015900090647FE0FAA3E0FBC3ED9BEC9A501674D5
:1015A000472FF58274603EF583E0FFA3E090647FEF
:1015B000CFF0A3EFF090647FE0FEA3E0FFC3906460
:1015C00082E09FFF906481E09EFED3EF9450EE9402
:1015D000004008906487741EF08008906487E06083
:1015E0000214F09064E2E004F070069064E1E0041C
:0415F000F0021526CA
:1015F400E47F8B7E06FDFC9064DDE0F8A3E0F9A3B4
:10160400E0FAA3E0FBC31207FF50202009030216EF
:101614009FE47F8B7E06FDFC9064DDE0F8A3E0F997
:10162400A3E0FAA3E0FB1207FF4070E4906041F0EE
:10163400A3F0D209906487E0FFB41E3214F0D39073
:101644006486E094B8906485E0940B400CA3E02495
:10165400FFF0906485E034FFF0C3906486E094B8B2
:10166400906485E0940B4003021788021728EF600A
:1016740003021788200C03021788C20CC3906486E7
:10168400E09470906485E094174003021788A3E007
:1016940004F07006906485E004F022E47FC37E05C4
:1016A400FDFC9064DDE0F8A3E0F9A3E0FAA3E0FB1D
:1016B400D31207FF4076E47F6D7E06FDFC9064DD67
:1016C400E0F8A3E0F9A3E0FAA3E0FBD31207FF409C
:1016D40008906041E064047053200D03021788C22F
:1016E4000D906041E0C394045003E004F0E4906082
:1016F40042F0C209D3906486E094B8906485E09483
:101704000B40028069C3906486E094B8906485E0DD
:10171400940B500DA3E004F07006906485E004F08F
:1017240022906485740BF0A374B8F022E47FC37E26
:1017340005FDFC9064DDE0F8A3E0F9A3E0FAA3E082
:10174400FBD31207FF4006906042E06037300D344F
:10175400C20D9060427401F0E4906041F0C209D37C
:10176400906486E09408906485E09407400DA3E0BB
:1017740024FEF0906485E034FFF0229064857407C1
:04178400F0A304F0DA
:01178800223E
:032CDB00C294227E
:0C2CA5007818E230E0037F01227F00225B
:0C2CB1007818E230E1037F01227F00224E
:0D2C8B007818E24401F290718C740AF02276
:0E2C6F007818E254FEF290718CE4F0D29622B6
:0D2C980090718B7409F07818E24402F2226A
:0E2C7D007818E254FDF290718BE4F0D29522AB
:0F0E2F004165360041653300C111426534000052
:102B990078F2E24403F278E3E244C0F278F0E254D6
:0D2BA900FDF208E254FDF208E2440CF222B5
:10292500906533E06F6064EFF0786AE24478F275A1
:1029350091FFEF24FE601D146030240270469071F3
:1029450023E054F8F0E0441EF09071227407F0750E
:102955009918802A907123E054D8F0E0441DF09036
:1029650071227407F07599178014907123E054F85B
:10297500F0E0441EF09071227407F075991978699A
:0B298500E24448F27F017E00122BECC0
:012990002224
:1020F800E49064DDF0A3F0A3F09064E012086E00B1
:10210800000000E49064E4F0A3F074FF9064E6F04B
:10211800A3F0E49064DDF07869E24401F2786BE2C0
:1021280030E1FAAF93EF75F010A4FFE594C4540FB3
:10213800FDEF4DFF9064DEE5F0F0A3EFF07402F2DE
:102148009064DDE0C39402406D9064E4E0FEA3E097
:10215800FFD39064DFE09F9064DEE09E400CE0FFD8
:10216800A3E09064E4CFF0A3EFF09064E6E0FEA370
:10217800E0FFC39064DFE09F9064DEE09E500CE0D7
:10218800FFA3E09064E6CFF0A3EFF09064E0E0F8FE
:10219800A3E0F9A3E0FAA3E0FB9064DEE0FEA3E08D
:1021A800FFE4FCFDEB2FFFEA3EFEED39FDEC38FCC9
:1021B8009064E01208629064DDE004F0E06414606A
:1021C8000302211F9064E0E0FCA3E0FDA3E0FEA36E
:1021D800E0FFC006C0079064E4E0FEA3E0FBAA06A7
:1021E800D007D006C3EF9BFFEE9AFEED9400FDECFE
:1021F8009400FC9064E01208629064E0E0FCA3E0C4
:10220800FDA3E0FEA3E0FFC006C0079064E6E0FE81
:10221800A3E0FBAA06D007D006C3EF9BFFEE9AFE09
:10222800ED9400FDEC9400FC9064E0120862906468
:10223800E0E0FCA3E0FDA3E0FEA3E0FF78041208C1
:10224800109064DEEEF0A3EFF09064DEE0FEA3E011
:01225800FF86
:012259002262
:102AF20090653712086E000000001220F8E4FCFD19
:102B0200906537120862E47F0CFEFDFC906537E0A9
:102B1200F8A3E0F9A3E0FAA3E0FB1206D4E47B0AEF
:062B2200FAF9F802075F5A
:1023830090652E12086E00000000906536E064022E
:10239300700302248E7F01122925122AF290652EE2
:1023A300120862906536E070587FEA7E0BFDFC9060
:1023B300652EE0F8A3E0F9A3E0FAA3E0FBC312075C
:0323C300FF503E8A
:1023C600E4906532F0F0122AF290652E120862E46B
:1023D6007FEA7E0BFDFC90652EE0F8A3E0F9A3E012
:1023E600FAA3E0FBD31207FF4006E4906536F0221D
:0E23F600906532E004F0E0C3940A40CA8062B1
:0B240400906536E06401600302248E46
:10240F0020110FD21190653B12086E0000000012D0
:10241F002C5FE47F307E75FDFC90653BE0F8A3E018
:0D242F00F9A3E0FAA3E0FBC31207FF40523F
:10243C00E4906532F0F0122AF290652E120862E4F4
:10244C007FEA7E0BFDFC90652EE0F8A3E0F9A3E09B
:10245C00FAA3E0FBD31207FF40079065367401F036
:10246C0022906532E004F0E0C3940A40C9906536CE
:10247C007402F0122C1890653B12086E00000000DC
:02248C00C2117B
:01248E00222B
:102B2800906536E07003021348906536E0B4010BF7
:102B3800906485740BF0A374B8F022906536E0B405
:0D2B4800020A9064857405F0A374DCF0228D
:102C3E007F021229251220F8906534EEF0A3EFF0F2
:012C4E002263
:0A0E3E0041654C0041654B00C112F4
:102BD10043A820D2AF75D10178957401F2187476AB
:0B2BE100F2789174A0F21874FDF2224B
:102C4F007890E2541FF2E244C0F243A820D2AF22A0
:102C04007890E2541FF2E244A0F27892E4F208F2DF
:042C140053A8DF22C0
:03001E000229E6CE
:1029E600C0E0C083C082C0D075D000C0007891E23C
:1029F60030E732E24480F290654CE004F090654B9B
:102A0600E004F0A3E0C394194002E4F090654BE0C3
:102A1600C3940D4004E4F0D21290648BE0C394FF9B
:102A26005003E004F0D000D0D0D082D083D0E03282
:070E480044653B00000000BF
:102A7800E5B154CF42B1789CE254E3F2E24414F257
:102A8800E254FCF2E24401F208E24480F2E244201B
:102A9800F278A1743BF2187460F2789EE4F208F2BE
:102AA800789CE2541FF2E244A0F253A8BFD2AF22AE
:102C5F00789CE2541FF2E244C0F243A840D2AF2264
:102C1800789CE2541FF2E244A0F2789EE4F208F2B3
:042C280053A8BF22CC
:0300210002299120
:10299100C0E0C0F0C083C082C0D075D000C000C00C
:1029A10004C005C006C007789DE230E723E24480F9
:1029B100F290653BE0FCA3E0FDA3E0FEA3E024016F
:1029C100FFE43EFEE43DFDE43CFC90653B12086201
:1029D100D007D006D005D004D000D0D0D082D0838B
:0529E100D0F0D0E0324F
:090E4F00C10CC10D42651A00003E
:102B790043A901D2AF75D104907105E4F0907104B5
:102B89007424F090710174A0F090710074FDF0222A
:0300240002178937
:10178900C0E0C0F0C083C082C0D075D000C000C026
:1017990001C002C003C004C005C006C007907101A2
:1017A900E020E703021A41E04480F0906517E00465
:1017B900F07006906516E004F0906519E004F07089
:1017C90006906518E004F090651BE004F07006903F
:1017D900651AE004F0C3906519E0940D906518E06E
:1017E90094004006E4F0A3F0D20DC3906517E0948D
:0F17F9000D906516E094004006E4F0A3F0D20CCA
:10180800208158906514E004F0E0C3941E50030250
:10181800197890650DE064176003021978906515D2
:10182800E09406401EE09414501990650EE0FCA365
:10183800E0FDA3E0FEA3E04401FFEC90650E120872
:1018480062800A906515E0C394014001E090651339
:101858007401F0906512E4F0021978906514E0D3F1
:1018680094005003021959E0D39432401790650E42
:1018780012086E0000000090650DE4F090651204F7
:10188800F002193E906512E0603E906514E0C39442
:10189800024035E094075030A3E0C394064029E0A5
:1018A8009414502490650EE0FCA3E0FDA3E0FEA391
:1018B800E04401FFEC90650E12086290650DE004AB
:1018C800F0E0641860708042906512E060559065A1
:1018D80014E0C39407404CE094145047A3E0C39429
:1018E800014040E09406503B90650EE0FCA3E0FD0B
:1018F800A3E0FEA3E054FEFFEC90650E1208629090
:10190800650DE004F0E06418602CA3E0FCA3E0FDA2
:10191800A3E0FEA3E0FF780112082390650E1208E9
:1019280062801390650E12086E0000000090650D2D
:10193800E4F0906512F0906514E4F0A3F090650D62
:10194800E0B418269065137401F0906512E4F080F5
:1019580019906512E0701390650E12086E00000071
:101968000090650DE4F0906512F0906515E004F0C4
:10197800906513E0602390650DE4F0906513F0A383
:10198800F0A3F090650EE0FCA3E0FDA3E0FEA3E069
:09199800FF90649D120862D20F59
:1019A100C390651BE0940590651AE0940050030212
:1019B1001A41E4F0A3F0301003021A41200A030295
:1019C1001A41906045E0FEA3E0FFD3906540E09F9F
:1019D10090653FE09E4010906046E004F0702B90CF
:1019E1006045E004F08023906045E0FEA3E0FFC382
:1019F100906540E09F90653FE09E500E906046E00C
:101A010024FFF0906045E034FFF0122C2CD390605D
:101A110046E09400906045E09400500F7818E2543D
:101A2100FEF290718CE4F0D2968015C3906045E08F
:101A31009400400C90718C740AF07818E24401F221
:101A4100D007D006D005D004D003D002D001D000F9
:0B1A5100D0D0D082D083D0F0D0E032A3
:070E58004265410000C113D7
:101C8C00E490654DF0A3F07F031229251220F89003
:101C9C00654DEEF0A3EFF0301303021E15D39065E3
:101CAC004EE094EA90654DE09401500AE490654151
:101CBC00F0A3F0021DC5D390654EE094DD90654D08
:101CCC00E094045030E0FEA3E0FFEF2416FFEE3466
:101CDC00FEFEE434FFFDE434FFFCE47BE07A2EF9F5
:101CEC00F81206D4E47B0AFAF9F812075FE47BDDFC
:101CFC007A04021DACD390654EE094EE90654DE0F5
:101D0C009408501DE0FEA3E0FF7C5D7DC012091B12
:101D1C00E47B0AFAF9F812075FE47BEE7A08021DFD
:101D2C00ACD390654EE0941290654DE0940B501C32
:101D3C00E0FEA3E0FF7C177D7012091BE47B02FA26
:101D4C00F9F812075FE47B127A0B8054D390654E3E
:101D5C00E094BC90654DE0940C501CE0FEA3E0FFB9
:101D6C007C8C7DA012091BE47B0AFAF9F812075F40
:101D7C00E47BBC7A0C8029D390654EE094919065FD
:101D8C004DE0940F5029E0FEA3E0FF7CBB7D801258
:101D9C00091BE47B0AFAF9F812075FE47B917A0FCE
:101DAC00F9F812075F906541EEF0A3EFF0800A900E
:101DBC0065417417F0A37470F0906485E0FEA3E0A5
:101DCC00FF906541E0FCA3E0FD12091BE47B707AF7
:101DDC0017F9F812075F90653FEEF0A3EFF0C39090
:101DEC006540E0943E90653FE09417400F90648509
:101DFC00E0FFA3E090653FCFF0A3EFF090653FE0EC
:101E0C007002A3E07014D21322C390654EE094DDEF
:0A1E1C0090654DE094044002C213EB
:011E26002299
:10248F006B6579203120636C69636B0A006B65792A
:10249F00203220636C69636B0A006B6579203320EF
:1024AF00636C69636B0A006B6579203420636C6918
:1024BF00636B0A006B6579203520636C69636B0A67
:1024CF00006B6579203620636C69636B0A006B655E
:1024DF0079203720636C69636B0A006B657920384C
:1024EF0020636C69636B0A006B6579203920636C1C
:1024FF0069636B0A006B657920313020636C696307
:10250F006B0A006B657920313120636C69636B0A4C
:10251F000070776D206368616E6E656C2030206986
:10252F00732064697361626C650A0070776D206354
:10253F0068616E6E656C203020697320656E616214
:10254F006C650A006B657920313220686F6C640A04
:01255F00007B
:100E5F00C10EC10F44649D00000000603C64A114EA
:100E6F0001020304180506070810090A0B0C150DDB
:100E7F000E0F100511121314081516171806191A4C
:100E8F001B1C091D1E1F2098212223249425262771
:100E9F002892292A2B2C912D2E2F3053648A320021
:100EAF00000000000A0D000000040001FF2AB80036
:010EBF000032
:102AB800300F34C20F90649DE0FCA3E0FDA3E0FE5C
:092AC800A3E0FFEC4D4E4F601B32
:102AD10090649DA3A3A3E09064DDF090649D12082F
:0B2AE1006E000000009064DDE0FF22AA
:062AEC007FFF227FFF22A4
:102A3600E49064DDF0FEEE75F005A424A1F582E4D1
:102A46003464F583E0B5071FEE75F005A424A1F5FF
:102A560082E43464F583E5822DF582E43583F583DB
:102A6600E09064DDF080050EEEB40CCA9064DDE003
:012A7600FF60
:012A7700223C
:101E270090649BE07003021F91E0FFA3E0FD122A7C
:101E370036E490649BF0A3F0EF1208EF1E6E011ECC
:101E470077051E80091E890D1E92111E9B151EA463
:101E5700191EAD1D1EB6211EBF251F0F291F172DC9
:101E67001F882F00001F917BFF7A24798F021F8E16
:101E77007BFF7A24799C021F8E7BFF7A2479A90243
:101E87001F8E7BFF7A2479B6021F8E7BFF7A247917
:101E9700C3021F8E7BFF7A2479D0021F8E7BFF7AC5
:101EA7002479DD021F8E7BFF7A2479EA021F8E7B5D
:101EB700FF7A2479F7021F8E7BFF7A257904120FA8
:101EC70030200A03021F91906485740BF0A374B845
:101ED700F0906485E0FEA3E0FF906541E0FCA3E09D
:101EE700FD12091BE47B707A17F9F812075F9065FA
:101EF7003FEEF0A3EFF090653FE0FFA3E090604571
:101F0700CFF0A3EFF0022C2C7BFF7A257912807794
:101F1700122CA5EF601DC20AE4906485F0A3F0902F
:101F27006045F0A3F0122C6F122C2C7BFF7A2579D9
:101F3700208054D20A9064857417F0A37470F090CF
:101F47006485E0FEA3E0FF906541E0FCA3E0FD129D
:101F5700091BE47B707A17F9F812075F90653FEE6B
:101F6700F0A3EFF090653FE0FFA3E0906045CFF06E
:101F7700A3EFF0122C2C122C8B7BFF7A25793A8059
:0A1F8700067BFF7A257953120F3014
:011F9100222D
:102B550078C0E24402F278C2E254F3F278D0E2445B
:102B650002F278D2E254F3F2209104D20E8002C22E
:032B75000ED20E6F
:012B7800223A
:040EC0004165460042
:101A5C00E49064DDF07FFFA374FFF0906543EBF03E
:101A6C00A3EAF0A3E9F0900001120640FE1206274B
:101A7C00FDEEC39D5003021C8B906543E0FBA3E07D
:101A8C00FAA3E0F9900001E41206B290000E1208DD
:101A9C00BF120915EFF460089065467423F08009B5
:101AAC00906546E06003E014F0906543E0FBA3E032
:101ABC00FAA3E0F99000031206406F601590000540
:101ACC00120640600D900004E41206B2900003026E
:101ADC001C87900005120640FE900004120640C3BD
:101AEC009E5013906543E0FBA3E0FAA3E0F990004D
:101AFC0004740102066D906543E0FBA3E0FAA3E0D9
:101B0C00F99000021206406F6077EFF4703090008D
:101B1C0006120640FE900008120640C39E400C9030
:101B2C0064DD7404F0900002021BC4906543E0FB7A
:101B3C00A3E0FAA3E0F990000A7401021C76906508
:101B4C0043E0FBA3E0FAA3E0F9900008740112064D
:101B5C00B290000C1206406F9065436017E0FBA337
:101B6C00E0FAA3E0F990000974011206B290000C9F
:101B7C00EF021C76E0FBA3E0FAA3E0F990000980E9
:101B8C004EEFF47052906543E0FBA3E0FAA3E0F94A
:101B9C00900009120640D394005003021C79900067
:101BAC000B120640FE90000A120640D39E40129083
:101BBC0064DD7401F090000C1206409064DEF0803D
:101BCC007E906543E0FBA3E0FAA3E0F990000A7471
:101BDC000112066D021C79906543E0FBA3E0FAA3A9
:101BEC00E0F9900008120640C394FF5008900008DA
:101BFC00740112066D900006120640FE9000081249
:101C0C000640B506089064DD7402F0802D906543A3
:101C1C00E0FBA3E0FAA3E0F9900007120640FE9067
:101C2C0000081206406E70459064DD7403F090005D
:101C3C00061206409000081206B29064DEEFF09097
:101C4C006543E0FBA3E0FAA3E0F9900009E4120677
:101C5C00B290000C74FF1206B29064DEE09000119A
:101C6C001206B29064DDE09000121206B290654349
:0F1C7C00E0FBA3E0FAA3E0F9900002EF1206B23A
:011C8B002236
:10002700020331E86480F8E933E83360110460F0D3
:10003700ED33EC337009E8FCE9FDEAFEEBFF22043F
:1000470060DED3EB9FEA9EE99DE8C2E78CF0C2F73A
:1000570095F0400CE8CCF8E9CDF9EACEFAEBCFFB06
:100067001202FC85D0F05804700320D5B3E8047061
:10007700075002B2D502033B92D5EC0460F7E4CCFB
:10008700C0E0C398F8603B94186008400DD0E0FBCF
:10009700020313E4FBFAC9FC8028E830E406E4C94C
:1000A700FBE4CAFCE830E305E4C9CACBFCE8540723
:1000B7006010F8C3E913F9EA13FAEB13FBEC13FC2E
:1000C700D8F130F52FC3E49CFCEF9BFFEE9AFEEDD1
:1000D70099FDD0E0FBEF4E4D4C701222DB0302037B
:1000E70038EC2CFCEF33FFEE33FEED33FDED30E75C
:1000F700EB020313EF2BFFEE3AFEED39FDD0E0FBE9
:1001070050130BBB000302033BED13FDEE13FEEF91
:0801170013FFEC13FC020313BB
:10011F00EC4D6011E8497017ED33EC3304600DE4DA
:10012F00FCFFFEFD22E933E8330470F802033112BD
:10013F0002FC58046009E4CC2481500628500902BF
:10014F00033B284003020338C0E0EB4A7044B980F8
:10015F0006D0E0FB020327EF4E701CBD8008EBFFBB
:10016F00EAFEE9FD80EBE98DF0A4FEE5F00202085E
:10017F00E9CDF9EAFEEBFFEF89F0A4FCE5F0CE89BB
:10018F00F0A42EFFE435F0CD89F0A42DFEE435F078
:10019F008067EF4E7005BD80D780C3EF8BF0A4ACA6
:1001AF00F0EE8BF0A42CFCE435F0F8EF8AF0A42CE1
:1001BF00E5F038FCE433CB8DF0A42CFCE5F03BF8F4
:1001CF00EE8AF0A42CFCE5F038F8E433CF89F0A4E4
:1001DF002CFCE5F038CF3400CE89F0A42FFFE5F0EA
:1001EF003EFEE433C98DF0A42EFEE5F039CD8AF042
:1001FF00A42FFFE5F03EFEE43DFD33D0E0FB5007BA
:10020F000BBB000F02033BEC2CFCEF33FFEE33FE76
:06021F00ED33FD020313A4
:1002250002033BEC5D046005E859047003020331E9
:100235001202FC580460F6EC4860F2EC7004FDFE16
:10024500FF22C860DB2481C85009C39860025006AC
:100255000203389850CAF582E9294B4A7005AB82EA
:1002650002032775F0007C1A7880C3EF9BEE9AEDA8
:1002750099400DC3EF9BFFEE9AFEED99FDE842F024
:10028500DC23ACF0D0E0FFD0E0FED0E0FDAB822077
:10029500E7101BEB60BAEC2CFCEF33FFEE33FEED01
:1002A50033FD020313E803F830E705C0F075F000ED
:1002B500EF2FFFEE33FEED33FD40B830E7C280AAE5
:1002C500EDD2E7CD33EC3392D524814006E4FFFE31
:1002D500FDFC22FCE4CFCECDCC24E0501174FF8090
:1002E500EDC3CC13CCCD13CDCE13CECF13CF04702D
:0702F500F030D5DE0207F135
:100EC500E50824E0F582E43464F583E00508229022
:100ED50064DD3007039064E0E475F00112089F02B9
:100EE50006272000E97F2ED2008018EF540F2490AA
:100EF500D43440D4FF30040BEF24BFB41A005003A0
:100F05002461FFE50960021509050CE50C70020571
:100F15000B30070E9064DDE475F00112089FEF02B7
:100F250006A0022CD37403D2078003E4C207F50898
:100F35009064DD1208B6E4F509F50BF50CE50960DA
:100F4500077F20120F0880F5750AFFC201C200C293
:100F550002C203C205C206C208120ED4FF700D30CC
:100F650007057F00120F19AF0CAE0B22B4255FC227
:100F7500D5C204120ED4FF24D0B40A00501A75F05D
:100F85000A780930D50508B6FF0106C6A426F6205D
:100F9500D5047002D20380D924CFB41A00EF5004CF
:100FA500C2E5D20402120BD20180C6D20080C0D2A3
:100FB5000280BCD2D580BAD20580B47F20120F083A
:100FC5002002077401B5090040F1120EC5FF120F8A
:100FD50008020F42D208D2068095120EC5FB120EEA
:100FE500C5FA120EC5F94A4B700679097A137BFFCB
:100FF50020022EE509602A7E008E82758300120686
:101005004060060EEE650A70F0C2D5EBC0E0EAC09E
:10101500E0E9C0E0EE12126CD0E0F9D0E0FAD0E0E1
:10102500FB120627FF60AAEBC0E0EAC0E0E9C0E0DA
:10103500120F08D0E02401F9D0E03400FAD0E0FB2B
:10104500E50A0460DCD50AD98087D20280A2121293
:101055004E60F7E50A700104120428A90A600DE53F
:101065000A600914F50A1212F6EF60F3EA30E70296
:10107500F404C3995079EAF4250A0430E701E4043D
:10108500F50A800D12124E60C1EA050A250A1204FE
:1010950028EA90650CF030E701E4250A04D50A0436
:1010A5002005011412126CE4C0E01212F690650CD2
:1010B500E0601320E70714F0120EF0802204F0D050
:1010C500E014C0E07F00120EF0E50A6007120EE79B
:1010D500150A800B300503120EE7D0E0020F42D04F
:1010E500E00480C412124E609EE50A0412042890A2
:1010F500650CEAF0E50A20050260010424041212D9
:011105006C7D
:1011060074FF04C0E01212F6120EF0E50A20050282
:101116006003120EE7D0E0B50AE87F45120EFA909A
:10112600650CE07F2B30E7047F2DF404C0E0120F3E
:1011360008D0E075F00A84C0F0120EF1D0E0120E6D
:10114600F1020F42791080027908C206C2088008AF
:10115600D2D5790A8004790AC2D5E50A047002F567
:101166000AE4FAFDFEFF120EC5FC7B0820011312ED
:101176000EC5FD7B1030000A120EC5FE120EC5FF0D
:101186007B20EC3382D592D55013C3E43000069F02
:10119600FFE49EFEE42001039DFDE49CFCE4CBF805
:1011A600C201EC700CCFCECDCCE824F8F870F380F9
:1011B60017C3EF33FFEE33FEED33FDEC33FCEB33B9
:1011C600FB994002FB0FD8E9EB300105F8D0E0C4EB
:1011D60048B201C0E00AEC4D4E4F78207B0070C249
:1011E600EAB50A0040BCC0E012126ED0F0D0E02092
:1011F6000104C4C0E0C4B201C0F0120EF1D0F0D5B3
:10120600F0EB020F421208EF0FDF53114A580FB0EE
:101216004C0FAC42114E4F1156441156490FC5435F
:10122600115C5510894610E9451053471329500F94
:10123600B42D0FB82E0FDB2B0FBC230FD9201312A2
:101246002A0F744800000FD3E50AB4FF03750A0697
:10125600120EC5FC120EC5FD120EC5FE120EC5FFFE
:10126600906505020465790AA2D5200314300509A4
:10127600B910020404B9080104A2D52006025001DF
:10128600042002689202B509005034C0E07F203085
:1012960003197F30A20272067205500F1212C5C2E0
:1012A60002C206C205C2087F30800F300503E9C0BE
:1012B600E0120F08300503D0E0F9D0E0B509CC30D4
:1012C60005177F30B9100C120F087F583004077FBE
:1012D600788003B90803120F083002057F2D020F2C
:1012E600087F202008F87F2B2006F322920280CF69
:1012F6007F00B40700500B2405F582E43465F583BE
:10130600E0FF22286E756C6C2900D201120EC530E2
:1013160001F8C201780930D50108F6020F742D5084
:10132600434958120EC52403B405004001E4901346
:101336002493120EF9743A120EF9D20375090402B7
:02134600114A4A
:101F920090651C120862E4FFFE7D807C3F90651C08
:101FA200E0F8A3E0F9A3E0FAA3E0FB1203607006F5
:101FB20090651C0220EC90651CE0FCA3E0FDA3E010
:101FC200FEA3E0FF120346FBA3E0FCA3E0FDA3E0B7
:101FD200FEA3E0FF120346FFB40108E4FFFE7D808A
:101FE2007C3F22EF64046029EB64046024EBB401BB
:101FF20030E4FFFEFDFC906520E0F8A3E0F9A3E0E9
:10200200FAA3E0FB12036060084006E4FFFEFDFC59
:102012002290652012086EFFFFFFFF9065200220CC
:10202200ECE4906524F0A3F0FFFEFDFC90651CE05B
:10203200F8A3E0F9A3E0FAA3E0FB120360505F907B
:102042006520E0FCA3E0FDA3E0FEA3E0FF1202C5D1
:10205200906524EEF0A3EFF0FDCCEECCEC1203EF92
:10206200C8ECC8C9EDC9CAEECACBEFCB906520E077
:10207200FCA3E0FDA3E0FEA3E0FF12002AE4FBFACA
:10208200F9F8120360708A90651CE0FCA3E0FDA3DE
:10209200E0FEA3E0FF1203D990651C12086290656E
:1020A2001CE0FCA3E0FDA3E0FEA3E0FF12228E9061
:1020B2006520E0F8A3E0F9A3E0FAA3E0FB12011F18
:1020C2001227BD906520120862906525E030E01766
:1020D200906520E0FCA3E0FDA3E0FEA3E0FF120375
:1020E200D9906520120862906520E0FCA3E0FDA370
:0620F200E0FEA3E0FF2266
:1002FC00E9D2E7C933E833F892D5EDD2E7CD33EC48
:07030C0033FC5002B2D522C0
:10031300EC30E7100FBF000C0EBE00080DBD00044B
:100323000BEB6014A2D5EB13FCED92E7FD2274FFF7
:10033300FCFDFEFF22E480F8A2D574FF13FC7D8050
:03034300E480EF64
:10034600ED33EC33601004700FED547F70057402CA
:0A03560092E0227404220422E42243
:1003600074F8CC6480CCC86480C8F58204604FC344
:10037000EB9FF5F0EA9E42F0E99D42F0E89C45F0E3
:10038000603C501DE5825FFFE582D313CB5BCBF46D
:100390002B5582FB50280ABA002409B90020088096
:1003A0001DE5825BFBE582D313CF5FCFF4C3132F30
:1003B0005582FF50090EBE00050DBD00010CC3EBB8
:1003C0009FF5F0EA9E42F0E99D42F0E89C45F0601E
:0903D00007CC4820E701B3EC2240
:1003D900ED33EC33600A047003BD8004ECB2E7FC32
:0103E90022F1
:1003EA0075F020800E75F010800575F0087D007E8E
:1003FA00007F003392D530D5031207F1EC33401059
:10040A00EF33FFEE33FEED33FDEC33FCD5F0ED2296
:0E041A00E5F0247EA2D513CC92E7CDCEFF22D2
:10042800F920E73624F950037907E4F42402FBE5C0
:1004380082158270021583DBF6E024FB501BE9600D
:1004480014E4F0E582158270021583E004F0B40A22
:0D04580008E4F0D9EE7401F00A22C2D522AA
:10046500ED33EC3392D5FA602AB4FF33EDC2E77B66
:10047500FF60067A04798AE4227A04799320D50408
:100485007A04798E224E614E002B494E46002D4945
:100495004E4600E47A08F0A3DAFC7B00740722C01C
:1004A50083C082ECC0E0EDC0E0EEC0E0EFC0E0EA62
:1004B50075F010A4CAABF075F04DA42BFBE435F034
:1004C500FCEA2410FAEB34C5FBEC34D9FCEDC2E7A9
:1004D500FF75F056A4F42411C5F0F434C58FF0A4CB
:1004E5002AE5F03BE43CF020E71412059AD0E0FF42
:1004F500D0E0FED0E0FDD0E0FC1202288014F40428
:1005050012059AD0E0FFD0E0FED0E0FDD0E0FC126D
:10051500011FD082D083E0FAEDD2E7CD33EC33244E
:1005250082FBE4C3CF33CFCE33CECD33CD33DBF334
:100535007B0775F00A846004F0A31B0AE5F0F0A3BD
:100545008FF0740AA4FFACF08EF0740AA42CFEACF4
:10055500F050010C8DF0740AA42CFDE435F0F0A3E5
:05056500DBDE7407223B
:1027850033DA929E35B16011377FE5FE39218489B0
:102795003AAEC3FF3C1D955B3D6358473E75FDF062
:1027A5003F3172183F800000C2D502033B0203315E
:1027B500BD80FA50F3020338ED33EC330460F17B4E
:1027C5003B7AAA79B8783F12011FED33EC3392D5E5
:1027D500247B5011A2D570DB500BED4480240450AE
:1027E50004A2D580CEEFFBEEFAEDF9ECF81202C5A6
:1027F500EFF582F404FC1203F412002EC082902738
:102805008574091205E9ED33CC33D0F092D525F066
:0A281500A2D57001C313CC13FD22FD
:10225A003E9248DA3ECCCCCD3F2AAAAB40000000E1
:10226A003F8000003F9837F03FB504F33FD744FC66
:10227A003E3172173EB172173F0515913EDE5BD9AA
:10228A00D2148002C214EDD2E7F8CD33EC330470D5
:10229A000BBD800592D502033B02033140FBD314E8
:1022AA0060F2F5F07C3FEE7A00C39496C8948B40B6
:1022BA00230AC89469C8941A401A0AC89468C89428
:1022CA001F40110AC8945AC89425400805F07A009C
:1022DA00CDC2E7CDC0F0906547120862EA2323C059
:1022EA00E0246AF582E43422F58312085212002EA1
:1022FA00ECC0E0EDC0E0EEC0E0EFC0E012083690BE
:10230A00654712084612002AD0E0FBD0E0FAD0E076
:10231A00F9D0E0B2E7F812022890654712086290F5
:10232A00225A74031205DA90654712084612011FF1
:10233A00D0E0600F2476F582E43422F58312085245
:10234A0012002E906547120862D0E0C3947FFDE424
:10235A009400FC1203EF7B187A727931783F1201EC
:10236A001F90654712084612002E30140B7BD97A4B
:09237A005B79DE783E12011F229E
:10056A003F8000004120000042C80000447A000099
:10057A00461C400047C35000497424004B1896801B
:10058A004CBEBC205A0E1BCA6753C21C749DC5AE12
:10059A00FB60065407601C23231205C8EB5438601D
:1005AA00091205B41205C312011FECF8EDF9EEFAAF
:1005BA00EFCB22EB1205C380F1543803241C9005BB
:1005CA006AFE93FC0EEE93FD0EEE930ECE93FF227F
:1005DA00C0E0EFFBEEFAEDF9ECF812011FD0E0F5FE
:1005EA00F0EFFBEEFAEDF9ECF8120836A3A3A3A399
:1005FA00E8C0E0E9C0E0EAC0E0EBC0E0C0F0120108
:10060A001F120852A3A3A3A312002ED0F0D0E0FB1E
:0D061A00D0E0FAD0E0F9D0E0F8D5F0D4221D
:10282B000228ABE493A3F8E493A34003F68001F2F0
:10283B0008DFF48029E493A3F85407240CC8C333AE
:10284B00C4540F4420C8834004F456800146F6DF7D
:10285B00E4800B010204081020408090096FE47E95
:10286B00019360BCA3FF543F30E509541FFEE49372
:10287B00A360010ECF54C025E060A840B8E493A339
:10288B00FAE493A3F8E493A3C8C582C8CAC583CA64
:10289B00F0A3C8C582C8CAC583CADFE9DEE780BE1C
:010EC400002D
:10062700BB010689828A83E0225002E722BBFE02D1
:09063700E32289828A83E4932204
:10064000BB010CE58229F582E5833AF583E022506F
:1006500006E92582F8E622BBFE06E92582F8E222B9
:0D066000E58229F582E5833AF583E49322D3
:10066D00BB010FF8E58229F582E5833AF583E02891
:10067D00F0225009C58229F8E58226F622BBFE0933
:10068D00C58229F8E22582F222F8EA2583F583E96D
:03069D009328227D
:1006A000BB010689828A83F0225002F722BBFE0139
:0206B000F32233
:1006B200F8BB010DE58229F582E5833AF583E8F07E
:1006C200225006E92582C8F622BBFE05E92582C82A
:0206D200F22212
:1006D400E88FF0A4CC8BF0A42CFCE98EF0A42CFCC5
:1006E4008AF0EDA42CFCEA8EF0A4CDA8F08BF0A443
:1006F4002DCC3825F0FDE98FF0A42CCD35F0FCEBA2
:100704008EF0A4FEA9F0EB8FF0A4CFC5F02ECD3966
:0F071400FEE43CFCEAA42DCE35F0FDE43CFC22D3
:1007230075F008758200EF2FFFEE33FECD33CDCC8D
:1007330033CCC58233C5829BED9AEC99E582984010
:100743000CF582EE9BFEED9AFDEC99FC0FD5F0D6ED
:10075300E4CEFBE4CDFAE4CCF9A88222B800C1B917
:100763000059BA002DEC8BF084CFCECDFCE5F0CB55
:10077300F97818EF2FFFEE33FEED33FDEC33FCEB8E
:1007830033FB10D703994004EB99FB0FD8E5E4F949
:10079300FA227818EF2FFFEE33FEED33FDEC33FC36
:1007A300C933C910D7059BE99A4007EC9BFCE99A2A
:1007B300F90FD8E0E4C9FAE4CCFB2275F010EF2F6F
:1007C300FFEE33FEED33FDCC33CCC833C810D7076F
:1007D3009BEC9AE899400AED9BFDEC9AFCE899F8AA
:0E07E3000FD5F0DAE4CDFBE4CCFAE4C8F9223D
:0E07F100C3E49FFFE49EFEE49DFDE49CFC2219
:1007FF00EB9FF5F0EA9E42F0E99D42F0E89C45F050
:01080F0022C6
:10081000E8600FECC313FCED13FDEE13FEEF13FFC6
:03082000D8F122EA
:10082300E8600FEFC333FFEE33FEED33FDEC33FC33
:03083300D8F122D7
:10083600E493FC740193FD740293FE740393FF2208
:0C084600E0F8A3E0F9A3E0FAA3E0FB2235
:10085200E493F8740193F9740293FA740393FB22FC
:0C086200ECF0A3EDF0A3EEF0A3EFF02209
:10086E00A8828583F0D083D0821208851208851263
:10087E000885120885E473E493A3C583C5F0C58388
:10088E00C8C582C8F0A3C583C5F0C583C8C582C8D4
:01089E002237
:10089F00F8E0FBA3A3E0F925F0F0E58215827002E2
:0708AF001583E0FA38F02286
:0908B600EBF0A3EAF0A3E9F02243
:1008BF00BB010DE58229F582E5833AF583020951E3
:1008CF005007E92582F8020948BBFE07E92582F89F
:1008DF0002095AE58229F582E5833AF58302096315
:1008EF00D083D082F8E4937012740193700DA3A398
:1008FF0093F8740193F5828883E4737402936860AC
:06090F00EFA3A3A380DFAB
:060915008A838982E4736D
:10091B00EC8EF0A4CCC5F0CCCDF8EFA4CEC5F02D69
:10092B00FDE43CFCE8A42EC8C5F03DFDE43CFCEF27
:0D093B00A4FFE5F028FEE43DFDE43CFC22B5
:09094800E6FB08E6FA08E6F922D4
:09095100E0FBA3E0FAA3E0F922A7
:09095A00E2FB08E2FA08E2F922CE
:0C096300E493FB740193FA740293F922F0
:00000001FF
