:03000000022830A3
:0C283000787FE4F6D8FD7581220228773D
:0C000300000000000000000000000000F1
:0B2D5400EF1FAC0670011E4C70F62251
:102C6100AB07AA06EB1BAE0270011A4E60097FAAE0
:082C71007E05122D5480ED22B6
:10257100907120E04480F07F057E00122D54E4FF2D
:10258100FE122C6175A75575AC589071327450F0DC
:102591009071307403F0907136742FF07F18EF242E
:1025A10066FDE434718D82F583E4F00FEFB433EE10
:1025B100904011E4935407FF90711CE054F84FF0E0
:1025C100904017E493547FFF90711DE054804FF0C9
:1025D100904010E493FF5401C43333335480FE9090
:1025E1007123E0547F4EF0EFC313543F4440FFA3E7
:1025F100E054804FF0904012E493FF540FFE90712D
:1026010046E054F04EF0EFC4540FFF90714FE05488
:10261100F04FF0904013E493543FFF907140E05429
:10262100C04FF0904014E493907126F0904015E46F
:0E26310093907128F0904016E49390712AF077
:01263F002278
:0B2D5F007379732072657365740A00BD
:07096F00446530428C0000DA
:082D6A00E5D430E4FB8FD72211
:102C2B0078C2E25403F2E24401F290717EE0440474
:0B2C3B00F075D60175D59F75D21022F0
:10264000C3906046E09470906045E09417400302A8
:1026500026D5E4FFFE7D807CBF906530E0F8A3E0E6
:10266000F9A3E0FAA3E0FB12002EE4FBFA79A878C4
:1026700042120228E4FBFA798078BF12002E90659E
:1026800034120862906530E0FCA3E0FDA3E0FEA3F5
:10269000E0FFE4FBFAF9783F12002E906530120853
:1026A00062906534E0FCA3E0FDA3E0FEA3E0FF90B0
:1026B000652A1208627F007E007DA07C40121E4BBE
:1026C000E4FBFA7970784212011F1202C59060454E
:1026D000EEF0A3EFF0C3906046E09470906045E0A8
:0C26E000941740077417F0A37470F022E8
:1028BC0075D9DD12257175D95590715EE054FEF015
:1028CC0075D9BB122C2B7BFF7A2D795F120F3A1224
:1028DC002C0E122C461226EC122B1A122BEE122B4B
:1028EC00CA9065537417F0A37470F0906045741718
:1028FC00F0A37470F090648E7417F0A37470F09061
:10290C00648EE0FEA3E0FF122CD4906045E0FFA3A0
:10291C00E0906485CFF0A3EFF0C210122CB312211B
:10292C0013122AD9122D72300EF17B017A6479922E
:08293C00121A46121C7680E31A
:1009760042648A177042648C1770426045000042D8
:10098600649000004264851770C18AC18B4260433F
:100996000000426481000042647F100041648900C7
:1009A60064386047000000000000000000000000FE
:1009B6000000000000000000000000000000000031
:1009C6000000000000000000000000000000000021
:1009D6000000000000000000000000000000000011
:1009E6000000000000000000000000000000000001
:100DD60000000000000000000000000042648300E4
:100DE6000060406000FFFF000000000000000000FF
:100DF60000000000000000000000000000000000ED
:100E060000000000000000000000000000000000DC
:100E160000000000000000000000000000000000CC
:100E26000000000000416040004160410041604216
:030E360000C109EF
:1026EC007812E24401F278567407F278277417F2E4
:1026FC0018746FF27833E4F218F27819E24401F2AC
:10270C007811E24401F27817E24401F27812E244C3
:10271C0001F27814E24401F27818E24401F278D321
:10272C00E254CFF2E24410F2E254FCF2E24401F241
:10273C0090718AE4F090718C740AF07812E2440281
:10274C00F278577407F278297417F218746FF278CC
:10275C0037E4F218F27819E24402F27811E24402FA
:10276C00F27817E24402F27812E24402F27814E2B0
:10277C004402F27818E24402F278D3E254F3F2E223
:0A278C004404F290718B7409F022EE
:102CA100906045E07833F2A3E018F27817E244012E
:022CB100F2220D
:102CC400AC06EC7837F218EFF27817E24402F222FD
:102CD400AC06EC7833F218EFF27817E24401F222F2
:102CE400AC06EC7837F218EFF27817E24402F222DD
:101352009064E512086E00000000906000E0F470F6
:0913620003A3E0F460030213F799
:10136B009064E9F0A3F09064E9E0FEA3E0FFC3947E
:10137B0020EE9400502E90653EE0FCA3E0FDEF259F
:10138B00E0FFEE33FE74002FF58274603EF583ECC4
:10139B00F0A3EDF09064EAE004F070CA9064E9E029
:1013AB0004F080C2E49064E9F0A3F09064E9E0FEFD
:1013BB00A3E0FFC3941CEE94024003021458906503
:1013CB003EE0FCA3E0FDEF25E0FFEE33FE74472F7C
:1013DB00F58274603EF583ECF0A3EDF09064EAE0E7
:0C13EB0004F070C79064E9E004F080BFDB
:1013F700906040E025E02400F582E43460F583E066
:10140700FFA3E09064E9CFF0A3EFF090653EE0FE24
:10141700A3E0FF9064EAE02FF09064E9E03EF0E09B
:10142700C313FEA3E013FF9064E9EEF0A3EFF0907F
:101437006040E025E02400F582E43460F583EEF0B7
:10144700A3EFF0906040E004F0E0C394204002E492
:01145700F0A4
:10145800E49064E9F0A3F09064E5E0F8A3E0F9A370
:10146800E0FAA3E0FB9064EAE025E0FF9064E9E09D
:1014780033FE74002FF58274603EF583E0FEA3E02E
:10148800FFE4FCFDEB2FFFEA3EFEED39FDEC38FCF6
:101498009064E51208629064EAE004F070069064D3
:1014A800E9E004F09064E9E07004A3E0642070A728
:1014B8009064E5E0FCA3E0FDA3E0FEA3E0FF78056F
:0914C8001208109064E51208629C
:1014D1009064E5A3A3E0FEA3E0FDAC06906484E084
:1014E10025E0FF906483E033FE74472FF58274603A
:1014F1003EF583ECF0A3EDF0906484E004F0700617
:10150100906483E004F0C3906484E0941C9064834D
:09151100E094024004E4F0A3F0B0
:10151A00E49064E9F0A3F0906481F0A3F090647F12
:10152A007410F0A3E4F09064E9E0FEA3E0FFC39432
:10153A001CEE940240030215FEEF25E0FFEE33FE97
:10154A0074472FF58274603EF583E0FCA3E0FD90BA
:10155A006481E0FAA3E0FBD3ED9BEC9A4016744752
:10156A002FF58274603EF583E0FFA3E0906481CF9B
:10157A00F0A3EFF09064EAE025E0FF9064E9E0333D
:10158A00FE74472FF58274603EF583E0FCA3E0FD0C
:10159A0090647FE0FAA3E0FBC3ED9BEC9A501674CB
:1015AA00472FF58274603EF583E0FFA3E090647FE5
:1015BA00CFF0A3EFF090647FE0FEA3E0FFC3906456
:1015CA0082E09FFF906481E09EFED3EF9450EE94F8
:1015DA00004008906489741EF08008906489E06075
:1015EA000214F09064EAE004F070069064E9E00402
:0415FA00F0021530B6
:1015FE00E47F8B7E06FDFC9064E5E0F8A3E0F9A3A2
:10160E00E0FAA3E0FBC31207FF50202009030216E5
:10161E00A9E47F8B7E06FDFC9064E5E0F8A3E0F97B
:10162E00A3E0FAA3E0FB1207FF4070E4906041F0E4
:10163E00A3F0D209906489E0FFB41E3214F0D39067
:10164E006486E094B8906485E0940B400CA3E0248B
:10165E00FFF0906485E034FFF0C3906486E094B8A8
:10166E00906485E0940B4003021792021732EF60EC
:10167E0003021792200C03021792C20CC3906486C9
:10168E00E09470906485E094174003021792A3E0F3
:10169E0004F07006906485E004F022E47FC37E05BA
:1016AE00FDFC9064E5E0F8A3E0F9A3E0FAA3E0FB0B
:1016BE00D31207FF4076E47F6D7E06FDFC9064E555
:1016CE00E0F8A3E0F9A3E0FAA3E0FBD31207FF4092
:1016DE0008906041E064047053200D03021792C21B
:1016EE000D906041E0C394045003E004F0E4906078
:1016FE0042F0C209D3906486E094B8906485E09479
:10170E000B40028069C3906486E094B8906485E0D3
:10171E00940B500DA3E004F07006906485E004F085
:10172E0022906485740BF0A374B8F022E47FC37E1C
:10173E0005FDFC9064E5E0F8A3E0F9A3E0FAA3E070
:10174E00FBD31207FF4006906042E06037300D3445
:10175E00C20D9060427401F0E4906041F0C209D372
:10176E00906486E09408906485E09407400DA3E0B1
:10177E0024FEF0906485E034FFF0229064857407B7
:04178E00F0A304F0D0
:011792002234
:032D7200C29422E6
:0C2D3C007818E230E0037F01227F0022C3
:0C2D48007818E230E1037F01227F0022B6
:0D2D22007818E24401F290718C740AF022DE
:0E000F007818E254FEF290718CE4F0D2962242
:0D2D2F007818E24402F290718B7409F022D2
:0E2D14007818E254FDF290718BE4F0D2952213
:102A5500906553E0FCA3E0FD12091BE47B707A1737
:102A6500F9F812075FAC06AD07D390648BE09D9033
:102A7500648AE09C5005E0FCA3E0FDD390648DE002
:102A85009D90648CE09C5005E0FCA3E0FDAE04AF96
:012A9500053B
:012A9600221D
:0F0E39004165400041653D00C11142653E00002A
:102C0E0078F2E24403F278E3E244C0F278F0E25460
:0D2C1E00FDF208E254FDF208E2440CF2223F
:1029440090653DE06F6064EFF0786AE24478F27578
:1029540091FFEF24FE601D146030240270469071D4
:1029640023E054F8F0E0441EF09071227407F075EF
:102974009918802A907123E054D8F0E0441DF09017
:1029840071227407F07599178014907123E054F83C
:10299400F0E0441EF09071227407F075991978697B
:0B29A400E24448F27F017E00122C612B
:0129AF002205
:101FB100E49064E7F0A3F0A3F09064EA12086E00E5
:101FC100000000E49064EEF0A3F074FF9064F0F080
:101FD100A3F0E49064E7F07869E24401F2786BE2FF
:101FE10030E1FAAF93EF75F010A4FFE594C4540FFC
:101FF100FDEF4DFF9064E8E5F0F0A3EFF07402F21D
:102001009064E7E0C39402406D9064EEE0FEA3E0CB
:10201100FFD39064E9E09F9064E8E09E400CE0FF0C
:10202100A3E09064EECFF0A3EFF09064F0E0FEA3A4
:10203100E0FFC39064E9E09F9064E8E09E500CE00B
:10204100FFA3E09064F0CFF0A3EFF09064EAE0F832
:10205100A3E0F9A3E0FAA3E0FB9064E8E0FEA3E0CB
:10206100FFE4FCFDEB2FFFEA3EFEED39FDEC38FC11
:102071009064EA1208629064E7E004F0E06414609E
:1020810003021FD89064EAE0FCA3E0FDA3E0FEA3F5
:10209100E0FFC006C0079064EEE0FEA3E0FBAA06E5
:1020A100D007D006C3EF9BFFEE9AFEED9400FDEC46
:1020B1009400FC9064EA1208629064EAE0FCA3E0F8
:1020C100FDA3E0FEA3E0FFC006C0079064F0E0FEC0
:1020D100A3E0FBAA06D007D006C3EF9BFFEE9AFE52
:1020E100ED9400FDEC9400FC9064EA1208629064A7
:1020F100EAE0FCA3E0FDA3E0FEA3E0FF7804120800
:10210100109064E8EEF0A3EFF09064E8E0FEA3E045
:01211100FFCE
:0121120022AA
:102B940090654112086E00000000121FB1E4FCFDB4
:102BA400906541120862E47F0CFEFDFC906541E0F3
:102BB400F8A3E0F9A3E0FAA3E0FB1206D4E47B0A4D
:062BC400FAF9F802075FB8
:1023940090653812086E00000000906540E0640209
:1023A400700302249F7F01122944122B94906538F4
:1023B400120862906540E070587FEA7E0BFDFC9045
:1023C4006538E0F8A3E0F9A3E0FAA3E0FBC3120741
:0323D400FF503E79
:1023D700E490653CF0F0122B94906538120862E4A3
:1023E7007FEA7E0BFDFC906538E0F8A3E0F9A3E0F7
:1023F700FAA3E0FBD31207FF4006E4906540F02202
:0E24070090653CE004F0E0C3940A40CA806295
:0B241500906540E06401600302249F1A
:1024200020110FD21190654512086E0000000012B5
:102430002D04E47F307E75FDFC906545E0F8A3E057
:0D244000F9A3E0FAA3E0FBC31207FF40522E
:10244D00E490653CF0F0122B94906538120862E42C
:10245D007FEA7E0BFDFC906538E0F8A3E0F9A3E080
:10246D00FAA3E0FBD31207FF40079065407401F01B
:10247D002290653CE004F0E0C3940A40C9906540A9
:10248D007402F0122C8D90654512086E000000004C
:02249D00C2116A
:01249F00221A
:102AD900906540E07003021352906540E0B401151F
:102AE900906485740BF0A374B8F090648A740BF049
:102AF900A374B8F022906540E0B402149064857420
:102B090005F0A374DCF090648A7405F0A374DCF01A
:012B19002299
:102CB3007F02122944121FB190653EEEF0A3EFF09C
:012CC30022EE
:0A0E48004165520041655100C112DE
:102C460043A820D2AF75D10178957401F218747635
:0B2C5600F2789174A0F21874FDF222D5
:102CF4007890E2541FF2E244C0F243A820D2AF22FB
:102C79007890E2541FF2E244A0F27892E4F208F26A
:042C890053A8DF224B
:03001E00022A05AE
:102A0500C0E0C083C082C0D075D000C0007891E21C
:102A150030E732E24480F2906552E004F09065516F
:102A2500E004F0A3E0C394194002E4F0906551E09E
:102A3500C3940D4004E4F0D212906493E0C394FF74
:102A45005003E004F0D000D0D0D082D083D0E03263
:070E520044654500000000AB
:102B1A00E5B154CF42B1789CE254E3F2E24414F2B4
:102B2A00E254FCF2E24401F208E24480F2E2442078
:102B3A00F278A1743BF2187460F2789EE4F208F21B
:102B4A00789CE2541FF2E244A0F253A8BFD2AF220B
:102D0400789CE2541FF2E244C0F243A840D2AF22BE
:102C8D00789CE2541FF2E244A0F2789EE4F208F23E
:042C9D0053A8BF2257
:030021000229B001
:1029B000C0E0C0F0C083C082C0D075D000C000C0ED
:1029C00004C005C006C007789DE230E723E24480DA
:1029D000F2906545E0FCA3E0FDA3E0FEA3E0240146
:1029E000FFE43EFEE43DFDE43CFC906545120862D8
:1029F000D007D006D005D004D000D0D0D082D0836C
:052A0000D0F0D0E0322F
:090E5900C10CC10D42652400002A
:102BEE0043A901D2AF75D104907105E4F090710440
:102BFE007424F090710174A0F090710074FDF022B5
:030024000217932D
:10179300C0E0C0F0C083C082C0D075D000C000C01C
:1017A30001C002C003C004C005C006C00790710198
:1017B300E020E703021A2BE04480F0906521E00467
:1017C300F07006906520E004F0906523E004F0706B
:1017D30006906522E004F0906525E004F070069021
:1017E3006524E004F0C3906523E0940D906522E046
:1017F30094004006E4F0A3F0D20DC3906521E09479
:0F1803000D906520E094004006E4F0A3F0D20CB5
:1018120020815890651EE004F0E0C3941E5003023C
:101822001982906517E06417600302198290651FA0
:10183200E09406401EE094145019906518E0FCA351
:10184200E0FDA3E0FEA3E04401FFEC90651812085E
:1018520062800A90651FE0C394014001E090651D1B
:101862007401F090651CE4F002198290651EE0D3C9
:1018720094005003021963E0D39432401790651824
:1018820012086E00000000906517E4F090651C04D9
:10189200F002194890651CE0603E90651EE0C3941A
:1018A200024035E094075030A3E0C394064029E09B
:1018B20094145024906518E0FCA3E0FDA3E0FEA37D
:1018C200E04401FFEC906518120862906517E0048D
:1018D200F0E064186070804290651CE0605590658D
:1018E2001EE0C39407404CE094145047A3E0C39415
:1018F200014040E09406503B906518E0FCA3E0FDF7
:10190200A3E0FEA3E054FEFFEC906518120862907B
:101912006517E004F0E06418602CA3E0FCA3E0FD8E
:10192200A3E0FEA3E0FF78011208239065181208D5
:1019320062801390651812086E000000009065170F
:10194200E4F090651CF090651EE4F0A3F09065173A
:10195200E0B4182690651D7401F090651CE4F080D7
:101962001990651CE0701390651812086E00000053
:1019720000906517E4F090651CF090651FE004F09C
:1019820090651DE06023906517E4F090651DF0A35B
:10199200F0A3F0906518E0FCA3E0FDA3E0FEA3E055
:0919A200FF9064A5120862D20F47
:1019AB00C3906525E09405906524E094004071E4B4
:1019BB00F0A3F020106A90648EE0FEA3E0FFD390BA
:1019CB006488E09F906487E09E401090648FE004F1
:1019DB00F0702B90648EE004F0802390648EE0FE18
:1019EB00A3E0FFC3906488E09F906487E09E500E55
:1019FB0090648FE024FFF090648EE034FFF09064ED
:101A0B008EE0FEA3E0FF122CD4D390648FE0940001
:101A1B0090648EE09400500512000F8003122D226B
:101A2B00D007D006D005D004D003D002D001D0000F
:0B1A3B00D0D0D082D083D0F0D0E032B9
:070E62004265530000C113BB
:10211300E49064E5F0A3F07F03122944121FB19009
:1021230064E5EEF0A3EFF0301303022259D3906479
:10213300E6E094EA9064E5E09401500AE490655384
:10214300F0A3F002224CD39064E6E094DD9064E5C2
:10215300E094045030E0FEA3E0FFEF2416FFEE34DA
:10216300FEFEE434FFFDE434FFFCE47BE07A2EF969
:10217300F81206D4E47B0AFAF9F812075FE47BDD70
:102183007A04022233D39064E6E094EE9064E5E0AF
:102193009408501DE0FEA3E0FF7C5D7DC012091B87
:1021A300E47B0AFAF9F812075FE47BEE7A0802226D
:1021B30033D39064E6E094129064E5E0940B501CF2
:1021C300E0FEA3E0FF7C177D7012091BE47B02FA9B
:1021D300F9F812075FE47B127A0B8054D39064E61C
:1021E300E094BC9064E5E0940C501CE0FEA3E0FF97
:1021F3007C8C7DA012091BE47B0AFAF9F812075FB5
:10220300E47BBC7A0C8029D39064E6E094919064DB
:10221300E5E0940F5029E0FEA3E0FF7CBB7D801234
:10222300091BE47B0AFAF9F812075FE47B917A0F42
:10223300F9F812075F906553EEF0A3EFF0800A9070
:1022430065537417F0A37470F0906553E07002A3A4
:10225300E07014D21322C39064E6E094DD9064E549
:07226300E094044002C213E5
:01226A002251
:1024A0006B6579203120636C69636B0A006B657919
:1024B000203220636C69636B0A006B6579203320DE
:1024C000636C69636B0A006B6579203420636C6907
:1024D000636B0A006B6579203520636C69636B0A56
:1024E000006B6579203620636C69636B0A006B654D
:1024F00079203720636C69636B0A006B657920383B
:1025000020636C69636B0A006B6579203920636C0A
:1025100069636B0A006B657920313020636C6963F5
:102520006B0A006B657920313120636C69636B0A3B
:102530000070776D206368616E6E656C2030206975
:10254000732064697361626C650A0070776D206343
:1025500068616E6E656C203020697320656E616203
:102560006C650A006B657920313220686F6C640AF3
:01257000006A
:100E6900C10EC10F4464A500000000603C64A914D0
:100E790001020304180506070810090A0B0C150DD1
:100E89000E0F100511121314081516171806191A42
:100E99001B1C091D1E1F2098212223249425262767
:100EA9002892292A2B2C912D2E2F3053649232000F
:100EB900000000000A0D000000040001FF2B5A0089
:010EC9000028
:102B5A00300F34C20F9064A5E0FCA3E0FDA3E0FEB1
:092B6A00A3E0FFEC4D4E4F601B8F
:102B73009064A5A3A3A3E09064E5F09064A5120874
:0B2B83006E000000009064E5E0FF22FF
:062B8E007FFF227FFF2201
:102A9700E49064E7F0FEEE75F005A424A9F582E45E
:102AA7003464F583E0B5071FEE75F005A424A9F596
:102AB70082E43464F583E5822DF582E43583F5837A
:102AC700E09064E7F080050EEEB40CCA9064E7E08E
:012AD700FFFF
:012AD80022DB
:101C76009064A3E07003021E4AE0FFA3E0FD122A6F
:101C860097E49064A3F0A3F0EF1208EF1CBD011CCB
:101C9600C6051CCF091CD80D1CE1111CEA151CF346
:101CA600191CFC1D1D05211D47251D82291DD42D2E
:101CB6001E412F00001E4A7BFF7A2479A0021E4790
:101CC6007BFF7A2479AD021E477BFF7A2479BA021C
:101CD6001E477BFF7A2479C7021E477BFF7A247949
:101CE600D4021E477BFF7A2479E1021E477BFF7AE6
:101CF6002479EE021E477BFF7A2479FB021E477B7E
:101D0600FF7A257908120F3A122D3CEF7003021E56
:011D16004A82
:101D1700906487E0FFA3E09064E5CFF0A3EFF0C302
:101D2700906488E09470906487E094174003021EE3
:0E1D37004A9064E6E0242CF09064E5E034016C
:101D4500807B7BFF7A257915120F3A122D3CEF70B7
:101D550003021E4A7FB87E0B122A55906487EEF067
:101D6500A3EFF0906487E0FFA3E090648ECFF0A32B
:101D7500EFF0906487E0FEA3E0FF022CD47BFF7AAE
:0F1D8500257923120F3A122D3CEF7003021E4AEC
:101D9400906487E0FFA3E09064E5CFF0A3EFF0D375
:101DA400906488E0942C906487E094015003021EB0
:101DB4004A9064E6E024D4F09064E5E034FEF0E078
:0F1DC400FEA3E0FF122A55906487EEF0A3EFF024
:101DD30022122D3CEF6033E4FFFE122A55906487F4
:101DE300EEF0A3EFF0906487E0FFA3E090648ECF62
:101DF300F0A3EFF0906487E0FEA3E0FF122CD4126F
:101E0300000F7BFF7A257931803A7F707E17122A83
:101E130055906487EEF0A3EFF0906487E0FFA3E0B2
:101E230090648ECFF0A3EFF0906487E0FEA3E0FF11
:101E3300122CD4122D227BFF7A25794B80067BFF4F
:071E43007A257964120F3AC1
:011E4A002275
:102BCA0078C0E24402F278C2E254F3F278D0E244E6
:102BDA0002F278D2E254F3F2209104D20E8002C2B9
:042BEA000ED20E22D7
:040ECA0041654C0032
:101A4600E49064E5F07FFFA374FFF0906549EBF046
:101A5600A3EAF0A3E9F0900001120640FE12062761
:101A6600FDEEC39D5003021C75906549E0FBA3E0A3
:101A7600FAA3E0F9900001E41206B290000E1208F3
:101A8600BF120915EFF4600890654C7423F08009C5
:101A960090654CE06003E014F0906549E0FBA3E03C
:101AA600FAA3E0F99000031206406F601590000556
:101AB600120640600D900004E41206B29000030284
:101AC6001C71900005120640FE900004120640C3E9
:101AD6009E5013906549E0FBA3E0FAA3E0F990005D
:101AE60004740102066D906549E0FBA3E0FAA3E0E9
:101AF600F99000021206406F6077EFF470309000A4
:101B060006120640FE900008120640C39E400C9046
:101B160064E57404F0900002021BAE906549E0FB98
:101B2600A3E0FAA3E0F990000A7401021C60906534
:101B360049E0FBA3E0FAA3E0F9900008740112065D
:101B4600B290000C1206406F9065496017E0FBA347
:101B5600E0FAA3E0F990000974011206B290000CB5
:101B6600EF021C60E0FBA3E0FAA3E0F99000098015
:101B76004EEFF47052906549E0FBA3E0FAA3E0F95A
:101B8600900009120640D394005003021C63900093
:101B96000B120640FE90000A120640D39E40129099
:101BA60064E57401F090000C1206409064E6F08043
:101BB6007E906549E0FBA3E0FAA3E0F990000A7481
:101BC6000112066D021C63906549E0FBA3E0FAA3CF
:101BD600E0F9900008120640C394FF5008900008F0
:101BE600740112066D900006120640FE900008125F
:101BF6000640B506089064E57402F0802D906549AC
:101C0600E0FBA3E0FAA3E0F9900007120640FE907D
:101C160000081206406E70459064E57403F090006B
:101C2600061206409000081206B29064E6EFF090A5
:101C36006549E0FBA3E0FAA3E0F9900009E4120687
:101C4600B290000C74FF1206B29064E6E0900011A8
:101C56001206B29064E5E09000121206B290654951
:0F1C6600E0FBA3E0FAA3E0F9900002EF1206B250
:011C7500224C
:10002700020331E86480F8E933E83360110460F0D3
:10003700ED33EC337009E8FCE9FDEAFEEBFF22043F
:1000470060DED3EB9FEA9EE99DE8C2E78CF0C2F73A
:1000570095F0400CE8CCF8E9CDF9EACEFAEBCFFB06
:100067001202FC85D0F05804700320D5B3E8047061
:10007700075002B2D502033B92D5EC0460F7E4CCFB
:10008700C0E0C398F8603B94186008400DD0E0FBCF
:10009700020313E4FBFAC9FC8028E830E406E4C94C
:1000A700FBE4CAFCE830E305E4C9CACBFCE8540723
:1000B7006010F8C3E913F9EA13FAEB13FBEC13FC2E
:1000C700D8F130F52FC3E49CFCEF9BFFEE9AFEEDD1
:1000D70099FDD0E0FBEF4E4D4C701222DB0302037B
:1000E70038EC2CFCEF33FFEE33FEED33FDED30E75C
:1000F700EB020313EF2BFFEE3AFEED39FDD0E0FBE9
:1001070050130BBB000302033BED13FDEE13FEEF91
:0801170013FFEC13FC020313BB
:10011F00EC4D6011E8497017ED33EC3304600DE4DA
:10012F00FCFFFEFD22E933E8330470F802033112BD
:10013F0002FC58046009E4CC2481500628500902BF
:10014F00033B284003020338C0E0EB4A7044B980F8
:10015F0006D0E0FB020327EF4E701CBD8008EBFFBB
:10016F00EAFEE9FD80EBE98DF0A4FEE5F00202085E
:10017F00E9CDF9EAFEEBFFEF89F0A4FCE5F0CE89BB
:10018F00F0A42EFFE435F0CD89F0A42DFEE435F078
:10019F008067EF4E7005BD80D780C3EF8BF0A4ACA6
:1001AF00F0EE8BF0A42CFCE435F0F8EF8AF0A42CE1
:1001BF00E5F038FCE433CB8DF0A42CFCE5F03BF8F4
:1001CF00EE8AF0A42CFCE5F038F8E433CF89F0A4E4
:1001DF002CFCE5F038CF3400CE89F0A42FFFE5F0EA
:1001EF003EFEE433C98DF0A42EFEE5F039CD8AF042
:1001FF00A42FFFE5F03EFEE43DFD33D0E0FB5007BA
:10020F000BBB000F02033BEC2CFCEF33FFEE33FE76
:06021F00ED33FD020313A4
:1002250002033BEC5D046005E859047003020331E9
:100235001202FC580460F6EC4860F2EC7004FDFE16
:10024500FF22C860DB2481C85009C39860025006AC
:100255000203389850CAF582E9294B4A7005AB82EA
:1002650002032775F0007C1A7880C3EF9BEE9AEDA8
:1002750099400DC3EF9BFFEE9AFEED99FDE842F024
:10028500DC23ACF0D0E0FFD0E0FED0E0FDAB822077
:10029500E7101BEB60BAEC2CFCEF33FFEE33FEED01
:1002A50033FD020313E803F830E705C0F075F000ED
:1002B500EF2FFFEE33FEED33FD40B830E7C280AAE5
:1002C500EDD2E7CD33EC3392D524814006E4FFFE31
:1002D500FDFC22FCE4CFCECDCC24E0501174FF8090
:1002E500EDC3CC13CCCD13CDCE13CECF13CF04702D
:0702F500F030D5DE0207F135
:100ECF00E50824EAF582E43464F583E0050822900E
:100EDF0064E73007039064EAE475F00112089F029B
:100EEF0006272000E97F2ED2008018EF540F2490A0
:100EFF00D43440D4FF30040BEF24BFB41A00500396
:100F0F002461FFE50960021509050CE50C70020567
:100F1F000B30070E9064E7E475F00112089FEF02A3
:100F2F0006A0022D6A7403D2078003E4C207F508F6
:100F3F009064E71208B6E4F509F50BF50CE50960C6
:100F4F00077F20120F1280F5750AFFC201C200C27F
:100F5F0002C203C205C206C208120EDEFF700D30B8
:100F6F0007057F00120F23AF0CAE0B22B4255FC213
:100F7F00D5C204120EDEFF24D0B40A00501A75F049
:100F8F000A780930D50508B6FF0106C6A426F62053
:100F9F00D5047002D20380D924CFB41A00EF5004C5
:100FAF00C2E5D204021215D20180C6D20080C0D28F
:100FBF000280BCD2D580BAD20580B47F20120F1226
:100FCF002002077401B5090040F1120ECFFF120F76
:100FDF0012020F4CD208D2068095120ECFFB120EC2
:100FEF00CFFA120ECFF94A4B700679137A137BFFA3
:100FFF0020022EE509602A7E008E8275830012067C
:10100F004060060EEE650A70F0C2D5EBC0E0EAC094
:10101F00E0E9C0E0EE121276D0E0F9D0E0FAD0E0CD
:10102F00FB120627FF60AAEBC0E0EAC0E0E9C0E0D0
:10103F00120F12D0E02401F9D0E03400FAD0E0FB17
:10104F00E50A0460DCD50AD98087D20280A2121289
:10105F005860F7E50A700104120428A90A600DE52B
:10106F000A600914F50A121300EF60F3EA30E70281
:10107F00F404C3995079EAF4250A0430E701E40433
:10108F00F50A800D12125860C1EA050A250A1204EA
:10109F0028EA906516F030E701E4250A04D50A0422
:1010AF0020050114121276E4C0E0121300906516A9
:1010BF00E0601320E70714F0120EFA802204F0D03C
:1010CF00E014C0E07F00120EFAE50A6007120EF17D
:1010DF00150A800B300503120EF1D0E0020F4CD031
:1010EF00E00480C4121258609EE50A04120428908E
:1010FF006516EAF0E50A20050260010424041212C5
:01110F007669
:1011100074FF04C0E0121300120EFAE50A20050263
:101120006003120EF1D0E0B50AE87F45120F04907B
:101130006516E07F2B30E7047F2DF404C0E0120F2A
:1011400012D0E075F00A84C0F0120EFBD0E0120E4F
:10115000FB020F4C791080027908C206C208800891
:10116000D2D5790A8004790AC2D5E50A047002F55D
:101170000AE4FAFDFEFF120ECFFC7B0820011312D9
:101180000ECFFD7B1030000A120ECFFE120ECFFFE5
:101190007B20EC3382D592D55013C3E43000069FF8
:1011A000FFE49EFEE42001039DFDE49CFCE4CBF8FB
:1011B000C201EC700CCFCECDCCE824F8F870F380EF
:1011C00017C3EF33FFEE33FEED33FDEC33FCEB33AF
:1011D000FB994002FB0FD8E9EB300105F8D0E0C4E1
:1011E00048B201C0E00AEC4D4E4F78207B0070C23F
:1011F000EAB50A0040BCC0E0121278D0F0D0E0207E
:101200000104C4C0E0C4B201C0F0120EFBD0F0D59E
:10121000F0EB020F4C1208EF0FE9531154580FBABC
:101220004C0FB64211584F1160441160490FCF4323
:1012300011665510934610F345105D471333500F58
:10124000BE2D0FC22E0FE52B0FC6230FE320131C5C
:101250002A0F7E4800000FDDE50AB4FF03750A0679
:10126000120ECFFC120ECFFD120ECFFE120ECFFFCC
:1012700090650F020465790AA2D520031430050990
:10128000B910020404B9080104A2D52006025001D5
:10129000042002689202B509005034C0E07F20307B
:1012A00003197F30A20272067205500F1212CFC2CC
:1012B00002C206C205C2087F30800F300503E9C0B4
:1012C000E0120F12300503D0E0F9D0E0B509CC30C0
:1012D00005177F30B9100C120F127F583004077FAA
:1012E000788003B90803120F123002057F2D020F18
:1012F000127F202008F87F2B2006F322920280CF55
:101300007F00B40700500B240FF582E43465F583A9
:10131000E0FF22286E756C6C2900D201120ECF30CE
:1013200001F8C201780930D50108F6020F7E2D5070
:10133000434958120ECF2403B405004001E4901332
:101340002E93120F03743A120F03D203750904028D
:02135000115436
:101E4B00906526120862E4FFFE7D807C3F9065263C
:101E5B00E0F8A3E0F9A3E0FAA3E0FB12036070063D
:101E6B00906526021FA5906526E0FCA3E0FDA3E08C
:101E7B00FEA3E0FF120346FBA3E0FCA3E0FDA3E0FF
:101E8B00FEA3E0FF120346FFB40108E4FFFE7D80D2
:101E9B007C3F22EF64046029EB64046024EBB40103
:101EAB0030E4FFFEFDFC90652AE0F8A3E0F9A3E027
:101EBB00FAA3E0FB12036060084006E4FFFEFDFCA2
:101ECB002290652A12086EFFFFFFFF90652A021F02
:101EDB00A5E490652EF0A3F0FFFEFDFC906526E0D7
:101EEB00F8A3E0F9A3E0FAA3E0FB120360505F90C4
:101EFB00652AE0FCA3E0FDA3E0FEA3E0FF1202C510
:101F0B0090652EEEF0A3EFF0FDCCEECCEC1203EFD0
:101F1B00C8ECC8C9EDC9CAEECACBEFCB90652AE0B5
:101F2B00FCA3E0FDA3E0FEA3E0FF12002AE4FBFA12
:101F3B00F9F8120360708A906526E0FCA3E0FDA31C
:101F4B00E0FEA3E0FF1203D99065261208629065AC
:101F5B0026E0FCA3E0FDA3E0FEA3E0FF12229F908E
:101F6B00652AE0F8A3E0F9A3E0FAA3E0FB12011F56
:101F7B001227CE90652A12086290652FE030E01789
:101F8B0090652AE0FCA3E0FDA3E0FEA3E0FF1203B3
:101F9B00D990652A12086290652AE0FCA3E0FDA3A4
:061FAB00E0FEA3E0FF22AE
:1002FC00E9D2E7C933E833F892D5EDD2E7CD33EC48
:07030C0033FC5002B2D522C0
:10031300EC30E7100FBF000C0EBE00080DBD00044B
:100323000BEB6014A2D5EB13FCED92E7FD2274FFF7
:10033300FCFDFEFF22E480F8A2D574FF13FC7D8050
:03034300E480EF64
:10034600ED33EC33601004700FED547F70057402CA
:0A03560092E0227404220422E42243
:1003600074F8CC6480CCC86480C8F58204604FC344
:10037000EB9FF5F0EA9E42F0E99D42F0E89C45F0E3
:10038000603C501DE5825FFFE582D313CB5BCBF46D
:100390002B5582FB50280ABA002409B90020088096
:1003A0001DE5825BFBE582D313CF5FCFF4C3132F30
:1003B0005582FF50090EBE00050DBD00010CC3EBB8
:1003C0009FF5F0EA9E42F0E99D42F0E89C45F0601E
:0903D00007CC4820E701B3EC2240
:1003D900ED33EC33600A047003BD8004ECB2E7FC32
:0103E90022F1
:1003EA0075F020800E75F010800575F0087D007E8E
:1003FA00007F003392D530D5031207F1EC33401059
:10040A00EF33FFEE33FEED33FDEC33FCD5F0ED2296
:0E041A00E5F0247EA2D513CC92E7CDCEFF22D2
:10042800F920E73624F950037907E4F42402FBE5C0
:1004380082158270021583DBF6E024FB501BE9600D
:1004480014E4F0E582158270021583E004F0B40A22
:0D04580008E4F0D9EE7401F00A22C2D522AA
:10046500ED33EC3392D5FA602AB4FF33EDC2E77B66
:10047500FF60067A04798AE4227A04799320D50408
:100485007A04798E224E614E002B494E46002D4945
:100495004E4600E47A08F0A3DAFC7B00740722C01C
:1004A50083C082ECC0E0EDC0E0EEC0E0EFC0E0EA62
:1004B50075F010A4CAABF075F04DA42BFBE435F034
:1004C500FCEA2410FAEB34C5FBEC34D9FCEDC2E7A9
:1004D500FF75F056A4F42411C5F0F434C58FF0A4CB
:1004E5002AE5F03BE43CF020E71412059AD0E0FF42
:1004F500D0E0FED0E0FDD0E0FC1202288014F40428
:1005050012059AD0E0FFD0E0FED0E0FDD0E0FC126D
:10051500011FD082D083E0FAEDD2E7CD33EC33244E
:1005250082FBE4C3CF33CFCE33CECD33CD33DBF334
:100535007B0775F00A846004F0A31B0AE5F0F0A3BD
:100545008FF0740AA4FFACF08EF0740AA42CFEACF4
:10055500F050010C8DF0740AA42CFDE435F0F0A3E5
:05056500DBDE7407223B
:1027960033DA929E35B16011377FE5FE392184899F
:1027A6003AAEC3FF3C1D955B3D6358473E75FDF051
:1027B6003F3172183F800000C2D502033B0203314D
:1027C600BD80FA50F3020338ED33EC330460F17B3D
:1027D6003B7AAA79B8783F12011FED33EC3392D5D4
:1027E600247B5011A2D570DB500BED44802404509D
:1027F60004A2D580CEEFFBEEFAEDF9ECF81202C595
:10280600EFF582F404FC1203F412002EC082902726
:102816009674091205E9ED33CC33D0F092D525F044
:0A282600A2D57001C313CC13FD22EC
:10226B003E9248DA3ECCCCCD3F2AAAAB40000000D0
:10227B003F8000003F9837F03FB504F33FD744FC55
:10228B003E3172173EB172173F0515913EDE5BD999
:10229B00D2148002C214EDD2E7F8CD33EC330470C4
:1022AB000BBD800592D502033B02033140FBD314D7
:1022BB0060F2F5F07C3FEE7A00C39496C8948B40A5
:1022CB00230AC89469C8941A401A0AC89468C89417
:1022DB001F40110AC8945AC89425400805F07A008B
:1022EB00CDC2E7CDC0F090654D120862EA2323C042
:1022FB00E0247BF582E43422F58312085212002E7F
:10230B00ECC0E0EDC0E0EEC0E0EFC0E012083690AC
:10231B00654D12084612002AD0E0FBD0E0FAD0E05F
:10232B00F9D0E0B2E7F812022890654D12086290DE
:10233B00226B74031205DA90654D12084612011FC9
:10234B00D0E0600F2487F582E43422F58312085223
:10235B0012002E90654D120862D0E0C3947FFDE40D
:10236B009400FC1203EF7B187A727931783F1201DB
:10237B001F90654D12084612002E30140B7BD97A34
:09238B005B79DE783E12011F228D
:10056A003F8000004120000042C80000447A000099
:10057A00461C400047C35000497424004B1896801B
:10058A004CBEBC205A0E1BCA6753C21C749DC5AE12
:10059A00FB60065407601C23231205C8EB5438601D
:1005AA00091205B41205C312011FECF8EDF9EEFAAF
:1005BA00EFCB22EB1205C380F1543803241C9005BB
:1005CA006AFE93FC0EEE93FD0EEE930ECE93FF227F
:1005DA00C0E0EFFBEEFAEDF9ECF812011FD0E0F5FE
:1005EA00F0EFFBEEFAEDF9ECF8120836A3A3A3A399
:1005FA00E8C0E0E9C0E0EAC0E0EBC0E0C0F0120108
:10060A001F120852A3A3A3A312002ED0F0D0E0FB1E
:0D061A00D0E0FAD0E0F9D0E0F8D5F0D4221D
:10283C000228BCE493A3F8E493A34003F68001F2CE
:10284C0008DFF48029E493A3F85407240CC8C3339D
:10285C00C4540F4420C8834004F456800146F6DF6C
:10286C00E4800B010204081020408090096FE47E84
:10287C00019360BCA3FF543F30E509541FFEE49361
:10288C00A360010ECF54C025E060A840B8E493A328
:10289C00FAE493A3F8E493A3C8C582C8CAC583CA53
:1028AC00F0A3C8C582C8CAC583CADFE9DEE780BE0B
:010ECE000023
:10062700BB010689828A83E0225002E722BBFE02D1
:09063700E32289828A83E4932204
:10064000BB010CE58229F582E5833AF583E022506F
:1006500006E92582F8E622BBFE06E92582F8E222B9
:0D066000E58229F582E5833AF583E49322D3
:10066D00BB010FF8E58229F582E5833AF583E02891
:10067D00F0225009C58229F8E58226F622BBFE0933
:10068D00C58229F8E22582F222F8EA2583F583E96D
:03069D009328227D
:1006A000BB010689828A83F0225002F722BBFE0139
:0206B000F32233
:1006B200F8BB010DE58229F582E5833AF583E8F07E
:1006C200225006E92582C8F622BBFE05E92582C82A
:0206D200F22212
:1006D400E88FF0A4CC8BF0A42CFCE98EF0A42CFCC5
:1006E4008AF0EDA42CFCEA8EF0A4CDA8F08BF0A443
:1006F4002DCC3825F0FDE98FF0A42CCD35F0FCEBA2
:100704008EF0A4FEA9F0EB8FF0A4CFC5F02ECD3966
:0F071400FEE43CFCEAA42DCE35F0FDE43CFC22D3
:1007230075F008758200EF2FFFEE33FECD33CDCC8D
:1007330033CCC58233C5829BED9AEC99E582984010
:100743000CF582EE9BFEED9AFDEC99FC0FD5F0D6ED
:10075300E4CEFBE4CDFAE4CCF9A88222B800C1B917
:100763000059BA002DEC8BF084CFCECDFCE5F0CB55
:10077300F97818EF2FFFEE33FEED33FDEC33FCEB8E
:1007830033FB10D703994004EB99FB0FD8E5E4F949
:10079300FA227818EF2FFFEE33FEED33FDEC33FC36
:1007A300C933C910D7059BE99A4007EC9BFCE99A2A
:1007B300F90FD8E0E4C9FAE4CCFB2275F010EF2F6F
:1007C300FFEE33FEED33FDCC33CCC833C810D7076F
:1007D3009BEC9AE899400AED9BFDEC9AFCE899F8AA
:0E07E3000FD5F0DAE4CDFBE4CCFAE4C8F9223D
:0E07F100C3E49FFFE49EFEE49DFDE49CFC2219
:1007FF00EB9FF5F0EA9E42F0E99D42F0E89C45F050
:01080F0022C6
:10081000E8600FECC313FCED13FDEE13FEEF13FFC6
:03082000D8F122EA
:10082300E8600FEFC333FFEE33FEED33FDEC33FC33
:03083300D8F122D7
:10083600E493FC740193FD740293FE740393FF2208
:0C084600E0F8A3E0F9A3E0FAA3E0FB2235
:10085200E493F8740193F9740293FA740393FB22FC
:0C086200ECF0A3EDF0A3EEF0A3EFF02209
:10086E00A8828583F0D083D0821208851208851263
:10087E000885120885E473E493A3C583C5F0C58388
:10088E00C8C582C8F0A3C583C5F0C583C8C582C8D4
:01089E002237
:10089F00F8E0FBA3A3E0F925F0F0E58215827002E2
:0708AF001583E0FA38F02286
:0908B600EBF0A3EAF0A3E9F02243
:1008BF00BB010DE58229F582E5833AF583020951E3
:1008CF005007E92582F8020948BBFE07E92582F89F
:1008DF0002095AE58229F582E5833AF58302096315
:1008EF00D083D082F8E4937012740193700DA3A398
:1008FF0093F8740193F5828883E4737402936860AC
:06090F00EFA3A3A380DFAB
:060915008A838982E4736D
:10091B00EC8EF0A4CCC5F0CCCDF8EFA4CEC5F02D69
:10092B00FDE43CFCE8A42EC8C5F03DFDE43CFCEF27
:0D093B00A4FFE5F028FEE43DFDE43CFC22B5
:09094800E6FB08E6FA08E6F922D4
:09095100E0FBA3E0FAA3E0F922A7
:09095A00E2FB08E2FA08E2F922CE
:0C096300E493FB740193FA740293F922F0
:00000001FF
